{
  "contractName": "AlphaStakePool",
  "abi": [
    {
      "inputs": [
        {
          "internalType": "contract AlphaToken",
          "name": "_alphaToken",
          "type": "address"
        },
        {
          "internalType": "contract ILendingPool",
          "name": "_lendingPool",
          "type": "address"
        }
      ],
      "stateMutability": "nonpayable",
      "type": "constructor"
    },
    {
      "anonymous": false,
      "inputs": [
        {
          "indexed": true,
          "internalType": "address",
          "name": "owner",
          "type": "address"
        },
        {
          "indexed": true,
          "internalType": "address",
          "name": "spender",
          "type": "address"
        },
        {
          "indexed": false,
          "internalType": "uint256",
          "name": "value",
          "type": "uint256"
        }
      ],
      "name": "Approval",
      "type": "event"
    },
    {
      "anonymous": false,
      "inputs": [
        {
          "indexed": true,
          "internalType": "address",
          "name": "previousOwner",
          "type": "address"
        },
        {
          "indexed": true,
          "internalType": "address",
          "name": "newOwner",
          "type": "address"
        }
      ],
      "name": "OwnershipTransferred",
      "type": "event"
    },
    {
      "anonymous": false,
      "inputs": [
        {
          "indexed": true,
          "internalType": "address",
          "name": "from",
          "type": "address"
        },
        {
          "indexed": true,
          "internalType": "address",
          "name": "to",
          "type": "address"
        },
        {
          "indexed": false,
          "internalType": "uint256",
          "name": "value",
          "type": "uint256"
        }
      ],
      "name": "Transfer",
      "type": "event"
    },
    {
      "inputs": [
        {
          "internalType": "address",
          "name": "owner",
          "type": "address"
        },
        {
          "internalType": "address",
          "name": "spender",
          "type": "address"
        }
      ],
      "name": "allowance",
      "outputs": [
        {
          "internalType": "uint256",
          "name": "",
          "type": "uint256"
        }
      ],
      "stateMutability": "view",
      "type": "function"
    },
    {
      "inputs": [],
      "name": "alphaToken",
      "outputs": [
        {
          "internalType": "contract AlphaToken",
          "name": "",
          "type": "address"
        }
      ],
      "stateMutability": "view",
      "type": "function"
    },
    {
      "inputs": [
        {
          "internalType": "address",
          "name": "spender",
          "type": "address"
        },
        {
          "internalType": "uint256",
          "name": "amount",
          "type": "uint256"
        }
      ],
      "name": "approve",
      "outputs": [
        {
          "internalType": "bool",
          "name": "",
          "type": "bool"
        }
      ],
      "stateMutability": "nonpayable",
      "type": "function"
    },
    {
      "inputs": [
        {
          "internalType": "address",
          "name": "account",
          "type": "address"
        }
      ],
      "name": "balanceOf",
      "outputs": [
        {
          "internalType": "uint256",
          "name": "",
          "type": "uint256"
        }
      ],
      "stateMutability": "view",
      "type": "function"
    },
    {
      "inputs": [],
      "name": "decimals",
      "outputs": [
        {
          "internalType": "uint8",
          "name": "",
          "type": "uint8"
        }
      ],
      "stateMutability": "view",
      "type": "function"
    },
    {
      "inputs": [
        {
          "internalType": "address",
          "name": "spender",
          "type": "address"
        },
        {
          "internalType": "uint256",
          "name": "subtractedValue",
          "type": "uint256"
        }
      ],
      "name": "decreaseAllowance",
      "outputs": [
        {
          "internalType": "bool",
          "name": "",
          "type": "bool"
        }
      ],
      "stateMutability": "nonpayable",
      "type": "function"
    },
    {
      "inputs": [
        {
          "internalType": "address",
          "name": "spender",
          "type": "address"
        },
        {
          "internalType": "uint256",
          "name": "addedValue",
          "type": "uint256"
        }
      ],
      "name": "increaseAllowance",
      "outputs": [
        {
          "internalType": "bool",
          "name": "",
          "type": "bool"
        }
      ],
      "stateMutability": "nonpayable",
      "type": "function"
    },
    {
      "inputs": [],
      "name": "name",
      "outputs": [
        {
          "internalType": "string",
          "name": "",
          "type": "string"
        }
      ],
      "stateMutability": "view",
      "type": "function"
    },
    {
      "inputs": [],
      "name": "owner",
      "outputs": [
        {
          "internalType": "address",
          "name": "",
          "type": "address"
        }
      ],
      "stateMutability": "view",
      "type": "function"
    },
    {
      "inputs": [],
      "name": "renounceOwnership",
      "outputs": [],
      "stateMutability": "nonpayable",
      "type": "function"
    },
    {
      "inputs": [],
      "name": "symbol",
      "outputs": [
        {
          "internalType": "string",
          "name": "",
          "type": "string"
        }
      ],
      "stateMutability": "view",
      "type": "function"
    },
    {
      "inputs": [],
      "name": "totalSupply",
      "outputs": [
        {
          "internalType": "uint256",
          "name": "",
          "type": "uint256"
        }
      ],
      "stateMutability": "view",
      "type": "function"
    },
    {
      "inputs": [
        {
          "internalType": "address",
          "name": "recipient",
          "type": "address"
        },
        {
          "internalType": "uint256",
          "name": "amount",
          "type": "uint256"
        }
      ],
      "name": "transfer",
      "outputs": [
        {
          "internalType": "bool",
          "name": "",
          "type": "bool"
        }
      ],
      "stateMutability": "nonpayable",
      "type": "function"
    },
    {
      "inputs": [
        {
          "internalType": "address",
          "name": "sender",
          "type": "address"
        },
        {
          "internalType": "address",
          "name": "recipient",
          "type": "address"
        },
        {
          "internalType": "uint256",
          "name": "amount",
          "type": "uint256"
        }
      ],
      "name": "transferFrom",
      "outputs": [
        {
          "internalType": "bool",
          "name": "",
          "type": "bool"
        }
      ],
      "stateMutability": "nonpayable",
      "type": "function"
    },
    {
      "inputs": [
        {
          "internalType": "address",
          "name": "newOwner",
          "type": "address"
        }
      ],
      "name": "transferOwnership",
      "outputs": [],
      "stateMutability": "nonpayable",
      "type": "function"
    },
    {
      "inputs": [],
      "name": "vestingAlpha",
      "outputs": [
        {
          "internalType": "contract IVestingAlpha",
          "name": "",
          "type": "address"
        }
      ],
      "stateMutability": "view",
      "type": "function"
    },
    {
      "inputs": [
        {
          "internalType": "contract ILendingPool",
          "name": "_lendingPool",
          "type": "address"
        }
      ],
      "name": "setLendingPool",
      "outputs": [],
      "stateMutability": "nonpayable",
      "type": "function"
    },
    {
      "inputs": [
        {
          "internalType": "contract IVestingAlpha",
          "name": "_vestingAlpha",
          "type": "address"
        }
      ],
      "name": "setVestingAlpha",
      "outputs": [],
      "stateMutability": "nonpayable",
      "type": "function"
    },
    {
      "inputs": [
        {
          "internalType": "uint256",
          "name": "_amount",
          "type": "uint256"
        }
      ],
      "name": "stake",
      "outputs": [],
      "stateMutability": "nonpayable",
      "type": "function"
    },
    {
      "inputs": [
        {
          "internalType": "uint256",
          "name": "_share",
          "type": "uint256"
        }
      ],
      "name": "unstake",
      "outputs": [],
      "stateMutability": "nonpayable",
      "type": "function"
    },
    {
      "inputs": [
        {
          "internalType": "uint256",
          "name": "_amount",
          "type": "uint256"
        }
      ],
      "name": "receiveAlpha",
      "outputs": [],
      "stateMutability": "nonpayable",
      "type": "function"
    }
  ],
  "bytecode": "0x60806040523480156200001157600080fd5b5060405162001a4838038062001a48833981810160405260408110156200003757600080fd5b508051602091820151604080518082018252600a80825269416c7068615374616b6560b01b828701908152835180850190945290835269414c5048415354414b4560b01b95830195909552805193949293909262000099916003919062000166565b508051620000af90600490602084019062000166565b50506005805460ff19166012179055506000620000d46001600160e01b036200016116565b60058054610100600160a81b0319166101006001600160a01b03841690810291909117909155604051919250906000907f8be0079c531659141344cd1fd0a4f28419497f9722a3daafe3b4186f6b6457e0908290a3506001600655600780546001600160a01b039384166001600160a01b0319918216179091556008805492909316911617905562000208565b335b90565b828054600181600116156101000203166002900490600052602060002090601f016020900481019282601f10620001a957805160ff1916838001178555620001d9565b82800160010185558215620001d9579182015b82811115620001d9578251825591602001919060010190620001bc565b50620001e7929150620001eb565b5090565b6200016391905b80821115620001e75760008155600101620001f2565b61183080620002186000396000f3fe608060405234801561001057600080fd5b50600436106101375760003560e01c806370a08231116100b857806395d89b411161007c57806395d89b411461037d578063a457c2d714610385578063a694fc3a146103b1578063a9059cbb146103ce578063dd62ed3e146103fa578063f2fde38b1461042857610137565b806370a082311461031957806370b4c9e01461033f578063715018a614610347578063765bb0921461034f5780638da5cb5b1461037557610137565b806323b872dd116100ff57806323b872dd146102585780632a8c61d21461028e5780632e17de78146102b2578063313ce567146102cf57806339509351146102ed57610137565b806306fdde031461013c578063095ea7b3146101b95780630ceab4f7146101f9578063113aa8b11461021857806318160ddd1461023e575b600080fd5b61014461044e565b6040805160208082528351818301528351919283929083019185019080838360005b8381101561017e578181015183820152602001610166565b50505050905090810190601f1680156101ab5780820380516001836020036101000a031916815260200191505b509250505060405180910390f35b6101e5600480360360408110156101cf57600080fd5b506001600160a01b0381351690602001356104e4565b604080519115158252519081900360200190f35b6102166004803603602081101561020f57600080fd5b5035610502565b005b6102166004803603602081101561022e57600080fd5b50356001600160a01b031661064b565b6102466106ca565b60408051918252519081900360200190f35b6101e56004803603606081101561026e57600080fd5b506001600160a01b038135811691602081013590911690604001356106d0565b61029661075d565b604080516001600160a01b039092168252519081900360200190f35b610216600480360360208110156102c857600080fd5b503561076c565b6102d7610a10565b6040805160ff9092168252519081900360200190f35b6101e56004803603604081101561030357600080fd5b506001600160a01b038135169060200135610a19565b6102466004803603602081101561032f57600080fd5b50356001600160a01b0316610a6d565b610296610a88565b610216610a97565b6102166004803603602081101561036557600080fd5b50356001600160a01b0316610b44565b610296610bc3565b610144610bd7565b6101e56004803603604081101561039b57600080fd5b506001600160a01b038135169060200135610c38565b610216600480360360208110156103c757600080fd5b5035610ca6565b6101e5600480360360408110156103e457600080fd5b506001600160a01b038135169060200135610e4b565b6102466004803603604081101561041057600080fd5b506001600160a01b0381358116916020013516610e5f565b6102166004803603602081101561043e57600080fd5b50356001600160a01b0316610e8a565b60038054604080516020601f60026000196101006001881615020190951694909404938401819004810282018101909252828152606093909290918301828280156104da5780601f106104af576101008083540402835291602001916104da565b820191906000526020600020905b8154815290600101906020018083116104bd57829003601f168201915b5050505050905090565b60006104f86104f1610f93565b8484610f97565b5060015b92915050565b600860009054906101000a90046001600160a01b03166001600160a01b031663bfe109286040518163ffffffff1660e01b815260040160206040518083038186803b15801561055057600080fd5b505afa158015610564573d6000803e3d6000fd5b505050506040513d602081101561057a57600080fd5b50516001600160a01b031633146105c25760405162461bcd60e51b81526004018080602001828103825260278152602001806116dc6027913960400191505060405180910390fd5b600754604080516323b872dd60e01b81523360048201523060248201526044810184905290516001600160a01b03909216916323b872dd916064808201926020929091908290030181600087803b15801561061c57600080fd5b505af1158015610630573d6000803e3d6000fd5b505050506040513d602081101561064657600080fd5b505050565b610653610f93565b60055461010090046001600160a01b039081169116146106a8576040805162461bcd60e51b8152602060048201819052602482015260008051602061174c833981519152604482015290519081900360640190fd5b600880546001600160a01b0319166001600160a01b0392909216919091179055565b60025490565b60006106dd848484611083565b610753846106e9610f93565b61074e85604051806060016040528060288152602001611724602891396001600160a01b038a16600090815260016020526040812090610727610f93565b6001600160a01b03168152602081019190915260400160002054919063ffffffff6111ea16565b610f97565b5060019392505050565b6009546001600160a01b031681565b600260065414156107c4576040805162461bcd60e51b815260206004820152601f60248201527f5265656e7472616e637947756172643a207265656e7472616e742063616c6c00604482015290519081900360640190fd5b600260065560006107d36106ca565b600754604080516370a0823160e01b81523060048201529051929350600092610873928592610867926001600160a01b03909216916370a0823191602480820192602092909190829003018186803b15801561082e57600080fd5b505afa158015610842573d6000803e3d6000fd5b505050506040513d602081101561085857600080fd5b5051869063ffffffff61128116565b9063ffffffff6112e116565b905061087f3384611323565b6009546001600160a01b0316610915576007546040805163a9059cbb60e01b81523360048201526024810184905290516001600160a01b039092169163a9059cbb916044808201926020929091908290030181600087803b1580156108e357600080fd5b505af11580156108f7573d6000803e3d6000fd5b505050506040513d602081101561090d57600080fd5b50610a069050565b6007546009546040805163095ea7b360e01b81526001600160a01b039283166004820152602481018590529051919092169163095ea7b39160448083019260209291908290030181600087803b15801561096e57600080fd5b505af1158015610982573d6000803e3d6000fd5b505050506040513d602081101561099857600080fd5b50506009546040805163b73480bf60e01b81523360048201526024810184905290516001600160a01b039092169163b73480bf9160448082019260009290919082900301818387803b1580156109ed57600080fd5b505af1158015610a01573d6000803e3d6000fd5b505050505b5050600160065550565b60055460ff1690565b60006104f8610a26610f93565b8461074e8560016000610a37610f93565b6001600160a01b03908116825260208083019390935260409182016000908120918c16815292529020549063ffffffff61142b16565b6001600160a01b031660009081526020819052604090205490565b6007546001600160a01b031681565b610a9f610f93565b60055461010090046001600160a01b03908116911614610af4576040805162461bcd60e51b8152602060048201819052602482015260008051602061174c833981519152604482015290519081900360640190fd5b60055460405160009161010090046001600160a01b0316907f8be0079c531659141344cd1fd0a4f28419497f9722a3daafe3b4186f6b6457e0908390a360058054610100600160a81b0319169055565b610b4c610f93565b60055461010090046001600160a01b03908116911614610ba1576040805162461bcd60e51b8152602060048201819052602482015260008051602061174c833981519152604482015290519081900360640190fd5b600980546001600160a01b0319166001600160a01b0392909216919091179055565b60055461010090046001600160a01b031690565b60048054604080516020601f60026000196101006001881615020190951694909404938401819004810282018101909252828152606093909290918301828280156104da5780601f106104af576101008083540402835291602001916104da565b60006104f8610c45610f93565b8461074e856040518060600160405280602581526020016117d66025913960016000610c6f610f93565b6001600160a01b03908116825260208083019390935260409182016000908120918d1681529252902054919063ffffffff6111ea16565b60026006541415610cfe576040805162461bcd60e51b815260206004820152601f60248201527f5265656e7472616e637947756172643a207265656e7472616e742063616c6c00604482015290519081900360640190fd5b6002600655600754604080516370a0823160e01b815230600482015290516000926001600160a01b0316916370a08231916024808301926020929190829003018186803b158015610d4e57600080fd5b505afa158015610d62573d6000803e3d6000fd5b505050506040513d6020811015610d7857600080fd5b505190506000610d866106ca565b600754604080516323b872dd60e01b81523360048201523060248201526044810187905290519293506001600160a01b03909116916323b872dd916064808201926020929091908290030181600087803b158015610de357600080fd5b505af1158015610df7573d6000803e3d6000fd5b505050506040513d6020811015610e0d57600080fd5b5050811580610e1a575080155b15610e2e57610e293384611485565b610a06565b610a0633610e4684610867878663ffffffff61128116565b611485565b60006104f8610e58610f93565b8484611083565b6001600160a01b03918216600090815260016020908152604080832093909416825291909152205490565b610e92610f93565b60055461010090046001600160a01b03908116911614610ee7576040805162461bcd60e51b8152602060048201819052602482015260008051602061174c833981519152604482015290519081900360640190fd5b6001600160a01b038116610f2c5760405162461bcd60e51b815260040180806020018281038252602681526020018061166e6026913960400191505060405180910390fd5b6005546040516001600160a01b0380841692610100900416907f8be0079c531659141344cd1fd0a4f28419497f9722a3daafe3b4186f6b6457e090600090a3600580546001600160a01b0390921661010002610100600160a81b0319909216919091179055565b3390565b6001600160a01b038316610fdc5760405162461bcd60e51b81526004018080602001828103825260248152602001806117b26024913960400191505060405180910390fd5b6001600160a01b0382166110215760405162461bcd60e51b81526004018080602001828103825260228152602001806116946022913960400191505060405180910390fd5b6001600160a01b03808416600081815260016020908152604080832094871680845294825291829020859055815185815291517f8c5be1e5ebec7d5bd14f71427d1e84f3dd0314c0f7b2291e5b200ac8c7c3b9259281900390910190a3505050565b6001600160a01b0383166110c85760405162461bcd60e51b815260040180806020018281038252602581526020018061178d6025913960400191505060405180910390fd5b6001600160a01b03821661110d5760405162461bcd60e51b81526004018080602001828103825260238152602001806116296023913960400191505060405180910390fd5b611118838383610646565b61115b816040518060600160405280602681526020016116b6602691396001600160a01b038616600090815260208190526040902054919063ffffffff6111ea16565b6001600160a01b038085166000908152602081905260408082209390935590841681522054611190908263ffffffff61142b16565b6001600160a01b038084166000818152602081815260409182902094909455805185815290519193928716927fddf252ad1be2c89b69c2b068fc378daa952ba7f163c4a11628f55a4df523b3ef92918290030190a3505050565b600081848411156112795760405162461bcd60e51b81526004018080602001828103825283818151815260200191508051906020019080838360005b8381101561123e578181015183820152602001611226565b50505050905090810190601f16801561126b5780820380516001836020036101000a031916815260200191505b509250505060405180910390fd5b505050900390565b600082611290575060006104fc565b8282028284828161129d57fe5b04146112da5760405162461bcd60e51b81526004018080602001828103825260218152602001806117036021913960400191505060405180910390fd5b9392505050565b60006112da83836040518060400160405280601a81526020017f536166654d6174683a206469766973696f6e206279207a65726f000000000000815250611581565b6001600160a01b0382166113685760405162461bcd60e51b815260040180806020018281038252602181526020018061176c6021913960400191505060405180910390fd5b61137482600083610646565b6113b78160405180606001604052806022815260200161164c602291396001600160a01b038516600090815260208190526040902054919063ffffffff6111ea16565b6001600160a01b0383166000908152602081905260409020556002546113e3908263ffffffff6115e616565b6002556040805182815290516000916001600160a01b038516917fddf252ad1be2c89b69c2b068fc378daa952ba7f163c4a11628f55a4df523b3ef9181900360200190a35050565b6000828201838110156112da576040805162461bcd60e51b815260206004820152601b60248201527f536166654d6174683a206164646974696f6e206f766572666c6f770000000000604482015290519081900360640190fd5b6001600160a01b0382166114e0576040805162461bcd60e51b815260206004820152601f60248201527f45524332303a206d696e7420746f20746865207a65726f206164647265737300604482015290519081900360640190fd5b6114ec60008383610646565b6002546114ff908263ffffffff61142b16565b6002556001600160a01b03821660009081526020819052604090205461152b908263ffffffff61142b16565b6001600160a01b0383166000818152602081815260408083209490945583518581529351929391927fddf252ad1be2c89b69c2b068fc378daa952ba7f163c4a11628f55a4df523b3ef9281900390910190a35050565b600081836115d05760405162461bcd60e51b815260206004820181815283516024840152835190928392604490910191908501908083836000831561123e578181015183820152602001611226565b5060008385816115dc57fe5b0495945050505050565b60006112da83836040518060400160405280601e81526020017f536166654d6174683a207375627472616374696f6e206f766572666c6f7700008152506111ea56fe45524332303a207472616e7366657220746f20746865207a65726f206164647265737345524332303a206275726e20616d6f756e7420657863656564732062616c616e63654f776e61626c653a206e6577206f776e657220697320746865207a65726f206164647265737345524332303a20617070726f766520746f20746865207a65726f206164647265737345524332303a207472616e7366657220616d6f756e7420657863656564732062616c616e63654f6e6c79206469737472696275746f722063616e2063616c6c207265636569766520416c706861536166654d6174683a206d756c7469706c69636174696f6e206f766572666c6f7745524332303a207472616e7366657220616d6f756e74206578636565647320616c6c6f77616e63654f776e61626c653a2063616c6c6572206973206e6f7420746865206f776e657245524332303a206275726e2066726f6d20746865207a65726f206164647265737345524332303a207472616e736665722066726f6d20746865207a65726f206164647265737345524332303a20617070726f76652066726f6d20746865207a65726f206164647265737345524332303a2064656372656173656420616c6c6f77616e63652062656c6f77207a65726fa2646970667358221220506f968b5402c9629cfb303617a4f1e2f14fff6ca80c9954cf22f7a9291942d164736f6c634300060b0033",
  "immutableReferences": {},
  "source": "// SPDX-License-Identifier: Apache-2.0\r\npragma solidity >=0.6.11;\r\n\r\nimport \"openzeppelin-solidity/contracts/token/ERC20/ERC20.sol\";\r\nimport \"openzeppelin-solidity/contracts/access/Ownable.sol\";\r\nimport \"openzeppelin-solidity/contracts/math/SafeMath.sol\";\r\nimport \"openzeppelin-solidity/contracts/utils/ReentrancyGuard.sol\";\r\nimport \"../interfaces/IAlphaReceiver.sol\";\r\nimport \"../interfaces/IVestingAlpha.sol\";\r\nimport \"../interfaces/ILendingPool.sol\";\r\nimport \"./AlphaToken.sol\";\r\n\r\n/**\r\n * @title Alpha staking pool contract\r\n * @notice Implements Alpha staking pool contracts\r\n * @author Alpha\r\n */\r\n\r\ncontract AlphaStakePool is ERC20(\"AlphaStake\", \"ALPHASTAKE\"), Ownable, IAlphaReceiver, ReentrancyGuard {\r\n  using SafeMath for uint256;\r\n\r\n  /**\r\n   * @dev Alpha token of the staking pool\r\n   */\r\n  AlphaToken public alphaToken;\r\n  /**\r\n   * @dev the lending pool of the AlToken\r\n   */\r\n  ILendingPool private lendingPool;\r\n  /**\r\n   * @dev VestingAlpha address\r\n   */\r\n  IVestingAlpha public vestingAlpha;\r\n\r\n  constructor(AlphaToken _alphaToken, ILendingPool _lendingPool) public {\r\n    alphaToken = _alphaToken;\r\n    lendingPool = _lendingPool;\r\n  }\r\n\r\n  /**\r\n    @dev set lending pool address\r\n   */\r\n  function setLendingPool(ILendingPool _lendingPool) public onlyOwner {\r\n    lendingPool = _lendingPool;\r\n  }\r\n\r\n  /**\r\n    @dev set vesting alpha address\r\n   */\r\n  function setVestingAlpha(IVestingAlpha _vestingAlpha) public onlyOwner {\r\n    vestingAlpha = _vestingAlpha;\r\n  }\r\n\r\n  /**\r\n   * @dev stake Alpha token to the staking pool\r\n   * @param _amount the amount to stake\r\n   * when user stake Alpha token to the staking pool then they will got the ALPHASTAKE token\r\n   * which can use to clain their Alpha token from the staking pool\r\n   */\r\n  function stake(uint256 _amount) public nonReentrant {\r\n    uint256 total = alphaToken.balanceOf(address(this));\r\n    uint256 totalShares = totalSupply();\r\n    alphaToken.transferFrom(msg.sender, address(this), _amount);\r\n    if (total == 0 || totalShares == 0) {\r\n      _mint(msg.sender, _amount);\r\n    } else {\r\n      _mint(msg.sender, _amount.mul(totalShares).div(total));\r\n    }\r\n  }\r\n\r\n  /**\r\n   * @dev unstake Alpha token from the staking pool\r\n   * @param _share the amount to stake token\r\n   * when user unstake their token, the stake token will be burned.\r\n   * user got the receipt to claim Alpha token after lock time period\r\n   */\r\n  function unstake(uint256 _share) public nonReentrant {\r\n    uint256 totalShares = totalSupply();\r\n    uint256 reward = _share.mul(alphaToken.balanceOf(address(this))).div(totalShares);\r\n    _burn(msg.sender, _share);\r\n    if (address(vestingAlpha) == address(0)) {\r\n      alphaToken.transfer(msg.sender, reward);\r\n    } else {\r\n      alphaToken.approve(address(vestingAlpha), reward);\r\n      vestingAlpha.accumulateAlphaToUser(msg.sender, reward);\r\n    }\r\n  }\r\n\r\n  /**\r\n   * @dev receive Alpha token from caller\r\n   * @param _amount the amount of Alpha token that staking pool will receive\r\n   * the staking pool receive Alpha token from the caller, this will transfer\r\n   * Alpha token from caller\r\n   */\r\n  function receiveAlpha(uint256 _amount) external override {\r\n    require(msg.sender == address(lendingPool.distributor()), \"Only distributor can call receive Alpha\");\r\n    alphaToken.transferFrom(msg.sender, address(this), _amount);\r\n  }\r\n}\r\n",
  "sourcePath": "D:/Lending-Development/Lending/contracts/distribution/AlphaStakePool.sol",
  "compiler": {
    "name": "solc",
    "version": "0.6.11+commit.5ef660b1.Emscripten.clang"
  },
  "schemaVersion": "3.2.5",
  "updatedAt": "2020-11-03T00:52:35.758Z",
  "devdoc": {
    "author": "Alpha",
    "kind": "dev",
    "methods": {
      "allowance(address,address)": {
        "details": "See {IERC20-allowance}."
      },
      "approve(address,uint256)": {
        "details": "See {IERC20-approve}. Requirements: - `spender` cannot be the zero address."
      },
      "balanceOf(address)": {
        "details": "See {IERC20-balanceOf}."
      },
      "decimals()": {
        "details": "Returns the number of decimals used to get its user representation. For example, if `decimals` equals `2`, a balance of `505` tokens should be displayed to a user as `5,05` (`505 / 10 ** 2`). Tokens usually opt for a value of 18, imitating the relationship between Ether and Wei. This is the value {ERC20} uses, unless {_setupDecimals} is called. NOTE: This information is only used for _display_ purposes: it in no way affects any of the arithmetic of the contract, including {IERC20-balanceOf} and {IERC20-transfer}."
      },
      "decreaseAllowance(address,uint256)": {
        "details": "Atomically decreases the allowance granted to `spender` by the caller. This is an alternative to {approve} that can be used as a mitigation for problems described in {IERC20-approve}. Emits an {Approval} event indicating the updated allowance. Requirements: - `spender` cannot be the zero address. - `spender` must have allowance for the caller of at least `subtractedValue`."
      },
      "increaseAllowance(address,uint256)": {
        "details": "Atomically increases the allowance granted to `spender` by the caller. This is an alternative to {approve} that can be used as a mitigation for problems described in {IERC20-approve}. Emits an {Approval} event indicating the updated allowance. Requirements: - `spender` cannot be the zero address."
      },
      "name()": {
        "details": "Returns the name of the token."
      },
      "owner()": {
        "details": "Returns the address of the current owner."
      },
      "receiveAlpha(uint256)": {
        "details": "receive Alpha token from caller",
        "params": {
          "_amount": "the amount of Alpha token that staking pool will receive the staking pool receive Alpha token from the caller, this will transfer Alpha token from caller"
        }
      },
      "renounceOwnership()": {
        "details": "Leaves the contract without owner. It will not be possible to call `onlyOwner` functions anymore. Can only be called by the current owner. NOTE: Renouncing ownership will leave the contract without an owner, thereby removing any functionality that is only available to the owner."
      },
      "setLendingPool(address)": {
        "details": "set lending pool address"
      },
      "setVestingAlpha(address)": {
        "details": "set vesting alpha address"
      },
      "stake(uint256)": {
        "details": "stake Alpha token to the staking pool",
        "params": {
          "_amount": "the amount to stake when user stake Alpha token to the staking pool then they will got the ALPHASTAKE token which can use to clain their Alpha token from the staking pool"
        }
      },
      "symbol()": {
        "details": "Returns the symbol of the token, usually a shorter version of the name."
      },
      "totalSupply()": {
        "details": "See {IERC20-totalSupply}."
      },
      "transfer(address,uint256)": {
        "details": "See {IERC20-transfer}. Requirements: - `recipient` cannot be the zero address. - the caller must have a balance of at least `amount`."
      },
      "transferFrom(address,address,uint256)": {
        "details": "See {IERC20-transferFrom}. Emits an {Approval} event indicating the updated allowance. This is not required by the EIP. See the note at the beginning of {ERC20}; Requirements: - `sender` and `recipient` cannot be the zero address. - `sender` must have a balance of at least `amount`. - the caller must have allowance for ``sender``'s tokens of at least `amount`."
      },
      "transferOwnership(address)": {
        "details": "Transfers ownership of the contract to a new account (`newOwner`). Can only be called by the current owner."
      },
      "unstake(uint256)": {
        "details": "unstake Alpha token from the staking pool",
        "params": {
          "_share": "the amount to stake token when user unstake their token, the stake token will be burned. user got the receipt to claim Alpha token after lock time period"
        }
      }
    },
    "stateVariables": {
      "alphaToken": {
        "details": "Alpha token of the staking pool"
      },
      "lendingPool": {
        "details": "the lending pool of the AlToken"
      },
      "vestingAlpha": {
        "details": "VestingAlpha address"
      }
    },
    "title": "Alpha staking pool contract",
    "version": 1
  },
  "userdoc": {
    "kind": "user",
    "methods": {},
    "notice": "Implements Alpha staking pool contracts",
    "version": 1
  }
}