{
  "contractName": "AlphaReleaseRule",
  "abi": [
    {
      "inputs": [
        {
          "internalType": "uint256",
          "name": "_startBlock",
          "type": "uint256"
        },
        {
          "internalType": "uint256",
          "name": "_blockPerWeek",
          "type": "uint256"
        },
        {
          "internalType": "uint256[]",
          "name": "_tokensPerBlock",
          "type": "uint256[]"
        }
      ],
      "stateMutability": "nonpayable",
      "type": "constructor"
    },
    {
      "anonymous": false,
      "inputs": [
        {
          "indexed": true,
          "internalType": "address",
          "name": "previousOwner",
          "type": "address"
        },
        {
          "indexed": true,
          "internalType": "address",
          "name": "newOwner",
          "type": "address"
        }
      ],
      "name": "OwnershipTransferred",
      "type": "event"
    },
    {
      "inputs": [],
      "name": "blockPerWeek",
      "outputs": [
        {
          "internalType": "uint256",
          "name": "",
          "type": "uint256"
        }
      ],
      "stateMutability": "view",
      "type": "function"
    },
    {
      "inputs": [],
      "name": "owner",
      "outputs": [
        {
          "internalType": "address",
          "name": "",
          "type": "address"
        }
      ],
      "stateMutability": "view",
      "type": "function"
    },
    {
      "inputs": [],
      "name": "renounceOwnership",
      "outputs": [],
      "stateMutability": "nonpayable",
      "type": "function"
    },
    {
      "inputs": [],
      "name": "startBlock",
      "outputs": [
        {
          "internalType": "uint256",
          "name": "",
          "type": "uint256"
        }
      ],
      "stateMutability": "view",
      "type": "function"
    },
    {
      "inputs": [
        {
          "internalType": "uint256",
          "name": "",
          "type": "uint256"
        }
      ],
      "name": "tokensPerBlock",
      "outputs": [
        {
          "internalType": "uint256",
          "name": "",
          "type": "uint256"
        }
      ],
      "stateMutability": "view",
      "type": "function"
    },
    {
      "inputs": [
        {
          "internalType": "address",
          "name": "newOwner",
          "type": "address"
        }
      ],
      "name": "transferOwnership",
      "outputs": [],
      "stateMutability": "nonpayable",
      "type": "function"
    },
    {
      "inputs": [
        {
          "internalType": "uint256",
          "name": "_week",
          "type": "uint256"
        },
        {
          "internalType": "uint256",
          "name": "_amount",
          "type": "uint256"
        }
      ],
      "name": "setTokenPerBlock",
      "outputs": [],
      "stateMutability": "nonpayable",
      "type": "function"
    },
    {
      "inputs": [
        {
          "internalType": "uint256",
          "name": "_fromBlock",
          "type": "uint256"
        },
        {
          "internalType": "uint256",
          "name": "_toBlock",
          "type": "uint256"
        }
      ],
      "name": "getReleaseAmount",
      "outputs": [
        {
          "internalType": "uint256",
          "name": "",
          "type": "uint256"
        }
      ],
      "stateMutability": "view",
      "type": "function"
    },
    {
      "inputs": [
        {
          "internalType": "uint256",
          "name": "_block",
          "type": "uint256"
        }
      ],
      "name": "findWeekByBlockNumber",
      "outputs": [
        {
          "internalType": "uint256",
          "name": "",
          "type": "uint256"
        }
      ],
      "stateMutability": "view",
      "type": "function"
    },
    {
      "inputs": [
        {
          "internalType": "uint256",
          "name": "_block",
          "type": "uint256"
        }
      ],
      "name": "findNextWeekFirstBlock",
      "outputs": [
        {
          "internalType": "uint256",
          "name": "",
          "type": "uint256"
        }
      ],
      "stateMutability": "view",
      "type": "function"
    }
  ],
  "bytecode": "0x608060405234801561001057600080fd5b50604051610ad6380380610ad68339818101604052606081101561003357600080fd5b8151602083015160408085018051915193959294830192918464010000000082111561005e57600080fd5b90830190602082018581111561007357600080fd5b825186602082028301116401000000008211171561009057600080fd5b82525081516020918201928201910280838360005b838110156100bd5781810151838201526020016100a5565b5050505090500160405250505060006100da61017c60201b60201c565b600080546001600160a01b0319166001600160a01b0383169081178255604051929350917f8be0079c531659141344cd1fd0a4f28419497f9722a3daafe3b4186f6b6457e0908290a3506002839055600182905560005b815181101561017357600382828151811061014857fe5b6020908102919091018101518254600181810185556000948552929093209092019190915501610131565b50505050610180565b3390565b6109478061018f6000396000f3fe608060405234801561001057600080fd5b506004361061009e5760003560e01c8063708366fb11610066578063708366fb1461012a578063715018a6146101475780638da5cb5b1461014f5780639b49f5b914610173578063f2fde38b146101905761009e565b80632ba10dbb146100a35780632f61b7d6146100c85780633e503e51146100e257806348cd4cb11461010557806362f16e461461010d575b600080fd5b6100c6600480360360408110156100b957600080fd5b50803590602001356101b6565b005b6100d061023e565b60408051918252519081900360200190f35b6100d0600480360360408110156100f857600080fd5b5080359060200135610244565b6100d0610389565b6100d06004803603602081101561012357600080fd5b503561038f565b6100d06004803603602081101561014057600080fd5b50356103ad565b6100c661042d565b6101576104e1565b604080516001600160a01b039092168252519081900360200190f35b6100d06004803603602081101561018957600080fd5b50356104f0565b6100c6600480360360208110156101a657600080fd5b50356001600160a01b031661054e565b6101be610658565b6000546001600160a01b03908116911614610220576040805162461bcd60e51b815260206004820181905260248201527f4f776e61626c653a2063616c6c6572206973206e6f7420746865206f776e6572604482015290519081900360640190fd5b806003838154811061022e57fe5b6000918252602090912001555050565b60015481565b600154600354600091829161027291610263919063ffffffff61065c16565b6002549063ffffffff6106bc16565b9050828410158061028557506002548311155b806102905750838111155b1561029f576000915050610383565b600060025485116102b2576002546102b4565b845b905060008285106102c557826102c7565b845b905060006102d4836104f0565b905060006102e1846103ad565b905060005b8385101561037b578184106102fb57816102fd565b835b915061034761033a6003858154811061031257fe5b60009182526020909120015461032e858963ffffffff61071616565b9063ffffffff61065c16565b829063ffffffff6106bc16565b905061035a83600163ffffffff6106bc16565b9250819450610374600154836106bc90919063ffffffff16565b91506102e6565b955050505050505b92915050565b60025481565b6003818154811061039c57fe5b600091825260209091200154905081565b60006002548210156103f05760405162461bcd60e51b81526004018080602001828103825260348152602001806108de6034913960400191505060405180910390fd5b600254600154610383919061042190818161032e816104158a8863ffffffff61071616565b9063ffffffff61075816565b9063ffffffff6106bc16565b610435610658565b6000546001600160a01b03908116911614610497576040805162461bcd60e51b815260206004820181905260248201527f4f776e61626c653a2063616c6c6572206973206e6f7420746865206f776e6572604482015290519081900360640190fd5b600080546040516001600160a01b03909116907f8be0079c531659141344cd1fd0a4f28419497f9722a3daafe3b4186f6b6457e0908390a3600080546001600160a01b0319169055565b6000546001600160a01b031690565b60006002548210156105335760405162461bcd60e51b81526004018080602001828103825260348152602001806108de6034913960400191505060405180910390fd5b6103836001546104156002548561071690919063ffffffff16565b610556610658565b6000546001600160a01b039081169116146105b8576040805162461bcd60e51b815260206004820181905260248201527f4f776e61626c653a2063616c6c6572206973206e6f7420746865206f776e6572604482015290519081900360640190fd5b6001600160a01b0381166105fd5760405162461bcd60e51b81526004018080602001828103825260268152602001806108976026913960400191505060405180910390fd5b600080546040516001600160a01b03808516939216917f8be0079c531659141344cd1fd0a4f28419497f9722a3daafe3b4186f6b6457e091a3600080546001600160a01b0319166001600160a01b0392909216919091179055565b3390565b60008261066b57506000610383565b8282028284828161067857fe5b04146106b55760405162461bcd60e51b81526004018080602001828103825260218152602001806108bd6021913960400191505060405180910390fd5b9392505050565b6000828201838110156106b5576040805162461bcd60e51b815260206004820152601b60248201527f536166654d6174683a206164646974696f6e206f766572666c6f770000000000604482015290519081900360640190fd5b60006106b583836040518060400160405280601e81526020017f536166654d6174683a207375627472616374696f6e206f766572666c6f77000081525061079a565b60006106b583836040518060400160405280601a81526020017f536166654d6174683a206469766973696f6e206279207a65726f000000000000815250610831565b600081848411156108295760405162461bcd60e51b81526004018080602001828103825283818151815260200191508051906020019080838360005b838110156107ee5781810151838201526020016107d6565b50505050905090810190601f16801561081b5780820380516001836020036101000a031916815260200191505b509250505060405180910390fd5b505050900390565b600081836108805760405162461bcd60e51b81526020600482018181528351602484015283519092839260449091019190850190808383600083156107ee5781810151838201526020016107d6565b50600083858161088c57fe5b049594505050505056fe4f776e61626c653a206e6577206f776e657220697320746865207a65726f2061646472657373536166654d6174683a206d756c7469706c69636174696f6e206f766572666c6f7774686520626c6f636b206e756d626572206d757374206d6f7265207468616e206f7220657175616c20737461727420626c6f636ba264697066735822122042e39ff403d3365d3539bd24c2dfc03aa4f9cd78725633f5d0b7d420e09deae064736f6c634300060b0033",
  "immutableReferences": {},
  "source": "pragma solidity >=0.6.11;\r\n\r\nimport \"openzeppelin-solidity/contracts/access/Ownable.sol\";\r\nimport \"openzeppelin-solidity/contracts/math/SafeMath.sol\";\r\nimport \"../libraries/WadMath.sol\";\r\nimport \"../interfaces/IAlphaReleaseRule.sol\";\r\n\r\n/**\r\n * @title Alpha rule contract\r\n * @notice Implements the distribution of the Alpha token pool.\r\n * @author Alpha\r\n **/\r\n\r\ncontract AlphaReleaseRule is Ownable, IAlphaReleaseRule {\r\n  using SafeMath for uint256;\r\n  using WadMath for uint256;\r\n\r\n  // number of block per week\r\n  uint256 public blockPerWeek;\r\n  // the start block of alpha distribution (week0 will start from startBlock + 1 )\r\n  uint256 public startBlock;\r\n  // week => number of token per block\r\n  uint256[] public tokensPerBlock;\r\n\r\n  constructor(\r\n    uint256 _startBlock,\r\n    uint256 _blockPerWeek,\r\n    uint256[] memory _tokensPerBlock\r\n  ) public {\r\n    startBlock = _startBlock;\r\n    blockPerWeek = _blockPerWeek;\r\n    for (uint256 i = 0; i < _tokensPerBlock.length; i++) {\r\n      tokensPerBlock.push(_tokensPerBlock[i]);\r\n    }\r\n  }\r\n\r\n  /**\r\n   * @dev set the amount of token to distribute per block of that week\r\n   * @param _week the week to set\r\n   * @param _amount the amount of alpha token to distribute on that week\r\n   */\r\n  function setTokenPerBlock(uint256 _week, uint256 _amount) external onlyOwner {\r\n    tokensPerBlock[_week] = _amount;\r\n  }\r\n\r\n  /**\r\n   * @dev get the amount of distributed token from _fromBlock + 1 to _toBlock\r\n   * @param _fromBlock calculate from _fromBlock + 1 \r\n   * @param _toBlock calculate to the _toBlock\r\n   */\r\n  function getReleaseAmount(uint256 _fromBlock, uint256 _toBlock)\r\n    external\r\n    override\r\n    view\r\n    returns (uint256)\r\n  {\r\n    uint256 lastBlock = startBlock.add(tokensPerBlock.length.mul(blockPerWeek));\r\n    if (_fromBlock >= _toBlock || _toBlock <= startBlock || lastBlock <= _fromBlock) {\r\n      return 0;\r\n    }\r\n    uint256 fromBlock = _fromBlock > startBlock ? _fromBlock : startBlock;\r\n    uint256 toBlock = _toBlock < lastBlock ? _toBlock : lastBlock;\r\n    uint256 week = findWeekByBlockNumber(fromBlock);\r\n    uint256 nextWeekBlock = findNextWeekFirstBlock(fromBlock);\r\n    uint256 totalAmount = 0;\r\n    while (fromBlock < toBlock) {\r\n      nextWeekBlock = toBlock < nextWeekBlock ? toBlock : nextWeekBlock;\r\n      totalAmount = totalAmount.add(nextWeekBlock.sub(fromBlock).mul(tokensPerBlock[week]));\r\n      week = week.add(1);\r\n      fromBlock = nextWeekBlock;\r\n      nextWeekBlock = nextWeekBlock.add(blockPerWeek);\r\n    }\r\n    return totalAmount;\r\n  }\r\n\r\n  /**\r\n   * @dev find the week of that block (week0 starts from the startBlock + 1)\r\n   * @param _block the block number to find week\r\n   */\r\n  function findWeekByBlockNumber(uint256 _block) public view returns (uint256) {\r\n    require(_block >= startBlock, \"the block number must more than or equal start block\");\r\n    return _block.sub(startBlock).div(blockPerWeek);\r\n  }\r\n\r\n  /**\r\n   * @dev find the next week first block of this block.\r\n   * |--------------------------|      |--------------------------|\r\n   * 10                         20     21                         30\r\n   *                       |--18\r\n   * the next week first block of block#18 is block#20\r\n   * @param _block the block number to find the next week first block\r\n   */\r\n  function findNextWeekFirstBlock(uint256 _block) public view returns (uint256) {\r\n    require(_block >= startBlock, \"the block number must more than or equal start block\");\r\n    return\r\n      _block.sub(startBlock).div(blockPerWeek).mul(blockPerWeek).add(blockPerWeek).add(startBlock);\r\n  }\r\n}\r\n",
  "sourcePath": "D:/Lending-Development/Lending/contracts/distribution/AlphaReleaseRule.sol",
  "compiler": {
    "name": "solc",
    "version": "0.6.11+commit.5ef660b1.Emscripten.clang"
  },
  "schemaVersion": "3.2.5",
  "updatedAt": "2020-11-03T00:52:35.752Z",
  "devdoc": {
    "author": "Alpha*",
    "kind": "dev",
    "methods": {
      "findNextWeekFirstBlock(uint256)": {
        "details": "find the next week first block of this block. |--------------------------|      |--------------------------| 10                         20     21                         30                       |--18 the next week first block of block#18 is block#20",
        "params": {
          "_block": "the block number to find the next week first block"
        }
      },
      "findWeekByBlockNumber(uint256)": {
        "details": "find the week of that block (week0 starts from the startBlock + 1)",
        "params": {
          "_block": "the block number to find week"
        }
      },
      "getReleaseAmount(uint256,uint256)": {
        "details": "get the amount of distributed token from _fromBlock + 1 to _toBlock",
        "params": {
          "_fromBlock": "calculate from _fromBlock + 1 ",
          "_toBlock": "calculate to the _toBlock"
        }
      },
      "owner()": {
        "details": "Returns the address of the current owner."
      },
      "renounceOwnership()": {
        "details": "Leaves the contract without owner. It will not be possible to call `onlyOwner` functions anymore. Can only be called by the current owner. NOTE: Renouncing ownership will leave the contract without an owner, thereby removing any functionality that is only available to the owner."
      },
      "setTokenPerBlock(uint256,uint256)": {
        "details": "set the amount of token to distribute per block of that week",
        "params": {
          "_amount": "the amount of alpha token to distribute on that week",
          "_week": "the week to set"
        }
      },
      "transferOwnership(address)": {
        "details": "Transfers ownership of the contract to a new account (`newOwner`). Can only be called by the current owner."
      }
    },
    "title": "Alpha rule contract",
    "version": 1
  },
  "userdoc": {
    "kind": "user",
    "methods": {},
    "notice": "Implements the distribution of the Alpha token pool.",
    "version": 1
  }
}