{
  "contractName": "AlphaDistributor",
  "abi": [
    {
      "inputs": [
        {
          "internalType": "contract AlphaToken",
          "name": "_alphaToken",
          "type": "address"
        },
        {
          "internalType": "contract IAlphaReleaseRuleSelector",
          "name": "_ruleSelector",
          "type": "address"
        }
      ],
      "stateMutability": "nonpayable",
      "type": "constructor"
    },
    {
      "anonymous": false,
      "inputs": [
        {
          "indexed": true,
          "internalType": "address",
          "name": "previousOwner",
          "type": "address"
        },
        {
          "indexed": true,
          "internalType": "address",
          "name": "newOwner",
          "type": "address"
        }
      ],
      "name": "OwnershipTransferred",
      "type": "event"
    },
    {
      "anonymous": false,
      "inputs": [
        {
          "indexed": true,
          "internalType": "address",
          "name": "ruleSelector",
          "type": "address"
        }
      ],
      "name": "RuleSelectorUpdated",
      "type": "event"
    },
    {
      "anonymous": false,
      "inputs": [
        {
          "indexed": true,
          "internalType": "address",
          "name": "withdrawer",
          "type": "address"
        },
        {
          "indexed": false,
          "internalType": "uint256",
          "name": "amount",
          "type": "uint256"
        }
      ],
      "name": "WithdrawAlpha",
      "type": "event"
    },
    {
      "inputs": [],
      "name": "alphaToken",
      "outputs": [
        {
          "internalType": "contract AlphaToken",
          "name": "",
          "type": "address"
        }
      ],
      "stateMutability": "view",
      "type": "function"
    },
    {
      "inputs": [],
      "name": "lastPokeBlock",
      "outputs": [
        {
          "internalType": "uint256",
          "name": "",
          "type": "uint256"
        }
      ],
      "stateMutability": "view",
      "type": "function"
    },
    {
      "inputs": [],
      "name": "owner",
      "outputs": [
        {
          "internalType": "address",
          "name": "",
          "type": "address"
        }
      ],
      "stateMutability": "view",
      "type": "function"
    },
    {
      "inputs": [],
      "name": "renounceOwnership",
      "outputs": [],
      "stateMutability": "nonpayable",
      "type": "function"
    },
    {
      "inputs": [],
      "name": "ruleSelector",
      "outputs": [
        {
          "internalType": "contract IAlphaReleaseRuleSelector",
          "name": "",
          "type": "address"
        }
      ],
      "stateMutability": "view",
      "type": "function"
    },
    {
      "inputs": [
        {
          "internalType": "address",
          "name": "newOwner",
          "type": "address"
        }
      ],
      "name": "transferOwnership",
      "outputs": [],
      "stateMutability": "nonpayable",
      "type": "function"
    },
    {
      "inputs": [
        {
          "internalType": "contract IAlphaReleaseRuleSelector",
          "name": "_ruleSelector",
          "type": "address"
        }
      ],
      "name": "setReleaseRuleSelector",
      "outputs": [],
      "stateMutability": "nonpayable",
      "type": "function"
    },
    {
      "inputs": [],
      "name": "poke",
      "outputs": [],
      "stateMutability": "nonpayable",
      "type": "function"
    },
    {
      "inputs": [
        {
          "internalType": "uint256",
          "name": "_amount",
          "type": "uint256"
        }
      ],
      "name": "withdrawAlpha",
      "outputs": [],
      "stateMutability": "nonpayable",
      "type": "function"
    }
  ],
  "bytecode": "0x608060405234801561001057600080fd5b506040516109f33803806109f38339818101604052604081101561003357600080fd5b508051602090910151600061004f6001600160e01b036100ce16565b600080546001600160a01b0319166001600160a01b0383169081178255604051929350917f8be0079c531659141344cd1fd0a4f28419497f9722a3daafe3b4186f6b6457e0908290a35060018055600280546001600160a01b039384166001600160a01b031991821617909155600380549290931691161790556100d2565b3390565b610912806100e16000396000f3fe608060405234801561001057600080fd5b50600436106100935760003560e01c8063715018a611610066578063715018a6146101065780638da5cb5b1461010e578063e5aaca0414610116578063e6bde6ed1461011e578063f2fde38b1461013b57610093565b806312a240881461009857806318178358146100b25780633210cb25146100bc57806370b4c9e0146100e2575b600080fd5b6100a0610161565b60408051918252519081900360200190f35b6100ba610167565b005b6100ba600480360360208110156100d257600080fd5b50356001600160a01b0316610512565b6100ea6105ba565b604080516001600160a01b039092168252519081900360200190f35b6100ba6105c9565b6100ea61066b565b6100ea61067a565b6100ba6004803603602081101561013457600080fd5b5035610689565b6100ba6004803603602081101561015157600080fd5b50356001600160a01b031661079a565b60045481565b600260015414156101bf576040805162461bcd60e51b815260206004820152601f60248201527f5265656e7472616e637947756172643a207265656e7472616e742063616c6c00604482015290519081900360640190fd5b60026001556004544314156101d35761050c565b600354600480546040805163da01becf60e01b8152928301919091524360248301525160609283926001600160a01b039091169163da01becf91604480820192600092909190829003018186803b15801561022d57600080fd5b505afa158015610241573d6000803e3d6000fd5b505050506040513d6000823e601f3d908101601f19168201604090815281101561026a57600080fd5b810190808051604051939291908464010000000082111561028a57600080fd5b90830190602082018581111561029f57600080fd5b82518660208202830111640100000000821117156102bc57600080fd5b82525081516020918201928201910280838360005b838110156102e95781810151838201526020016102d1565b505050509050016040526020018051604051939291908464010000000082111561031257600080fd5b90830190602082018581111561032757600080fd5b825186602082028301116401000000008211171561034457600080fd5b82525081516020918201928201910280838360005b83811015610371578181015183820152602001610359565b50505050905001604052505050915091504360048190555080518251146103df576040805162461bcd60e51b815260206004820152601760248201527f4261642072656c656173652072756c65206c656e677468000000000000000000604482015290519081900360640190fd5b60005b82518110156105085760008382815181106103f957fe5b60200260200101519050600083838151811061041157fe5b6020908102919091018101516002546040805163095ea7b360e01b81526001600160a01b03878116600483015260248201859052915193955091169263095ea7b3926044808401938290030181600087803b15801561046f57600080fd5b505af1158015610483573d6000803e3d6000fd5b505050506040513d602081101561049957600080fd5b505060408051630ceab4f760e01b81526004810183905290516001600160a01b03841691630ceab4f791602480830192600092919082900301818387803b1580156104e357600080fd5b505af11580156104f7573d6000803e3d6000fd5b5050505050508060010190506103e2565b5050505b60018055565b61051a610892565b6000546001600160a01b0390811691161461056a576040805162461bcd60e51b815260206004820181905260248201526000805160206108bd833981519152604482015290519081900360640190fd5b600380546001600160a01b0319166001600160a01b0383811691909117918290556040519116907f19c8595452bd3165dfaaa3cad807b90404aa28552e3f8f7bd03766eed14030c490600090a250565b6002546001600160a01b031681565b6105d1610892565b6000546001600160a01b03908116911614610621576040805162461bcd60e51b815260206004820181905260248201526000805160206108bd833981519152604482015290519081900360640190fd5b600080546040516001600160a01b03909116907f8be0079c531659141344cd1fd0a4f28419497f9722a3daafe3b4186f6b6457e0908390a3600080546001600160a01b0319169055565b6000546001600160a01b031690565b6003546001600160a01b031681565b610691610892565b6000546001600160a01b039081169116146106e1576040805162461bcd60e51b815260206004820181905260248201526000805160206108bd833981519152604482015290519081900360640190fd5b6002546040805163a9059cbb60e01b81523360048201526024810184905290516001600160a01b039092169163a9059cbb916044808201926020929091908290030181600087803b15801561073557600080fd5b505af1158015610749573d6000803e3d6000fd5b505050506040513d602081101561075f57600080fd5b505060408051828152905133917ffe497431b8d2696cff6da140218a736e2bb4ba8d9f1748f60f6afa95dea1ab5d919081900360200190a250565b6107a2610892565b6000546001600160a01b039081169116146107f2576040805162461bcd60e51b815260206004820181905260248201526000805160206108bd833981519152604482015290519081900360640190fd5b6001600160a01b0381166108375760405162461bcd60e51b81526004018080602001828103825260268152602001806108976026913960400191505060405180910390fd5b600080546040516001600160a01b03808516939216917f8be0079c531659141344cd1fd0a4f28419497f9722a3daafe3b4186f6b6457e091a3600080546001600160a01b0319166001600160a01b0392909216919091179055565b339056fe4f776e61626c653a206e6577206f776e657220697320746865207a65726f20616464726573734f776e61626c653a2063616c6c6572206973206e6f7420746865206f776e6572a26469706673582212209e300793b41d5ec0144ffa0f391497f2a1e3a55b7dd34e4694ebfb9c6a135f0d64736f6c634300060b0033",
  "immutableReferences": {},
  "source": "// SPDX-License-Identifier: Apache-2.0\r\npragma solidity >=0.6.11;\r\n\r\nimport \"openzeppelin-solidity/contracts/access/Ownable.sol\";\r\nimport \"openzeppelin-solidity/contracts/utils/ReentrancyGuard.sol\";\r\nimport \"../interfaces/IAlphaDistributor.sol\";\r\nimport \"../interfaces/IAlphaReceiver.sol\";\r\nimport \"../interfaces/IAlphaReleaseRuleSelector.sol\";\r\nimport \"./AlphaToken.sol\";\r\n\r\n/**\r\n * @title Alpha distributor contract\r\n * @notice Implements distributor to poke Alpha token reward to the receiver\r\n * follow by the Alpha release rules\r\n * @author Alpha\r\n */\r\n\r\ncontract AlphaDistributor is Ownable, ReentrancyGuard, IAlphaDistributor {\r\n  /**\r\n   * @dev the Alpha token to distribute\r\n   */\r\n  AlphaToken public override alphaToken;\r\n  /**\r\n   * @dev the selector of Alpha release rules\r\n   */\r\n  IAlphaReleaseRuleSelector public ruleSelector;\r\n  /**\r\n   * @dev the last block the distributor distribute Alpha token to the receiver\r\n   */\r\n  uint256 public lastPokeBlock;\r\n\r\n  /**\r\n   * @dev emitted on update rule selector\r\n   * @param ruleSelector the new rule selector\r\n   */\r\n  event RuleSelectorUpdated(address indexed ruleSelector);\r\n\r\n  /**\r\n   * @dev emitted on withdraw Alpha token\r\n   * @param withdrawer the address of withdrawer\r\n   * @param amount the withdraw amount\r\n   */\r\n  event WithdrawAlpha(address indexed withdrawer, uint256 amount);\r\n\r\n  constructor(AlphaToken _alphaToken, IAlphaReleaseRuleSelector _ruleSelector) public {\r\n    alphaToken = _alphaToken;\r\n    ruleSelector = _ruleSelector;\r\n  }\r\n\r\n  /**\r\n   * @dev set the release rule selector of the distributor\r\n   * @param _ruleSelector the release rule selector\r\n   */\r\n  function setReleaseRuleSelector(IAlphaReleaseRuleSelector _ruleSelector) public onlyOwner {\r\n    ruleSelector = _ruleSelector;\r\n    emit RuleSelectorUpdated(address(ruleSelector));\r\n  }\r\n\r\n  /**\r\n   * @dev distributes Alpha token to the receiver from the last distributed block\r\n   * to the latest block forrowing the release rules\r\n   */\r\n  function poke() public override nonReentrant {\r\n    if (lastPokeBlock == block.number) {\r\n      return;\r\n    }\r\n    (IAlphaReceiver[] memory receivers, uint256[] memory values) = ruleSelector\r\n      .getAlphaReleaseRules(lastPokeBlock, block.number);\r\n    lastPokeBlock = block.number;\r\n    require(receivers.length == values.length, \"Bad release rule length\");\r\n    for (uint256 idx = 0; idx < receivers.length; ++idx) {\r\n      IAlphaReceiver receiver = receivers[idx];\r\n      uint256 value = values[idx];\r\n      alphaToken.approve(address(receiver), value);\r\n      receiver.receiveAlpha(value);\r\n    }\r\n  }\r\n\r\n  function withdrawAlpha(uint256 _amount) external onlyOwner {\r\n    alphaToken.transfer(msg.sender, _amount);\r\n    emit WithdrawAlpha(msg.sender, _amount);\r\n  }\r\n}\r\n",
  "sourcePath": "D:/Lending-Development/Lending/contracts/distribution/AlphaDistributor.sol",
  "compiler": {
    "name": "solc",
    "version": "0.6.11+commit.5ef660b1.Emscripten.clang"
  },
  "schemaVersion": "3.2.5",
  "updatedAt": "2020-11-03T00:52:35.750Z",
  "devdoc": {
    "author": "Alpha",
    "events": {
      "RuleSelectorUpdated(address)": {
        "details": "emitted on update rule selector",
        "params": {
          "ruleSelector": "the new rule selector"
        }
      },
      "WithdrawAlpha(address,uint256)": {
        "details": "emitted on withdraw Alpha token",
        "params": {
          "amount": "the withdraw amount",
          "withdrawer": "the address of withdrawer"
        }
      }
    },
    "kind": "dev",
    "methods": {
      "owner()": {
        "details": "Returns the address of the current owner."
      },
      "poke()": {
        "details": "distributes Alpha token to the receiver from the last distributed block to the latest block forrowing the release rules"
      },
      "renounceOwnership()": {
        "details": "Leaves the contract without owner. It will not be possible to call `onlyOwner` functions anymore. Can only be called by the current owner. NOTE: Renouncing ownership will leave the contract without an owner, thereby removing any functionality that is only available to the owner."
      },
      "setReleaseRuleSelector(address)": {
        "details": "set the release rule selector of the distributor",
        "params": {
          "_ruleSelector": "the release rule selector"
        }
      },
      "transferOwnership(address)": {
        "details": "Transfers ownership of the contract to a new account (`newOwner`). Can only be called by the current owner."
      }
    },
    "stateVariables": {
      "alphaToken": {
        "details": "the Alpha token to distribute"
      },
      "lastPokeBlock": {
        "details": "the last block the distributor distribute Alpha token to the receiver"
      },
      "ruleSelector": {
        "details": "the selector of Alpha release rules"
      }
    },
    "title": "Alpha distributor contract",
    "version": 1
  },
  "userdoc": {
    "kind": "user",
    "methods": {},
    "notice": "Implements distributor to poke Alpha token reward to the receiver follow by the Alpha release rules",
    "version": 1
  }
}