{
  "contractName": "AlphaReleaseRuleSelector",
  "abi": [
    {
      "anonymous": false,
      "inputs": [
        {
          "indexed": true,
          "internalType": "uint256",
          "name": "index",
          "type": "uint256"
        },
        {
          "indexed": true,
          "internalType": "address",
          "name": "receiver",
          "type": "address"
        },
        {
          "indexed": true,
          "internalType": "address",
          "name": "rule",
          "type": "address"
        }
      ],
      "name": "AlphaReleaseRuleRemoved",
      "type": "event"
    },
    {
      "anonymous": false,
      "inputs": [
        {
          "indexed": true,
          "internalType": "uint256",
          "name": "index",
          "type": "uint256"
        },
        {
          "indexed": true,
          "internalType": "address",
          "name": "receiver",
          "type": "address"
        },
        {
          "indexed": true,
          "internalType": "address",
          "name": "rule",
          "type": "address"
        }
      ],
      "name": "AlphaReleaseRuleUpdated",
      "type": "event"
    },
    {
      "anonymous": false,
      "inputs": [
        {
          "indexed": true,
          "internalType": "address",
          "name": "previousOwner",
          "type": "address"
        },
        {
          "indexed": true,
          "internalType": "address",
          "name": "newOwner",
          "type": "address"
        }
      ],
      "name": "OwnershipTransferred",
      "type": "event"
    },
    {
      "inputs": [],
      "name": "owner",
      "outputs": [
        {
          "internalType": "address",
          "name": "",
          "type": "address"
        }
      ],
      "stateMutability": "view",
      "type": "function"
    },
    {
      "inputs": [
        {
          "internalType": "uint256",
          "name": "",
          "type": "uint256"
        }
      ],
      "name": "receiverRuleList",
      "outputs": [
        {
          "internalType": "contract IAlphaReceiver",
          "name": "receiver",
          "type": "address"
        },
        {
          "internalType": "contract IAlphaReleaseRule",
          "name": "rule",
          "type": "address"
        }
      ],
      "stateMutability": "view",
      "type": "function"
    },
    {
      "inputs": [],
      "name": "renounceOwnership",
      "outputs": [],
      "stateMutability": "nonpayable",
      "type": "function"
    },
    {
      "inputs": [
        {
          "internalType": "address",
          "name": "newOwner",
          "type": "address"
        }
      ],
      "name": "transferOwnership",
      "outputs": [],
      "stateMutability": "nonpayable",
      "type": "function"
    },
    {
      "inputs": [
        {
          "internalType": "contract IAlphaReceiver",
          "name": "_receiver",
          "type": "address"
        },
        {
          "internalType": "contract IAlphaReleaseRule",
          "name": "_rule",
          "type": "address"
        }
      ],
      "name": "setAlphaReleaseRule",
      "outputs": [],
      "stateMutability": "nonpayable",
      "type": "function"
    },
    {
      "inputs": [
        {
          "internalType": "uint256",
          "name": "_index",
          "type": "uint256"
        }
      ],
      "name": "removeAlphaReleaseRule",
      "outputs": [],
      "stateMutability": "nonpayable",
      "type": "function"
    },
    {
      "inputs": [],
      "name": "getreceiverRuleListLength",
      "outputs": [
        {
          "internalType": "uint256",
          "name": "",
          "type": "uint256"
        }
      ],
      "stateMutability": "view",
      "type": "function"
    },
    {
      "inputs": [
        {
          "internalType": "uint256",
          "name": "_fromBlock",
          "type": "uint256"
        },
        {
          "internalType": "uint256",
          "name": "_toBlock",
          "type": "uint256"
        }
      ],
      "name": "getAlphaReleaseRules",
      "outputs": [
        {
          "internalType": "contract IAlphaReceiver[]",
          "name": "",
          "type": "address[]"
        },
        {
          "internalType": "uint256[]",
          "name": "",
          "type": "uint256[]"
        }
      ],
      "stateMutability": "view",
      "type": "function"
    }
  ],
  "bytecode": "0x608060405234801561001057600080fd5b5060006100246001600160e01b0361007316565b600080546001600160a01b0319166001600160a01b0383169081178255604051929350917f8be0079c531659141344cd1fd0a4f28419497f9722a3daafe3b4186f6b6457e0908290a350610077565b3390565b610a78806100866000396000f3fe608060405234801561001057600080fd5b50600436106100885760003560e01c8063c0695ac01161005b578063c0695ac014610103578063c188cf2114610146578063da01becf14610163578063f2fde38b1461021f57610088565b8063715018a61461008d57806384cc4ffd146100975780638da5cb5b146100c5578063a023ac65146100e9575b600080fd5b610095610245565b005b610095600480360360408110156100ad57600080fd5b506001600160a01b03813581169160200135166102e7565b6100cd610440565b604080516001600160a01b039092168252519081900360200190f35b6100f161044f565b60408051918252519081900360200190f35b6101206004803603602081101561011957600080fd5b5035610455565b604080516001600160a01b03938416815291909216602082015281519081900390910190f35b6100956004803603602081101561015c57600080fd5b503561048b565b6101866004803603604081101561017957600080fd5b508035906020013561066a565b604051808060200180602001838103835285818151815260200191508051906020019060200280838360005b838110156101ca5781810151838201526020016101b2565b50505050905001838103825284818151815260200191508051906020019060200280838360005b838110156102095781810151838201526020016101f1565b5050505090500194505050505060405180910390f35b6100956004803603602081101561023557600080fd5b50356001600160a01b0316610809565b61024d610901565b6000546001600160a01b0390811691161461029d576040805162461bcd60e51b81526020600482018190526024820152600080516020610a23833981519152604482015290519081900360640190fd5b600080546040516001600160a01b03909116907f8be0079c531659141344cd1fd0a4f28419497f9722a3daafe3b4186f6b6457e0908390a3600080546001600160a01b0319169055565b6102ef610901565b6000546001600160a01b0390811691161461033f576040805162461bcd60e51b81526020600482018190526024820152600080516020610a23833981519152604482015290519081900360640190fd5b6103476109e5565b50604080518082019091526001600160a01b03838116825282811660208301908152600180548082018255600082815285517fb10e2d527612073b26eecdfd717e6a320cf44b4afac2b0732d9fcbe2b7fa0cf6600290930292830180546001600160a01b031990811692881692909217905593517fb10e2d527612073b26eecdfd717e6a320cf44b4afac2b0732d9fcbe2b7fa0cf79092018054909416919094161790915580546103f791610905565b9050826001600160a01b0316846001600160a01b0316827f7c1d099446c3e61fbc5943dcb678b182f903da62c40ae9408a5d2295d71a08ee60405160405180910390a450505050565b6000546001600160a01b031690565b60015490565b6001818154811061046257fe5b6000918252602090912060029091020180546001909101546001600160a01b0391821692501682565b610493610901565b6000546001600160a01b039081169116146104e3576040805162461bcd60e51b81526020600482018190526024820152600080516020610a23833981519152604482015290519081900360640190fd5b600154811061052e576040805162461bcd60e51b8152602060048201526012602482015271496e646578206f7574206f662072616e676560701b604482015290519081900360640190fd5b60006001828154811061053d57fe5b60009182526020822060016002909202019081015481546040519294506001600160a01b039182169391169185917f7ed6271f39302db2f599a601cf54ed92e7bcd126b867b6753dca1c265b35236391a4600180546105a19163ffffffff61090516565b821461062757600180546105bb908263ffffffff61090516565b815481106105c557fe5b9060005260206000209060020201600183815481106105e057fe5b60009182526020909120825460029092020180546001600160a01b039283166001600160a01b03199182161782556001938401549390910180549390921692169190911790555b600180548061063257fe5b60008281526020902060026000199092019182020180546001600160a01b031990811682556001919091018054909116905590555050565b606080606060018054905067ffffffffffffffff8111801561068b57600080fd5b506040519080825280602002602001820160405280156106b5578160200160208202803683370190505b5060015490915060609067ffffffffffffffff811180156106d557600080fd5b506040519080825280602002602001820160405280156106ff578160200160208202803683370190505b50905060005b6001548110156107fd5760006001828154811061071e57fe5b60009182526020909120600290910201805485519192506001600160a01b03169085908490811061074b57fe5b6001600160a01b03928316602091820292909201810191909152600183015460408051633e503e5160e01b8152600481018d9052602481018c905290519190931692633e503e51926044808301939192829003018186803b1580156107af57600080fd5b505afa1580156107c3573d6000803e3d6000fd5b505050506040513d60208110156107d957600080fd5b505183518490849081106107e957fe5b602090810291909101015250600101610705565b50909590945092505050565b610811610901565b6000546001600160a01b03908116911614610861576040805162461bcd60e51b81526020600482018190526024820152600080516020610a23833981519152604482015290519081900360640190fd5b6001600160a01b0381166108a65760405162461bcd60e51b81526004018080602001828103825260268152602001806109fd6026913960400191505060405180910390fd5b600080546040516001600160a01b03808516939216917f8be0079c531659141344cd1fd0a4f28419497f9722a3daafe3b4186f6b6457e091a3600080546001600160a01b0319166001600160a01b0392909216919091179055565b3390565b600061094783836040518060400160405280601e81526020017f536166654d6174683a207375627472616374696f6e206f766572666c6f77000081525061094e565b9392505050565b600081848411156109dd5760405162461bcd60e51b81526004018080602001828103825283818151815260200191508051906020019080838360005b838110156109a257818101518382015260200161098a565b50505050905090810190601f1680156109cf5780820380516001836020036101000a031916815260200191505b509250505060405180910390fd5b505050900390565b60408051808201909152600080825260208201529056fe4f776e61626c653a206e6577206f776e657220697320746865207a65726f20616464726573734f776e61626c653a2063616c6c6572206973206e6f7420746865206f776e6572a26469706673582212200520dd9e351513a6b33b371c0aa98f1a2dd913c52d7e24b69a675cd3794d34eb64736f6c634300060b0033",
  "immutableReferences": {},
  "source": "pragma solidity >=0.6.11;\r\n\r\nimport \"openzeppelin-solidity/contracts/access/Ownable.sol\";\r\nimport \"openzeppelin-solidity/contracts/math/SafeMath.sol\";\r\nimport \"../interfaces/IAlphaReceiver.sol\";\r\nimport \"../interfaces/IAlphaReleaseRule.sol\";\r\nimport \"../interfaces/IAlphaReleaseRuleSelector.sol\";\r\n\r\n/**\r\n * @title Alpha rule selector\r\n * @notice Implements the selector of Alpha rule.\r\n * @author Alpha\r\n **/\r\n\r\ncontract AlphaReleaseRuleSelector is Ownable, IAlphaReleaseRuleSelector {\r\n  using SafeMath for uint256;\r\n\r\n  /**\r\n   * @dev the struct for storing the receiver's rule\r\n   */\r\n  struct ReceiverRule {\r\n    // Alpha receiver\r\n    IAlphaReceiver receiver;\r\n    // release rule\r\n    IAlphaReleaseRule rule;\r\n  }\r\n\r\n  /**\r\n   * @dev the list of receivers with rule\r\n   */\r\n  ReceiverRule[] public receiverRuleList;\r\n\r\n  /**\r\n   * @dev emitted on update Alpha release rule \r\n   * @param index the index to update\r\n   * @param receiver the address of Alpha receiver\r\n   * @param rule the release rule of Alpha receiver\r\n   */\r\n  event AlphaReleaseRuleUpdated(\r\n    uint256 indexed index,\r\n    address indexed receiver,\r\n    address indexed rule\r\n  );\r\n\r\n  /**\r\n   * @dev emitted on remove Alpha release rule\r\n   * @param index the index to remove\r\n   * @param receiver the address of receiver\r\n   * @param rule the release rule of Alpha receiver \r\n   */\r\n  event AlphaReleaseRuleRemoved(\r\n    uint256 indexed index,\r\n    address indexed receiver,\r\n    address indexed rule\r\n  );\r\n\r\n  /**\r\n   * @dev set the Alpha release rule to the Alpha token reward receiver\r\n   * @param _receiver the receiver to set the Alpha release rule\r\n   * @param _rule the Alpha release rule of the receiver\r\n   * set Alpha release rule to the receiver and add the receivver to the linked list of receiver\r\n   */\r\n  function setAlphaReleaseRule(IAlphaReceiver _receiver, IAlphaReleaseRule _rule)\r\n    external\r\n    onlyOwner\r\n  {\r\n    ReceiverRule memory receiverRule = ReceiverRule(\r\n      _receiver,\r\n      _rule\r\n    );\r\n    receiverRuleList.push(receiverRule);\r\n    uint256 index = receiverRuleList.length.sub(1);\r\n    emit AlphaReleaseRuleUpdated(index, address(_receiver), address(_rule));\r\n  }\r\n\r\n  function removeAlphaReleaseRule(uint256 _index)\r\n    external\r\n    onlyOwner\r\n  { \r\n    require(_index < receiverRuleList.length, \"Index out of range\");\r\n    ReceiverRule storage removedReceiverRule = receiverRuleList[_index];\r\n    emit AlphaReleaseRuleRemoved(_index, address(removedReceiverRule.receiver), address(removedReceiverRule.rule));\r\n    if (_index != receiverRuleList.length.sub(1)) {\r\n      receiverRuleList[_index] = receiverRuleList[receiverRuleList.length.sub(1)];\r\n    } \r\n    receiverRuleList.pop();\r\n  }\r\n\r\n  /**\r\n   * @dev get receiverRuleList length\r\n   * @return get receiverRuleList length\r\n   */\r\n  function getreceiverRuleListLength() external view returns (uint256) {\r\n    return receiverRuleList.length;\r\n  }\r\n\r\n  /**\r\n   * @dev returns the list of receiver and the list of amount that Alpha token will\r\n   * release to each receiver from _fromBlock to _toBlock\r\n   * @param _fromBlock the start block to release the Alpha token\r\n   * @param _toBlock the end block to release the Alpha token\r\n   * @return the list of Alpha token receiver and the list of amount that will release to each receiver\r\n   */\r\n  function getAlphaReleaseRules(uint256 _fromBlock, uint256 _toBlock)\r\n    external\r\n    override\r\n    view\r\n    returns (IAlphaReceiver[] memory, uint256[] memory)\r\n  {\r\n    IAlphaReceiver[] memory receivers = new IAlphaReceiver[](receiverRuleList.length);\r\n    uint256[] memory amounts = new uint256[](receiverRuleList.length);\r\n    for (uint256 i = 0; i < receiverRuleList.length; i++) {\r\n      ReceiverRule storage receiverRule = receiverRuleList[i];\r\n      receivers[i] = IAlphaReceiver(receiverRule.receiver);\r\n      amounts[i] = receiverRule.rule.getReleaseAmount(_fromBlock, _toBlock);\r\n    }\r\n    return (receivers, amounts);\r\n  }\r\n}\r\n",
  "sourcePath": "D:/Lending-Development/Lending/contracts/distribution/AlphaReleaseRuleSelector.sol",
  "compiler": {
    "name": "solc",
    "version": "0.6.11+commit.5ef660b1.Emscripten.clang"
  },
  "schemaVersion": "3.2.5",
  "updatedAt": "2020-11-03T00:52:35.755Z",
  "devdoc": {
    "author": "Alpha*",
    "events": {
      "AlphaReleaseRuleRemoved(uint256,address,address)": {
        "details": "emitted on remove Alpha release rule",
        "params": {
          "index": "the index to remove",
          "receiver": "the address of receiver",
          "rule": "the release rule of Alpha receiver "
        }
      },
      "AlphaReleaseRuleUpdated(uint256,address,address)": {
        "details": "emitted on update Alpha release rule ",
        "params": {
          "index": "the index to update",
          "receiver": "the address of Alpha receiver",
          "rule": "the release rule of Alpha receiver"
        }
      }
    },
    "kind": "dev",
    "methods": {
      "getAlphaReleaseRules(uint256,uint256)": {
        "details": "returns the list of receiver and the list of amount that Alpha token will release to each receiver from _fromBlock to _toBlock",
        "params": {
          "_fromBlock": "the start block to release the Alpha token",
          "_toBlock": "the end block to release the Alpha token"
        },
        "returns": {
          "_0": "the list of Alpha token receiver and the list of amount that will release to each receiver"
        }
      },
      "getreceiverRuleListLength()": {
        "details": "get receiverRuleList length",
        "returns": {
          "_0": "get receiverRuleList length"
        }
      },
      "owner()": {
        "details": "Returns the address of the current owner."
      },
      "renounceOwnership()": {
        "details": "Leaves the contract without owner. It will not be possible to call `onlyOwner` functions anymore. Can only be called by the current owner. NOTE: Renouncing ownership will leave the contract without an owner, thereby removing any functionality that is only available to the owner."
      },
      "setAlphaReleaseRule(address,address)": {
        "details": "set the Alpha release rule to the Alpha token reward receiver",
        "params": {
          "_receiver": "the receiver to set the Alpha release rule",
          "_rule": "the Alpha release rule of the receiver set Alpha release rule to the receiver and add the receivver to the linked list of receiver"
        }
      },
      "transferOwnership(address)": {
        "details": "Transfers ownership of the contract to a new account (`newOwner`). Can only be called by the current owner."
      }
    },
    "stateVariables": {
      "receiverRuleList": {
        "details": "the list of receivers with rule"
      }
    },
    "title": "Alpha rule selector",
    "version": 1
  },
  "userdoc": {
    "kind": "user",
    "methods": {},
    "notice": "Implements the selector of Alpha rule.",
    "version": 1
  }
}