{
  "contractName": "AlToken",
  "abi": [
    {
      "inputs": [
        {
          "internalType": "string",
          "name": "_name",
          "type": "string"
        },
        {
          "internalType": "string",
          "name": "_symbol",
          "type": "string"
        },
        {
          "internalType": "contract ILendingPool",
          "name": "_lendingPoolAddress",
          "type": "address"
        },
        {
          "internalType": "contract ERC20",
          "name": "_underlyingAsset",
          "type": "address"
        }
      ],
      "stateMutability": "nonpayable",
      "type": "constructor"
    },
    {
      "anonymous": false,
      "inputs": [
        {
          "indexed": true,
          "internalType": "address",
          "name": "owner",
          "type": "address"
        },
        {
          "indexed": true,
          "internalType": "address",
          "name": "spender",
          "type": "address"
        },
        {
          "indexed": false,
          "internalType": "uint256",
          "name": "value",
          "type": "uint256"
        }
      ],
      "name": "Approval",
      "type": "event"
    },
    {
      "anonymous": false,
      "inputs": [
        {
          "indexed": true,
          "internalType": "address",
          "name": "previousOwner",
          "type": "address"
        },
        {
          "indexed": true,
          "internalType": "address",
          "name": "newOwner",
          "type": "address"
        }
      ],
      "name": "OwnershipTransferred",
      "type": "event"
    },
    {
      "anonymous": false,
      "inputs": [
        {
          "indexed": true,
          "internalType": "address",
          "name": "from",
          "type": "address"
        },
        {
          "indexed": true,
          "internalType": "address",
          "name": "to",
          "type": "address"
        },
        {
          "indexed": false,
          "internalType": "uint256",
          "name": "value",
          "type": "uint256"
        }
      ],
      "name": "Transfer",
      "type": "event"
    },
    {
      "inputs": [
        {
          "internalType": "address",
          "name": "owner",
          "type": "address"
        },
        {
          "internalType": "address",
          "name": "spender",
          "type": "address"
        }
      ],
      "name": "allowance",
      "outputs": [
        {
          "internalType": "uint256",
          "name": "",
          "type": "uint256"
        }
      ],
      "stateMutability": "view",
      "type": "function"
    },
    {
      "inputs": [],
      "name": "alphaMultiplier",
      "outputs": [
        {
          "internalType": "uint256",
          "name": "",
          "type": "uint256"
        }
      ],
      "stateMutability": "view",
      "type": "function"
    },
    {
      "inputs": [
        {
          "internalType": "address",
          "name": "spender",
          "type": "address"
        },
        {
          "internalType": "uint256",
          "name": "amount",
          "type": "uint256"
        }
      ],
      "name": "approve",
      "outputs": [
        {
          "internalType": "bool",
          "name": "",
          "type": "bool"
        }
      ],
      "stateMutability": "nonpayable",
      "type": "function"
    },
    {
      "inputs": [
        {
          "internalType": "address",
          "name": "account",
          "type": "address"
        }
      ],
      "name": "balanceOf",
      "outputs": [
        {
          "internalType": "uint256",
          "name": "",
          "type": "uint256"
        }
      ],
      "stateMutability": "view",
      "type": "function"
    },
    {
      "inputs": [],
      "name": "decimals",
      "outputs": [
        {
          "internalType": "uint8",
          "name": "",
          "type": "uint8"
        }
      ],
      "stateMutability": "view",
      "type": "function"
    },
    {
      "inputs": [
        {
          "internalType": "address",
          "name": "spender",
          "type": "address"
        },
        {
          "internalType": "uint256",
          "name": "subtractedValue",
          "type": "uint256"
        }
      ],
      "name": "decreaseAllowance",
      "outputs": [
        {
          "internalType": "bool",
          "name": "",
          "type": "bool"
        }
      ],
      "stateMutability": "nonpayable",
      "type": "function"
    },
    {
      "inputs": [
        {
          "internalType": "address",
          "name": "spender",
          "type": "address"
        },
        {
          "internalType": "uint256",
          "name": "addedValue",
          "type": "uint256"
        }
      ],
      "name": "increaseAllowance",
      "outputs": [
        {
          "internalType": "bool",
          "name": "",
          "type": "bool"
        }
      ],
      "stateMutability": "nonpayable",
      "type": "function"
    },
    {
      "inputs": [],
      "name": "name",
      "outputs": [
        {
          "internalType": "string",
          "name": "",
          "type": "string"
        }
      ],
      "stateMutability": "view",
      "type": "function"
    },
    {
      "inputs": [],
      "name": "owner",
      "outputs": [
        {
          "internalType": "address",
          "name": "",
          "type": "address"
        }
      ],
      "stateMutability": "view",
      "type": "function"
    },
    {
      "inputs": [],
      "name": "renounceOwnership",
      "outputs": [],
      "stateMutability": "nonpayable",
      "type": "function"
    },
    {
      "inputs": [],
      "name": "symbol",
      "outputs": [
        {
          "internalType": "string",
          "name": "",
          "type": "string"
        }
      ],
      "stateMutability": "view",
      "type": "function"
    },
    {
      "inputs": [],
      "name": "totalSupply",
      "outputs": [
        {
          "internalType": "uint256",
          "name": "",
          "type": "uint256"
        }
      ],
      "stateMutability": "view",
      "type": "function"
    },
    {
      "inputs": [
        {
          "internalType": "address",
          "name": "recipient",
          "type": "address"
        },
        {
          "internalType": "uint256",
          "name": "amount",
          "type": "uint256"
        }
      ],
      "name": "transfer",
      "outputs": [
        {
          "internalType": "bool",
          "name": "",
          "type": "bool"
        }
      ],
      "stateMutability": "nonpayable",
      "type": "function"
    },
    {
      "inputs": [
        {
          "internalType": "address",
          "name": "sender",
          "type": "address"
        },
        {
          "internalType": "address",
          "name": "recipient",
          "type": "address"
        },
        {
          "internalType": "uint256",
          "name": "amount",
          "type": "uint256"
        }
      ],
      "name": "transferFrom",
      "outputs": [
        {
          "internalType": "bool",
          "name": "",
          "type": "bool"
        }
      ],
      "stateMutability": "nonpayable",
      "type": "function"
    },
    {
      "inputs": [
        {
          "internalType": "address",
          "name": "newOwner",
          "type": "address"
        }
      ],
      "name": "transferOwnership",
      "outputs": [],
      "stateMutability": "nonpayable",
      "type": "function"
    },
    {
      "inputs": [],
      "name": "underlyingAsset",
      "outputs": [
        {
          "internalType": "contract ERC20",
          "name": "",
          "type": "address"
        }
      ],
      "stateMutability": "view",
      "type": "function"
    },
    {
      "inputs": [
        {
          "internalType": "address",
          "name": "_account",
          "type": "address"
        },
        {
          "internalType": "uint256",
          "name": "_amount",
          "type": "uint256"
        }
      ],
      "name": "mint",
      "outputs": [],
      "stateMutability": "nonpayable",
      "type": "function"
    },
    {
      "inputs": [
        {
          "internalType": "address",
          "name": "_account",
          "type": "address"
        },
        {
          "internalType": "uint256",
          "name": "_amount",
          "type": "uint256"
        }
      ],
      "name": "burn",
      "outputs": [],
      "stateMutability": "nonpayable",
      "type": "function"
    },
    {
      "inputs": [
        {
          "internalType": "uint256",
          "name": "_amount",
          "type": "uint256"
        }
      ],
      "name": "receiveAlpha",
      "outputs": [],
      "stateMutability": "nonpayable",
      "type": "function"
    },
    {
      "inputs": [
        {
          "internalType": "address",
          "name": "_account",
          "type": "address"
        }
      ],
      "name": "calculateAlphaReward",
      "outputs": [
        {
          "internalType": "uint256",
          "name": "",
          "type": "uint256"
        }
      ],
      "stateMutability": "view",
      "type": "function"
    },
    {
      "inputs": [
        {
          "internalType": "address",
          "name": "_account",
          "type": "address"
        }
      ],
      "name": "claimCurrentAlphaRewardByOwner",
      "outputs": [],
      "stateMutability": "nonpayable",
      "type": "function"
    }
  ],
  "bytecode": "0x60806040523480156200001157600080fd5b5060405162001fef38038062001fef833981810160405260808110156200003757600080fd5b81019080805160405193929190846401000000008211156200005857600080fd5b9083019060208201858111156200006e57600080fd5b82516401000000008111828201881017156200008957600080fd5b82525081516020918201929091019080838360005b83811015620000b85781810151838201526020016200009e565b50505050905090810190601f168015620000e65780820380516001836020036101000a031916815260200191505b50604052602001805160405193929190846401000000008211156200010a57600080fd5b9083019060208201858111156200012057600080fd5b82516401000000008111828201881017156200013b57600080fd5b82525081516020918201929091019080838360005b838110156200016a57818101518382015260200162000150565b50505050905090810190601f168015620001985780820380516001836020036101000a031916815260200191505b50604090815260208281015192909101518651929450925085918591620001c59160039185019062000295565b508051620001db90600490602084019062000295565b50506005805460ff19166012179055506000620002006001600160e01b036200029016565b60058054610100600160a81b0319166101006001600160a01b03841690810291909117909155604051919250906000907f8be0079c531659141344cd1fd0a4f28419497f9722a3daafe3b4186f6b6457e0908290a3506001600655600780546001600160a01b039384166001600160a01b0319918216179091556008805492909316911617905550620003379050565b335b90565b828054600181600116156101000203166002900490600052602060002090601f016020900481019282601f10620002d857805160ff191683800117855562000308565b8280016001018555821562000308579182015b8281111562000308578251825591602001919060010190620002eb565b50620003169291506200031a565b5090565b6200029291905b8082111562000316576000815560010162000321565b611ca880620003476000396000f3fe608060405234801561001057600080fd5b50600436106101375760003560e01c806370a08231116100b85780639dc29fac1161007c5780639dc29fac1461036e578063a457c2d71461039a578063a9059cbb146103c6578063add8206c146103f2578063dd62ed3e14610418578063f2fde38b1461044657610137565b806370a082311461030c578063715018a6146103325780637158da7c1461033a5780638da5cb5b1461035e57806395d89b411461036657610137565b80632cf4d447116100ff5780632cf4d44714610268578063313ce56714610270578063395093511461028e57806340c10f19146102ba57806348fd3362146102e657610137565b806306fdde031461013c578063095ea7b3146101b95780630ceab4f7146101f957806318160ddd1461021857806323b872dd14610232575b600080fd5b61014461046c565b6040805160208082528351818301528351919283929083019185019080838360005b8381101561017e578181015183820152602001610166565b50505050905090810190601f1680156101ab5780820380516001836020036101000a031916815260200191505b509250505060405180910390f35b6101e5600480360360408110156101cf57600080fd5b506001600160a01b038135169060200135610502565b604080519115158252519081900360200190f35b6102166004803603602081101561020f57600080fd5b5035610520565b005b61022061072b565b60408051918252519081900360200190f35b6101e56004803603606081101561024857600080fd5b506001600160a01b03813581169160208101359091169060400135610731565b6102206107be565b6102786107c4565b6040805160ff9092168252519081900360200190f35b6101e5600480360360408110156102a457600080fd5b506001600160a01b0381351690602001356107cd565b610216600480360360408110156102d057600080fd5b506001600160a01b038135169060200135610821565b610216600480360360208110156102fc57600080fd5b50356001600160a01b0316610895565b6102206004803603602081101561032257600080fd5b50356001600160a01b03166108fb565b610216610916565b6103426109c3565b604080516001600160a01b039092168252519081900360200190f35b6103426109d2565b6101446109e6565b6102166004803603604081101561038457600080fd5b506001600160a01b038135169060200135610a47565b6101e5600480360360408110156103b057600080fd5b506001600160a01b038135169060200135610ab7565b6101e5600480360360408110156103dc57600080fd5b506001600160a01b038135169060200135610b25565b6102206004803603602081101561040857600080fd5b50356001600160a01b0316610b39565b6102206004803603604081101561042e57600080fd5b506001600160a01b0381358116916020013516610b87565b6102166004803603602081101561045c57600080fd5b50356001600160a01b0316610bb2565b60038054604080516020601f60026000196101006001881615020190951694909404938401819004810282018101909252828152606093909290918301828280156104f85780601f106104cd576101008083540402835291602001916104f8565b820191906000526020600020905b8154815290600101906020018083116104db57829003601f168201915b5050505050905090565b600061051661050f610cbb565b8484610cbf565b5060015b92915050565b6007546001600160a01b031633146105695760405162461bcd60e51b8152600401808060200182810382526028815260200180611ac36028913960400191505060405180910390fd5b600760009054906101000a90046001600160a01b03166001600160a01b031663bfe109286040518163ffffffff1660e01b815260040160206040518083038186803b1580156105b757600080fd5b505afa1580156105cb573d6000803e3d6000fd5b505050506040513d60208110156105e157600080fd5b505160408051630385a64f60e51b815290516001600160a01b03909216916370b4c9e091600480820192602092909190829003018186803b15801561062557600080fd5b505afa158015610639573d6000803e3d6000fd5b505050506040513d602081101561064f57600080fd5b5051604080516323b872dd60e01b81523360048201523060248201526044810184905290516001600160a01b03909216916323b872dd916064808201926020929091908290030181600087803b1580156106a857600080fd5b505af11580156106bc573d6000803e3d6000fd5b505050506040513d60208110156106d257600080fd5b506106dd905061072b565b6106e657610728565b6107246107156106f461072b565b6107098464e8d4a5100063ffffffff610dab16565b9063ffffffff610e0b16565b6009549063ffffffff610e4d16565b6009555b50565b60025490565b600061073e848484610ea7565b6107b48461074a610cbb565b6107af85604051806060016040528060288152602001611b9c602891396001600160a01b038a16600090815260016020526040812090610788610cbb565b6001600160a01b03168152602081019190915260400160002054919063ffffffff610f9316565b610cbf565b5060019392505050565b60095481565b60055460ff1690565b60006105166107da610cbb565b846107af85600160006107eb610cbb565b6001600160a01b03908116825260208083019390935260409182016000908120918c16815292529020549063ffffffff610e4d16565b610829610cbb565b60055461010090046001600160a01b0390811691161461087e576040805162461bcd60e51b81526020600482018190526024820152600080516020611bc4833981519152604482015290519081900360640190fd5b6108878261102a565b610891828261168d565b5050565b61089d610cbb565b60055461010090046001600160a01b039081169116146108f2576040805162461bcd60e51b81526020600482018190526024820152600080516020611bc4833981519152604482015290519081900360640190fd5b6107288161102a565b6001600160a01b031660009081526020819052604090205490565b61091e610cbb565b60055461010090046001600160a01b03908116911614610973576040805162461bcd60e51b81526020600482018190526024820152600080516020611bc4833981519152604482015290519081900360640190fd5b60055460405160009161010090046001600160a01b0316907f8be0079c531659141344cd1fd0a4f28419497f9722a3daafe3b4186f6b6457e0908390a360058054610100600160a81b0319169055565b6008546001600160a01b031681565b60055461010090046001600160a01b031690565b60048054604080516020601f60026000196101006001881615020190951694909404938401819004810282018101909252828152606093909290918301828280156104f85780601f106104cd576101008083540402835291602001916104f8565b610a4f610cbb565b60055461010090046001600160a01b03908116911614610aa4576040805162461bcd60e51b81526020600482018190526024820152600080516020611bc4833981519152604482015290519081900360640190fd5b610aad8261102a565b6108918282611789565b6000610516610ac4610cbb565b846107af85604051806060016040528060258152602001611c4e6025913960016000610aee610cbb565b6001600160a01b03908116825260208083019390935260409182016000908120918d1681529252902054919063ffffffff610f9316565b6000610516610b32610cbb565b8484610ea7565b600061051a64e8d4a51000610709610b50856108fb565b6001600160a01b0386166000908152600a6020526040902054600954610b7b9163ffffffff61189116565b9063ffffffff610dab16565b6001600160a01b03918216600090815260016020908152604080832093909416825291909152205490565b610bba610cbb565b60055461010090046001600160a01b03908116911614610c0f576040805162461bcd60e51b81526020600482018190526024820152600080516020611bc4833981519152604482015290519081900360640190fd5b6001600160a01b038116610c545760405162461bcd60e51b8152600401808060200182810382526026815260200180611b0d6026913960400191505060405180910390fd5b6005546040516001600160a01b0380841692610100900416907f8be0079c531659141344cd1fd0a4f28419497f9722a3daafe3b4186f6b6457e090600090a3600580546001600160a01b0390921661010002610100600160a81b0319909216919091179055565b3390565b6001600160a01b038316610d045760405162461bcd60e51b8152600401808060200182810382526024815260200180611c2a6024913960400191505060405180910390fd5b6001600160a01b038216610d495760405162461bcd60e51b8152600401808060200182810382526022815260200180611b336022913960400191505060405180910390fd5b6001600160a01b03808416600081815260016020908152604080832094871680845294825291829020859055815185815291517f8c5be1e5ebec7d5bd14f71427d1e84f3dd0314c0f7b2291e5b200ac8c7c3b9259281900390910190a3505050565b600082610dba5750600061051a565b82820282848281610dc757fe5b0414610e045760405162461bcd60e51b8152600401808060200182810382526021815260200180611b7b6021913960400191505060405180910390fd5b9392505050565b6000610e0483836040518060400160405280601a81526020017f536166654d6174683a206469766973696f6e206279207a65726f0000000000008152506118d3565b600082820183811015610e04576040805162461bcd60e51b815260206004820152601b60248201527f536166654d6174683a206164646974696f6e206f766572666c6f770000000000604482015290519081900360640190fd5b610eb08361102a565b610eb98261102a565b610ec4838383611938565b60075460408051631b240c3160e11b81526001600160a01b038681166004830152915191909216916336481862916024808301926020929190829003018186803b158015610f1157600080fd5b505afa158015610f25573d6000803e3d6000fd5b505050506040513d6020811015610f3b57600080fd5b5051610f8e576040805162461bcd60e51b815260206004820152601e60248201527f5472616e7366657220746f6b656e73206973206e6f7420616c6c6f7765640000604482015290519081900360640190fd5b505050565b600081848411156110225760405162461bcd60e51b81526004018080602001828103825283818151815260200191508051906020019080838360005b83811015610fe7578181015183820152602001610fcf565b50505050905090810190601f1680156110145780820380516001836020036101000a031916815260200191505b509250505060405180910390fd5b505050900390565b600754604080516317fc212560e31b815290516000926001600160a01b03169163bfe10928916004808301926020929190829003018186803b15801561106f57600080fd5b505afa158015611083573d6000803e3d6000fd5b505050506040513d602081101561109957600080fd5b50516001600160a01b031614156110af57610728565b60006110ba82610b39565b90506000600760009054906101000a90046001600160a01b03166001600160a01b031663bfe109286040518163ffffffff1660e01b815260040160206040518083038186803b15801561110c57600080fd5b505afa158015611120573d6000803e3d6000fd5b505050506040513d602081101561113657600080fd5b505160408051630385a64f60e51b815290516001600160a01b03909216916370b4c9e091600480820192602092909190829003018186803b15801561117a57600080fd5b505afa15801561118e573d6000803e3d6000fd5b505050506040513d60208110156111a457600080fd5b5051604080516370a0823160e01b815230600482015290516001600160a01b03909216916370a0823191602480820192602092909190829003018186803b1580156111ee57600080fd5b505afa158015611202573d6000803e3d6000fd5b505050506040513d602081101561121857600080fd5b50519050808210611229578061122b565b815b915060006001600160a01b0316600760009054906101000a90046001600160a01b03166001600160a01b0316632a8c61d26040518163ffffffff1660e01b815260040160206040518083038186803b15801561128657600080fd5b505afa15801561129a573d6000803e3d6000fd5b505050506040513d60208110156112b057600080fd5b50516001600160a01b0316141561142e57600760009054906101000a90046001600160a01b03166001600160a01b031663bfe109286040518163ffffffff1660e01b815260040160206040518083038186803b15801561130f57600080fd5b505afa158015611323573d6000803e3d6000fd5b505050506040513d602081101561133957600080fd5b505160408051630385a64f60e51b815290516001600160a01b03909216916370b4c9e091600480820192602092909190829003018186803b15801561137d57600080fd5b505afa158015611391573d6000803e3d6000fd5b505050506040513d60208110156113a757600080fd5b50516040805163a9059cbb60e01b81526001600160a01b038681166004830152602482018690529151919092169163a9059cbb9160448083019260209291908290030181600087803b1580156113fc57600080fd5b505af1158015611410573d6000803e3d6000fd5b505050506040513d602081101561142657600080fd5b5061166c9050565b6007546040805163154630e960e11b815290516000926001600160a01b031691632a8c61d2916004808301926020929190829003018186803b15801561147357600080fd5b505afa158015611487573d6000803e3d6000fd5b505050506040513d602081101561149d57600080fd5b5051600754604080516317fc212560e31b815290519293506001600160a01b039091169163bfe1092891600480820192602092909190829003018186803b1580156114e757600080fd5b505afa1580156114fb573d6000803e3d6000fd5b505050506040513d602081101561151157600080fd5b505160408051630385a64f60e51b815290516001600160a01b03909216916370b4c9e091600480820192602092909190829003018186803b15801561155557600080fd5b505afa158015611569573d6000803e3d6000fd5b505050506040513d602081101561157f57600080fd5b50516040805163095ea7b360e01b81526001600160a01b038481166004830152602482018790529151919092169163095ea7b39160448083019260209291908290030181600087803b1580156115d457600080fd5b505af11580156115e8573d6000803e3d6000fd5b505050506040513d60208110156115fe57600080fd5b50506040805163b73480bf60e01b81526001600160a01b0386811660048301526024820186905291519183169163b73480bf9160448082019260009290919082900301818387803b15801561165257600080fd5b505af1158015611666573d6000803e3d6000fd5b50505050505b50506009546001600160a01b0382166000908152600a602052604090205550565b6001600160a01b0382166116e8576040805162461bcd60e51b815260206004820152601f60248201527f45524332303a206d696e7420746f20746865207a65726f206164647265737300604482015290519081900360640190fd5b6116f460008383610f8e565b600254611707908263ffffffff610e4d16565b6002556001600160a01b038216600090815260208190526040902054611733908263ffffffff610e4d16565b6001600160a01b0383166000818152602081815260408083209490945583518581529351929391927fddf252ad1be2c89b69c2b068fc378daa952ba7f163c4a11628f55a4df523b3ef9281900390910190a35050565b6001600160a01b0382166117ce5760405162461bcd60e51b8152600401808060200182810382526021815260200180611be46021913960400191505060405180910390fd5b6117da82600083610f8e565b61181d81604051806060016040528060228152602001611aeb602291396001600160a01b038516600090815260208190526040902054919063ffffffff610f9316565b6001600160a01b038316600090815260208190526040902055600254611849908263ffffffff61189116565b6002556040805182815290516000916001600160a01b038516917fddf252ad1be2c89b69c2b068fc378daa952ba7f163c4a11628f55a4df523b3ef9181900360200190a35050565b6000610e0483836040518060400160405280601e81526020017f536166654d6174683a207375627472616374696f6e206f766572666c6f770000815250610f93565b600081836119225760405162461bcd60e51b8152602060048201818152835160248401528351909283926044909101919085019080838360008315610fe7578181015183820152602001610fcf565b50600083858161192e57fe5b0495945050505050565b6001600160a01b03831661197d5760405162461bcd60e51b8152600401808060200182810382526025815260200180611c056025913960400191505060405180910390fd5b6001600160a01b0382166119c25760405162461bcd60e51b8152600401808060200182810382526023815260200180611aa06023913960400191505060405180910390fd5b6119cd838383610f8e565b611a1081604051806060016040528060268152602001611b55602691396001600160a01b038616600090815260208190526040902054919063ffffffff610f9316565b6001600160a01b038085166000908152602081905260408082209390935590841681522054611a45908263ffffffff610e4d16565b6001600160a01b038084166000818152602081815260409182902094909455805185815290519193928716927fddf252ad1be2c89b69c2b068fc378daa952ba7f163c4a11628f55a4df523b3ef92918290030190a350505056fe45524332303a207472616e7366657220746f20746865207a65726f20616464726573734f6e6c79206c656e64696e6720706f6f6c2063616e2063616c6c207265636569766520416c70686145524332303a206275726e20616d6f756e7420657863656564732062616c616e63654f776e61626c653a206e6577206f776e657220697320746865207a65726f206164647265737345524332303a20617070726f766520746f20746865207a65726f206164647265737345524332303a207472616e7366657220616d6f756e7420657863656564732062616c616e6365536166654d6174683a206d756c7469706c69636174696f6e206f766572666c6f7745524332303a207472616e7366657220616d6f756e74206578636565647320616c6c6f77616e63654f776e61626c653a2063616c6c6572206973206e6f7420746865206f776e657245524332303a206275726e2066726f6d20746865207a65726f206164647265737345524332303a207472616e736665722066726f6d20746865207a65726f206164647265737345524332303a20617070726f76652066726f6d20746865207a65726f206164647265737345524332303a2064656372656173656420616c6c6f77616e63652062656c6f77207a65726fa2646970667358221220bb265e290e0595e466899cc8fa23f9b46be335f4ec380f3f802eb257ce27770c64736f6c634300060b0033",
  "immutableReferences": {},
  "source": "// SPDX-License-Identifier: Apache-2.0\r\npragma solidity >=0.6.11;\r\n\r\nimport \"openzeppelin-solidity/contracts/token/ERC20/ERC20.sol\";\r\nimport \"openzeppelin-solidity/contracts/access/Ownable.sol\";\r\nimport \"openzeppelin-solidity/contracts/utils/ReentrancyGuard.sol\";\r\nimport \"./interfaces/IAlphaReceiver.sol\";\r\nimport \"./interfaces/ILendingPool.sol\";\r\nimport \"./interfaces/IVestingAlpha.sol\";\r\n\r\n/**\r\n * @title alToken contract\r\n * @notice Implements the altoken of the ERC20 token.\r\n * The alToken represent the liquidity shares of the holder on the ERC20 lending pool.\r\n * @author Alpha\r\n **/\r\n\r\ncontract AlToken is ERC20, Ownable, IAlphaReceiver, ReentrancyGuard {\r\n  /**\r\n   * @dev the lending pool of the AlToken\r\n   */\r\n  ILendingPool private lendingPool;\r\n\r\n  /**\r\n   * @dev the underlying ERC20 token of the AlToken\r\n   */\r\n  ERC20 public underlyingAsset;\r\n\r\n  /**\r\n   * @dev the alpha reward multiplier to calculate Alpha token rewards for the AlToken holder.\r\n   */\r\n  uint256 public alphaMultiplier;\r\n\r\n  /**\r\n   * @dev the latest reward of user after latest user activity.\r\n   * Global alphaMultiplier |-----------------|-----------------|---------------|\r\n   *                                                                     alphaMultiplier\r\n   * User's latest reward   |-----------------|-----------------|\r\n   *                        start                         last block that user do any activity (received rewards)\r\n                                                          user's latestAlphaMultiplier\r\n   *\r\n   * user address => latest rewards\r\n   */\r\n  mapping(address => uint256) latestAlphaMultiplier;\r\n\r\n  constructor(\r\n    string memory _name,\r\n    string memory _symbol,\r\n    ILendingPool _lendingPoolAddress,\r\n    ERC20 _underlyingAsset\r\n  ) public ERC20(_name, _symbol) {\r\n    lendingPool = _lendingPoolAddress;\r\n    underlyingAsset = _underlyingAsset;\r\n  }\r\n\r\n  /**\r\n   * @dev mint alToken to the address equal to amount\r\n   * @param _account the account address of receiver\r\n   * @param _amount the amount of alToken to mint\r\n   * Only lending pool can mint alToken\r\n   */\r\n  function mint(address _account, uint256 _amount) external onlyOwner {\r\n    claimCurrentAlphaReward(_account);\r\n    _mint(_account, _amount);\r\n  }\r\n\r\n  /**\r\n   * @dev burn alToken of the address equal to amount\r\n   * @param _account the account address that will burn the token\r\n   * @param _amount the amount of alToken to burn\r\n   * Only lending pool can burn alToken\r\n   */\r\n  function burn(address _account, uint256 _amount) external onlyOwner {\r\n    claimCurrentAlphaReward(_account);\r\n    _burn(_account, _amount);\r\n  }\r\n\r\n  /**\r\n   * @dev receive Alpha token from the token distributor\r\n   * @param _amount the amount of Alpha to receive\r\n   */\r\n  function receiveAlpha(uint256 _amount) external override {\r\n    require(msg.sender == address(lendingPool), \"Only lending pool can call receive Alpha\");\r\n    lendingPool.distributor().alphaToken().transferFrom(msg.sender, address(this), _amount);\r\n    // Don't change alphaMultiplier if total supply equal zero.\r\n    if (totalSupply() == 0) {\r\n      return;\r\n    }\r\n    alphaMultiplier = alphaMultiplier.add(_amount.mul(1e12).div(totalSupply()));\r\n  }\r\n\r\n  /**\r\n   * @dev calculate Alpha reward of the user\r\n   * @param _account the user account address\r\n   * @return the amount of Alpha rewards\r\n   */\r\n  function calculateAlphaReward(address _account) public view returns (uint256) {\r\n    //               reward start block                                        now\r\n    // Global                |----------------|----------------|----------------|\r\n    // User's latest reward  |----------------|----------------|\r\n    // User's Alpha rewards                                    |----------------|\r\n    // reward = [(Global Alpha multiplier - user's lastest Alpha multiplier) * user's Alpha token] / 1e12\r\n    return\r\n      (alphaMultiplier.sub(latestAlphaMultiplier[_account]).mul(balanceOf(_account))).div(1e12);\r\n  }\r\n\r\n  /**\r\n   * @dev claim user's pending Alpha rewards by owner\r\n   * @param _account the user account address\r\n   */\r\n  function claimCurrentAlphaRewardByOwner(address _account) external onlyOwner {\r\n    claimCurrentAlphaReward(_account);\r\n  }\r\n\r\n  /**\r\n   * @dev claim the pending Alpha rewards from the latest rewards giving to now\r\n   * @param _account the user account address\r\n   */\r\n  function claimCurrentAlphaReward(address _account) internal {\r\n    // No op if alpha distributor didn't be set in lending pool.\r\n    if (address(lendingPool.distributor()) == address(0)) {\r\n      return;\r\n    }\r\n    uint256 pending = calculateAlphaReward(_account);\r\n    uint256 alphaBalance = lendingPool.distributor().alphaToken().balanceOf(address(this));\r\n    pending = pending < alphaBalance ? pending : alphaBalance;\r\n    if (address(lendingPool.vestingAlpha()) == address(0)) {\r\n      lendingPool.distributor().alphaToken().transfer(_account, pending);\r\n    } else {\r\n      IVestingAlpha vestingAlpha = lendingPool.vestingAlpha();\r\n      lendingPool.distributor().alphaToken().approve(address(vestingAlpha), pending);\r\n      vestingAlpha.accumulateAlphaToUser(_account, pending);\r\n    }\r\n    latestAlphaMultiplier[_account] = alphaMultiplier;\r\n  }\r\n\r\n  /**\r\n   * @dev  transfer alToken to another account\r\n   * @param _from the sender account address\r\n   * @param _to the receiver account address\r\n   * @param _amount the amount of alToken to burn\r\n   * Lending pool will check the account health of the sender. If the sender transfer alTokens to\r\n   * the receiver then the sender account is not healthy, the transfer transaction will be revert.\r\n   * Also claim the user Alpha rewards and set the new user's latest reward\r\n   */\r\n  function _transfer(\r\n    address _from,\r\n    address _to,\r\n    uint256 _amount\r\n  ) internal override {\r\n    claimCurrentAlphaReward(_from);\r\n    claimCurrentAlphaReward(_to);\r\n    super._transfer(_from, _to, _amount);\r\n    require(lendingPool.isAccountHealthy(_from), \"Transfer tokens is not allowed\");\r\n  }\r\n}\r\n",
  "sourcePath": "D:\\Lending-Development\\Lending\\contracts\\AlToken.sol",
  "compiler": {
    "name": "solc",
    "version": "0.6.11+commit.5ef660b1.Emscripten.clang"
  },
  "schemaVersion": "3.2.5",
  "updatedAt": "2020-11-03T00:52:35.696Z",
  "devdoc": {
    "author": "Alpha*",
    "kind": "dev",
    "methods": {
      "allowance(address,address)": {
        "details": "See {IERC20-allowance}."
      },
      "approve(address,uint256)": {
        "details": "See {IERC20-approve}. Requirements: - `spender` cannot be the zero address."
      },
      "balanceOf(address)": {
        "details": "See {IERC20-balanceOf}."
      },
      "burn(address,uint256)": {
        "details": "burn alToken of the address equal to amount",
        "params": {
          "_account": "the account address that will burn the token",
          "_amount": "the amount of alToken to burn Only lending pool can burn alToken"
        }
      },
      "calculateAlphaReward(address)": {
        "details": "calculate Alpha reward of the user",
        "params": {
          "_account": "the user account address"
        },
        "returns": {
          "_0": "the amount of Alpha rewards"
        }
      },
      "claimCurrentAlphaRewardByOwner(address)": {
        "details": "claim user's pending Alpha rewards by owner",
        "params": {
          "_account": "the user account address"
        }
      },
      "decimals()": {
        "details": "Returns the number of decimals used to get its user representation. For example, if `decimals` equals `2`, a balance of `505` tokens should be displayed to a user as `5,05` (`505 / 10 ** 2`). Tokens usually opt for a value of 18, imitating the relationship between Ether and Wei. This is the value {ERC20} uses, unless {_setupDecimals} is called. NOTE: This information is only used for _display_ purposes: it in no way affects any of the arithmetic of the contract, including {IERC20-balanceOf} and {IERC20-transfer}."
      },
      "decreaseAllowance(address,uint256)": {
        "details": "Atomically decreases the allowance granted to `spender` by the caller. This is an alternative to {approve} that can be used as a mitigation for problems described in {IERC20-approve}. Emits an {Approval} event indicating the updated allowance. Requirements: - `spender` cannot be the zero address. - `spender` must have allowance for the caller of at least `subtractedValue`."
      },
      "increaseAllowance(address,uint256)": {
        "details": "Atomically increases the allowance granted to `spender` by the caller. This is an alternative to {approve} that can be used as a mitigation for problems described in {IERC20-approve}. Emits an {Approval} event indicating the updated allowance. Requirements: - `spender` cannot be the zero address."
      },
      "mint(address,uint256)": {
        "details": "mint alToken to the address equal to amount",
        "params": {
          "_account": "the account address of receiver",
          "_amount": "the amount of alToken to mint Only lending pool can mint alToken"
        }
      },
      "name()": {
        "details": "Returns the name of the token."
      },
      "owner()": {
        "details": "Returns the address of the current owner."
      },
      "receiveAlpha(uint256)": {
        "details": "receive Alpha token from the token distributor",
        "params": {
          "_amount": "the amount of Alpha to receive"
        }
      },
      "renounceOwnership()": {
        "details": "Leaves the contract without owner. It will not be possible to call `onlyOwner` functions anymore. Can only be called by the current owner. NOTE: Renouncing ownership will leave the contract without an owner, thereby removing any functionality that is only available to the owner."
      },
      "symbol()": {
        "details": "Returns the symbol of the token, usually a shorter version of the name."
      },
      "totalSupply()": {
        "details": "See {IERC20-totalSupply}."
      },
      "transfer(address,uint256)": {
        "details": "See {IERC20-transfer}. Requirements: - `recipient` cannot be the zero address. - the caller must have a balance of at least `amount`."
      },
      "transferFrom(address,address,uint256)": {
        "details": "See {IERC20-transferFrom}. Emits an {Approval} event indicating the updated allowance. This is not required by the EIP. See the note at the beginning of {ERC20}; Requirements: - `sender` and `recipient` cannot be the zero address. - `sender` must have a balance of at least `amount`. - the caller must have allowance for ``sender``'s tokens of at least `amount`."
      },
      "transferOwnership(address)": {
        "details": "Transfers ownership of the contract to a new account (`newOwner`). Can only be called by the current owner."
      }
    },
    "stateVariables": {
      "alphaMultiplier": {
        "details": "the alpha reward multiplier to calculate Alpha token rewards for the AlToken holder."
      },
      "latestAlphaMultiplier": {
        "details": "the latest reward of user after latest user activity. Global alphaMultiplier |-----------------|-----------------|---------------|                                                                     alphaMultiplier User's latest reward   |-----------------|-----------------|                        start                         last block that user do any activity (received rewards) user's latestAlphaMultiplier user address => latest rewards"
      },
      "lendingPool": {
        "details": "the lending pool of the AlToken"
      },
      "underlyingAsset": {
        "details": "the underlying ERC20 token of the AlToken"
      }
    },
    "title": "alToken contract",
    "version": 1
  },
  "userdoc": {
    "kind": "user",
    "methods": {},
    "notice": "Implements the altoken of the ERC20 token. The alToken represent the liquidity shares of the holder on the ERC20 lending pool.",
    "version": 1
  }
}