{
  "contractName": "BandPriceOracle",
  "abi": [
    {
      "inputs": [
        {
          "internalType": "contract IStdReference",
          "name": "_ref",
          "type": "address"
        }
      ],
      "stateMutability": "nonpayable",
      "type": "constructor"
    },
    {
      "anonymous": false,
      "inputs": [
        {
          "indexed": true,
          "internalType": "address",
          "name": "previousOwner",
          "type": "address"
        },
        {
          "indexed": true,
          "internalType": "address",
          "name": "newOwner",
          "type": "address"
        }
      ],
      "name": "OwnershipTransferred",
      "type": "event"
    },
    {
      "inputs": [],
      "name": "owner",
      "outputs": [
        {
          "internalType": "address",
          "name": "",
          "type": "address"
        }
      ],
      "stateMutability": "view",
      "type": "function"
    },
    {
      "inputs": [],
      "name": "renounceOwnership",
      "outputs": [],
      "stateMutability": "nonpayable",
      "type": "function"
    },
    {
      "inputs": [
        {
          "internalType": "address",
          "name": "",
          "type": "address"
        },
        {
          "internalType": "uint256",
          "name": "",
          "type": "uint256"
        }
      ],
      "name": "tokenToPair",
      "outputs": [
        {
          "internalType": "string",
          "name": "",
          "type": "string"
        }
      ],
      "stateMutability": "view",
      "type": "function"
    },
    {
      "inputs": [
        {
          "internalType": "address",
          "name": "newOwner",
          "type": "address"
        }
      ],
      "name": "transferOwnership",
      "outputs": [],
      "stateMutability": "nonpayable",
      "type": "function"
    },
    {
      "inputs": [
        {
          "internalType": "address",
          "name": "_asset",
          "type": "address"
        },
        {
          "internalType": "string[2]",
          "name": "_pair",
          "type": "string[2]"
        }
      ],
      "name": "setTokenPairMap",
      "outputs": [],
      "stateMutability": "nonpayable",
      "type": "function"
    },
    {
      "inputs": [
        {
          "internalType": "address",
          "name": "_asset",
          "type": "address"
        }
      ],
      "name": "getAssetPrice",
      "outputs": [
        {
          "internalType": "uint256",
          "name": "",
          "type": "uint256"
        }
      ],
      "stateMutability": "view",
      "type": "function"
    }
  ],
  "bytecode": "0x608060405234801561001057600080fd5b50604051610a6f380380610a6f83398101604081905261002f916100b5565b60006100426001600160e01b036100b116565b600080546001600160a01b0319166001600160a01b0383169081178255604051929350917f8be0079c531659141344cd1fd0a4f28419497f9722a3daafe3b4186f6b6457e0908290a350600180546001600160a01b0319166001600160a01b03929092169190911790556100e3565b3390565b6000602082840312156100c6578081fd5b81516001600160a01b03811681146100dc578182fd5b9392505050565b61097d806100f26000396000f3fe608060405234801561001057600080fd5b50600436106100625760003560e01c80631ec7b34e1461006757806331f1b2cd14610090578063715018a6146100a55780638da5cb5b146100ad578063b3596f07146100c2578063f2fde38b146100e2575b600080fd5b61007a610075366004610765565b6100f5565b604051610087919061082b565b60405180910390f35b6100a361009e36600461069a565b61019e565b005b6100a3610207565b6100b5610286565b6040516100879190610817565b6100d56100d0366004610678565b610296565b60405161008791906108e7565b6100a36100f0366004610678565b61040b565b6002602052816000526040600020816002811061010e57fe5b01805460408051602060026001851615610100026000190190941693909304601f810184900484028201840190925281815294509192508301828280156101965780601f1061016b57610100808354040283529160200191610196565b820191906000526020600020905b81548152906001019060200180831161017957829003601f168201915b505050505081565b6101a66104c1565b6000546001600160a01b039081169116146101dc5760405162461bcd60e51b81526004016101d3906108b2565b60405180910390fd5b6001600160a01b03821660009081526002602081905260409091206102029183906104c5565b505050565b61020f6104c1565b6000546001600160a01b0390811691161461023c5760405162461bcd60e51b81526004016101d3906108b2565b600080546040516001600160a01b03909116907f8be0079c531659141344cd1fd0a4f28419497f9722a3daafe3b4186f6b6457e0908390a3600080546001600160a01b0319169055565b6000546001600160a01b03165b90565b60006102a0610515565b6001600160a01b038316600090815260026020819052604080832081518083019092529092909190835b8282101561036d57838201805460408051602060026001851615610100026000190190941693909304601f810184900484028201840190925281815292918301828280156103595780601f1061032e57610100808354040283529160200191610359565b820191906000526020600020905b81548152906001019060200180831161033c57829003601f168201915b5050505050815260200190600101906102ca565b50505050905061037b61053c565b6001548251602084015160405163195556f360e21b81526001600160a01b03909316926365555bcc926103b292909160040161083e565b60606040518083038186803b1580156103ca57600080fd5b505afa1580156103de573d6000803e3d6000fd5b505050506040513d601f19601f82011682018060405250810190610402919061078f565b51949350505050565b6104136104c1565b6000546001600160a01b039081169116146104405760405162461bcd60e51b81526004016101d3906108b2565b6001600160a01b0381166104665760405162461bcd60e51b81526004016101d39061086c565b600080546040516001600160a01b03808516939216917f8be0079c531659141344cd1fd0a4f28419497f9722a3daafe3b4186f6b6457e091a3600080546001600160a01b0319166001600160a01b0392909216919091179055565b3390565b8260028101928215610505579160200282015b8281111561050557825180516104f591849160209091019061055d565b50916020019190600101906104d8565b506105119291506105d7565b5090565b60405180604001604052806002905b60608152602001906001900390816105245790505090565b60405180606001604052806000815260200160008152602001600081525090565b828054600181600116156101000203166002900490600052602060002090601f016020900481019282601f1061059e57805160ff19168380011785556105cb565b828001600101855582156105cb579182015b828111156105cb5782518255916020019190600101906105b0565b506105119291506105fa565b61029391905b808211156105115760006105f18282610614565b506001016105dd565b61029391905b808211156105115760008155600101610600565b50805460018160011615610100020316600290046000825580601f1061063a5750610658565b601f01602090049060005260206000209081019061065891906105fa565b50565b80356001600160a01b038116811461067257600080fd5b92915050565b600060208284031215610689578081fd5b610693838361065b565b9392505050565b600080604083850312156106ac578081fd5b6106b6848461065b565b915060208084013567ffffffffffffffff8111156106d2578283fd5b601f90850181810187136106e4578384fd5b6106ee60406108f0565b8082865b600281101561075557813585018b8782011261070c578889fd5b803561071f61071a82610917565b6108f0565b8181528d8a838501011115610732578a8bfd5b610741828b83018c860161093b565b8652505092860192908601906001016106f2565b5096999098509650505050505050565b60008060408385031215610777578182fd5b610781848461065b565b946020939093013593505050565b6000606082840312156107a0578081fd5b6107aa60606108f0565b8251815260208301516020820152604083015160408201528091505092915050565b60008151808452815b818110156107f1576020818501810151868301820152016107d5565b818111156108025782602083870101525b50601f01601f19169290920160200192915050565b6001600160a01b0391909116815260200190565b60006020825261069360208301846107cc565b60006040825261085160408301856107cc565b828103602084015261086381856107cc565b95945050505050565b60208082526026908201527f4f776e61626c653a206e6577206f776e657220697320746865207a65726f206160408201526564647265737360d01b606082015260800190565b6020808252818101527f4f776e61626c653a2063616c6c6572206973206e6f7420746865206f776e6572604082015260600190565b90815260200190565b60405181810167ffffffffffffffff8111828210171561090f57600080fd5b604052919050565b600067ffffffffffffffff82111561092d578081fd5b50601f01601f191660200190565b8281833750600091015256fea2646970667358221220797814d1922c6ccd91af92288aa798bce7aff95e4500f13ed6f04e93006ff53264736f6c634300060b0033",
  "immutableReferences": {},
  "source": "pragma solidity >=0.6.11;\r\npragma experimental ABIEncoderV2;\r\n\r\nimport {IPriceOracle} from \"./interfaces/IPriceOracle.sol\";\r\nimport {IStdReference} from \"./interfaces/IStdReference.sol\";\r\nimport {Ownable} from \"openzeppelin-solidity/contracts/access/Ownable.sol\";\r\n\r\n/**\r\n * @title BandPriceOracle contract\r\n * @notice Implements the actions of the BandPriceOracle\r\n * @dev Exposes a method to set the Band oracle request packet corresponding to a ERC20 asset address\r\n * as well as a method to query the latest price of an asset from Band's bridge\r\n * @author Alpha\r\n */\r\n\r\ncontract BandPriceOracle is IPriceOracle, Ownable {\r\n  /**\r\n  @notice BandChain's BridgeWithCache interface\r\n  **/\r\n  IStdReference ref;\r\n\r\n  /**\r\n  @notice Mapping between asset address and token pair strings\r\n  **/\r\n  mapping(address => string[2]) public tokenToPair;\r\n\r\n  /**\r\n   * @notice Contract constructor\r\n   * @dev Initializes a new BandPriceOracle instance.\r\n   * @param _ref Band's StdReference contract\r\n   **/\r\n  constructor(IStdReference _ref) public {\r\n    ref = _ref;\r\n  }\r\n\r\n  /**\r\n   * @notice Sets the mapping between an asset address and the corresponding Band's Bridge RequestPacket struct\r\n   * @param _asset The token address the asset\r\n   * @param _pair The symbol pair associated with _asset\r\n   **/\r\n  function setTokenPairMap(address _asset, string[2] memory _pair) public onlyOwner {\r\n    tokenToPair[_asset] = _pair;\r\n  }\r\n\r\n  /**\r\n   * @notice Returns the latest price of an asset given the asset's address\r\n   * @dev The function uses `tokenToPair` to get the symbol string pair associated with the input `_asset``\r\n   * It then uses that the pair string as a parameter to Band's StdReference contract's `getReferenceData` method to get * the latest price of the asset.\r\n   * @param _asset The asset address\r\n   **/\r\n  function getAssetPrice(address _asset) external override view returns (uint256) {\r\n    string[2] memory pair = tokenToPair[_asset];\r\n\r\n    IStdReference.ReferenceData memory rate = ref.getReferenceData(pair[0], pair[1]);\r\n    return rate.rate;\r\n  }\r\n}\r\n",
  "sourcePath": "D:/Lending-Development/Lending/contracts/BandPriceOracle.sol",
  "compiler": {
    "name": "solc",
    "version": "0.6.11+commit.5ef660b1.Emscripten.clang"
  },
  "schemaVersion": "3.2.5",
  "updatedAt": "2020-11-03T00:52:35.702Z",
  "devdoc": {
    "author": "Alpha",
    "details": "Exposes a method to set the Band oracle request packet corresponding to a ERC20 asset address as well as a method to query the latest price of an asset from Band's bridge",
    "kind": "dev",
    "methods": {
      "constructor": {
        "details": "Initializes a new BandPriceOracle instance.",
        "params": {
          "_ref": "Band's StdReference contract*"
        }
      },
      "getAssetPrice(address)": {
        "details": "The function uses `tokenToPair` to get the symbol string pair associated with the input `_asset`` It then uses that the pair string as a parameter to Band's StdReference contract's `getReferenceData` method to get * the latest price of the asset.",
        "params": {
          "_asset": "The asset address*"
        }
      },
      "owner()": {
        "details": "Returns the address of the current owner."
      },
      "renounceOwnership()": {
        "details": "Leaves the contract without owner. It will not be possible to call `onlyOwner` functions anymore. Can only be called by the current owner. NOTE: Renouncing ownership will leave the contract without an owner, thereby removing any functionality that is only available to the owner."
      },
      "setTokenPairMap(address,string[2])": {
        "params": {
          "_asset": "The token address the asset",
          "_pair": "The symbol pair associated with _asset*"
        }
      },
      "transferOwnership(address)": {
        "details": "Transfers ownership of the contract to a new account (`newOwner`). Can only be called by the current owner."
      }
    },
    "title": "BandPriceOracle contract",
    "version": 1
  },
  "userdoc": {
    "kind": "user",
    "methods": {
      "constructor": "Contract constructor",
      "getAssetPrice(address)": {
        "notice": "Returns the latest price of an asset given the asset's address"
      },
      "setTokenPairMap(address,string[2])": {
        "notice": "Sets the mapping between an asset address and the corresponding Band's Bridge RequestPacket struct"
      },
      "tokenToPair(address,uint256)": {
        "notice": "Mapping between asset address and token pair strings*"
      }
    },
    "notice": "Implements the actions of the BandPriceOracle",
    "version": 1
  }
}