{
  "contractName": "DefaultPoolConfiguration",
  "abi": [
    {
      "inputs": [
        {
          "internalType": "uint256",
          "name": "_baseBorrowRate",
          "type": "uint256"
        },
        {
          "internalType": "uint256",
          "name": "_rateSlope1",
          "type": "uint256"
        },
        {
          "internalType": "uint256",
          "name": "_rateSlope2",
          "type": "uint256"
        },
        {
          "internalType": "uint256",
          "name": "_collateralPercent",
          "type": "uint256"
        },
        {
          "internalType": "uint256",
          "name": "_liquidationBonusPercent",
          "type": "uint256"
        }
      ],
      "stateMutability": "nonpayable",
      "type": "constructor"
    },
    {
      "anonymous": false,
      "inputs": [
        {
          "indexed": true,
          "internalType": "address",
          "name": "previousOwner",
          "type": "address"
        },
        {
          "indexed": true,
          "internalType": "address",
          "name": "newOwner",
          "type": "address"
        }
      ],
      "name": "OwnershipTransferred",
      "type": "event"
    },
    {
      "inputs": [],
      "name": "EXCESS_UTILIZATION_RATE",
      "outputs": [
        {
          "internalType": "uint256",
          "name": "",
          "type": "uint256"
        }
      ],
      "stateMutability": "view",
      "type": "function"
    },
    {
      "inputs": [],
      "name": "OPTIMAL_UTILIZATION_RATE",
      "outputs": [
        {
          "internalType": "uint256",
          "name": "",
          "type": "uint256"
        }
      ],
      "stateMutability": "view",
      "type": "function"
    },
    {
      "inputs": [],
      "name": "baseBorrowRate",
      "outputs": [
        {
          "internalType": "uint256",
          "name": "",
          "type": "uint256"
        }
      ],
      "stateMutability": "view",
      "type": "function"
    },
    {
      "inputs": [],
      "name": "collateralPercent",
      "outputs": [
        {
          "internalType": "uint256",
          "name": "",
          "type": "uint256"
        }
      ],
      "stateMutability": "view",
      "type": "function"
    },
    {
      "inputs": [],
      "name": "liquidationBonusPercent",
      "outputs": [
        {
          "internalType": "uint256",
          "name": "",
          "type": "uint256"
        }
      ],
      "stateMutability": "view",
      "type": "function"
    },
    {
      "inputs": [],
      "name": "owner",
      "outputs": [
        {
          "internalType": "address",
          "name": "",
          "type": "address"
        }
      ],
      "stateMutability": "view",
      "type": "function"
    },
    {
      "inputs": [],
      "name": "rateSlope1",
      "outputs": [
        {
          "internalType": "uint256",
          "name": "",
          "type": "uint256"
        }
      ],
      "stateMutability": "view",
      "type": "function"
    },
    {
      "inputs": [],
      "name": "rateSlope2",
      "outputs": [
        {
          "internalType": "uint256",
          "name": "",
          "type": "uint256"
        }
      ],
      "stateMutability": "view",
      "type": "function"
    },
    {
      "inputs": [],
      "name": "renounceOwnership",
      "outputs": [],
      "stateMutability": "nonpayable",
      "type": "function"
    },
    {
      "inputs": [
        {
          "internalType": "address",
          "name": "newOwner",
          "type": "address"
        }
      ],
      "name": "transferOwnership",
      "outputs": [],
      "stateMutability": "nonpayable",
      "type": "function"
    },
    {
      "inputs": [],
      "name": "getBaseBorrowRate",
      "outputs": [
        {
          "internalType": "uint256",
          "name": "",
          "type": "uint256"
        }
      ],
      "stateMutability": "view",
      "type": "function"
    },
    {
      "inputs": [],
      "name": "getCollateralPercent",
      "outputs": [
        {
          "internalType": "uint256",
          "name": "",
          "type": "uint256"
        }
      ],
      "stateMutability": "view",
      "type": "function"
    },
    {
      "inputs": [],
      "name": "getLiquidationBonusPercent",
      "outputs": [
        {
          "internalType": "uint256",
          "name": "",
          "type": "uint256"
        }
      ],
      "stateMutability": "view",
      "type": "function"
    },
    {
      "inputs": [
        {
          "internalType": "uint256",
          "name": "_totalBorrows",
          "type": "uint256"
        },
        {
          "internalType": "uint256",
          "name": "_totalLiquidity",
          "type": "uint256"
        }
      ],
      "name": "calculateInterestRate",
      "outputs": [
        {
          "internalType": "uint256",
          "name": "",
          "type": "uint256"
        }
      ],
      "stateMutability": "view",
      "type": "function"
    },
    {
      "inputs": [],
      "name": "getOptimalUtilizationRate",
      "outputs": [
        {
          "internalType": "uint256",
          "name": "",
          "type": "uint256"
        }
      ],
      "stateMutability": "view",
      "type": "function"
    },
    {
      "inputs": [
        {
          "internalType": "uint256",
          "name": "_totalBorrows",
          "type": "uint256"
        },
        {
          "internalType": "uint256",
          "name": "_totalLiquidity",
          "type": "uint256"
        }
      ],
      "name": "getUtilizationRate",
      "outputs": [
        {
          "internalType": "uint256",
          "name": "",
          "type": "uint256"
        }
      ],
      "stateMutability": "view",
      "type": "function"
    }
  ],
  "bytecode": "0x608060405234801561001057600080fd5b506040516108fb3803806108fb833981810160405260a081101561003357600080fd5b5080516020820151604083015160608401516080909401519293919290919060006100656001600160e01b036100c916565b600080546001600160a01b0319166001600160a01b0383169081178255604051929350917f8be0079c531659141344cd1fd0a4f28419497f9722a3daafe3b4186f6b6457e0908290a3506001949094556002929092556003556004556005556100cd565b3390565b61081f806100dc6000396000f3fe608060405234801561001057600080fd5b50600436106101005760003560e01c80638da5cb5b11610097578063ca6389f311610066578063ca6389f3146101cb578063ccc12094146101d3578063da423bd5146101db578063f2fde38b146101e357610100565b80638da5cb5b14610174578063a15f30ac14610198578063a5796785146101a0578063bf386682146101c357610100565b806345ade051116100d357806345ade051146101375780634d489a181461015a5780635454a4b614610162578063715018a61461016a57610100565b806304366b5814610105578063173198731461011f5780631eedf5c7146101275780633dd6b14a1461012f575b600080fd5b61010d610209565b60408051918252519081900360200190f35b61010d61020f565b61010d61021b565b61010d610221565b61010d6004803603604081101561014d57600080fd5b5080359060200135610227565b61010d610250565b61010d61025c565b610172610262565b005b61017c610316565b604080516001600160a01b039092168252519081900360200190f35b61010d610325565b61010d600480360360408110156101b657600080fd5b5080359060200135610331565b61010d610401565b61010d610407565b61010d61040d565b61010d610413565b610172600480360360208110156101f957600080fd5b50356001600160a01b0316610419565b60045490565b6702c68af0bb14000081565b60035481565b60055481565b600081156102445761023f838363ffffffff61052316565b610247565b60005b90505b92915050565b670b1a2bc2ec50000090565b60025481565b61026a61054d565b6000546001600160a01b039081169116146102cc576040805162461bcd60e51b815260206004820181905260248201527f4f776e61626c653a2063616c6c6572206973206e6f7420746865206f776e6572604482015290519081900360640190fd5b600080546040516001600160a01b03909116907f8be0079c531659141344cd1fd0a4f28419497f9722a3daafe3b4186f6b6457e0908390a3600080546001600160a01b0319169055565b6000546001600160a01b031690565b670b1a2bc2ec50000081565b60008061033e8484610227565b9050670b1a2bc2ec5000008111156103c65760006103826702c68af0bb14000061037684670b1a2bc2ec50000063ffffffff61055116565b9063ffffffff61052316565b90506103bd61039c8260035461059390919063ffffffff16565b6002546001546103b19163ffffffff6105b116565b9063ffffffff6105b116565b9250505061024a565b6103f96103ea670b1a2bc2ec5000006103766002548561059390919063ffffffff16565b6001549063ffffffff6105b116565b91505061024a565b60015481565b60015490565b60045481565b60055490565b61042161054d565b6000546001600160a01b03908116911614610483576040805162461bcd60e51b815260206004820181905260248201527f4f776e61626c653a2063616c6c6572206973206e6f7420746865206f776e6572604482015290519081900360640190fd5b6001600160a01b0381166104c85760405162461bcd60e51b81526004018080602001828103825260268152602001806107a36026913960400191505060405180910390fd5b600080546040516001600160a01b03808516939216917f8be0079c531659141344cd1fd0a4f28419497f9722a3daafe3b4186f6b6457e091a3600080546001600160a01b0319166001600160a01b0392909216919091179055565b60006102478261054185670de0b6b3a764000063ffffffff61060b16565b9063ffffffff61066416565b3390565b600061024783836040518060400160405280601e81526020017f536166654d6174683a207375627472616374696f6e206f766572666c6f7700008152506106a6565b6000610247670de0b6b3a7640000610541858563ffffffff61060b16565b600082820183811015610247576040805162461bcd60e51b815260206004820152601b60248201527f536166654d6174683a206164646974696f6e206f766572666c6f770000000000604482015290519081900360640190fd5b60008261061a5750600061024a565b8282028284828161062757fe5b04146102475760405162461bcd60e51b81526004018080602001828103825260218152602001806107c96021913960400191505060405180910390fd5b600061024783836040518060400160405280601a81526020017f536166654d6174683a206469766973696f6e206279207a65726f00000000000081525061073d565b600081848411156107355760405162461bcd60e51b81526004018080602001828103825283818151815260200191508051906020019080838360005b838110156106fa5781810151838201526020016106e2565b50505050905090810190601f1680156107275780820380516001836020036101000a031916815260200191505b509250505060405180910390fd5b505050900390565b6000818361078c5760405162461bcd60e51b81526020600482018181528351602484015283519092839260449091019190850190808383600083156106fa5781810151838201526020016106e2565b50600083858161079857fe5b049594505050505056fe4f776e61626c653a206e6577206f776e657220697320746865207a65726f2061646472657373536166654d6174683a206d756c7469706c69636174696f6e206f766572666c6f77a26469706673582212209ed3a4741dc96e9fb425b6b8415291eae5b608fc14e0a0ff1fa93a10632b4cf464736f6c634300060b0033",
  "immutableReferences": {},
  "source": "pragma solidity >=0.6.11;\r\n\r\nimport \"openzeppelin-solidity/contracts/access/Ownable.sol\";\r\nimport \"openzeppelin-solidity/contracts/math/SafeMath.sol\";\r\nimport \"./interfaces/IPoolConfiguration.sol\";\r\nimport \"./libraries/WadMath.sol\";\r\n\r\n/**\r\n * @title Default pool configuration contract\r\n * @notice Implements the configuration of the ERC20 token pool.\r\n * @author Alpha\r\n **/\r\n\r\ncontract DefaultPoolConfiguration is IPoolConfiguration, Ownable {\r\n  using SafeMath for uint256;\r\n  using WadMath for uint256;\r\n\r\n  /**\r\n   * @notice the borrow interest rate calculation\r\n   * Borrow interest rate(%)\r\n   *  ^\r\n   *  |             |    /\r\n   *  |             |   /\r\n   *  |             |  /<------ rate slope 2\r\n   *  |             | /\r\n   *  |         ____|/\r\n   *  |    ____/    |\r\n   *  | __/<--------|-------- rate slope 1\r\n   *  |/<-----------|-------- base borrow rate\r\n   *  |-------------|------|  Utilization rate(%)\r\n   *  0             80    100\r\n   *               ^   ^\r\n   *               |   | excess utilization rate\r\n   *               | optimal utilization rate\r\n   *\r\n   * When the utilization rate is too high (over 80%) the the pool will use rate slope 2 to calculate\r\n   * the borrow interest rate which grow very fast to protect the liquidity in the pool.\r\n   */\r\n\r\n  // optimal utilization rate at 80%\r\n  uint256 public constant OPTIMAL_UTILIZATION_RATE = 0.8 * 1e18;\r\n  // excess utilization rate at 20%\r\n  uint256 public constant EXCESS_UTILIZATION_RATE = 0.2 * 1e18;\r\n\r\n  uint256 public baseBorrowRate;\r\n  uint256 public rateSlope1;\r\n  uint256 public rateSlope2;\r\n  uint256 public collateralPercent;\r\n  uint256 public liquidationBonusPercent;\r\n\r\n  constructor(\r\n    uint256 _baseBorrowRate,\r\n    uint256 _rateSlope1,\r\n    uint256 _rateSlope2,\r\n    uint256 _collateralPercent,\r\n    uint256 _liquidationBonusPercent\r\n  ) public {\r\n    baseBorrowRate = _baseBorrowRate;\r\n    rateSlope1 = _rateSlope1;\r\n    rateSlope2 = _rateSlope2;\r\n    collateralPercent = _collateralPercent;\r\n    liquidationBonusPercent = _liquidationBonusPercent;\r\n  }\r\n\r\n  /**\r\n   * @dev get base borrow rate of the ERC20 token pool\r\n   * @return base borrow rate\r\n   */\r\n  function getBaseBorrowRate() external override(IPoolConfiguration) view returns (uint256) {\r\n    return baseBorrowRate;\r\n  }\r\n\r\n  /**\r\n   * @dev get collateral percent of the ERC20 token pool\r\n   * @return collateral percent\r\n   * Basically the collateral percent is the percent that liquidity can be use as collteral to cover the user's loan\r\n   */\r\n  function getCollateralPercent() external override(IPoolConfiguration) view returns (uint256) {\r\n    return collateralPercent;\r\n  }\r\n\r\n  /**\r\n   * @dev get the liquidation bonus of the ERC20 token pool\r\n   * @return liquidation bonus percent\r\n   * the liquidation bunus percent used for collateral amount calculation.\r\n   * How many collateral that liquidator will receive when the liquidation is success.\r\n   */\r\n  function getLiquidationBonusPercent()\r\n    external\r\n    override(IPoolConfiguration)\r\n    view\r\n    returns (uint256)\r\n  {\r\n    return liquidationBonusPercent;\r\n  }\r\n\r\n  /**\r\n   * @dev calculate the annual interest rate based on utilization rate\r\n   * @param _totalBorrows the total borrows of the ERC20 token pool\r\n   * @param _totalLiquidity the total liquidity of the ERC20 token of the pool\r\n   * First, calculate the utilization rate as below formula\r\n   * utilization rate = total borrows / (total borrows + available liquidity)\r\n   * Second, calculate the annual interest rate\r\n   * As the above graph which show the relative between the utilization rate and the borrow interest rate.\r\n   * There are 2 cases:\r\n   * 1. the utilization rate is less than or equal 80%\r\n   * - the borrow interest rate = base borrow rate + (utilization rate * rate slope 1 / optimal utilization rate)\r\n   * 2. the utilization rate is excessed 80%. In this case the borrow interest rate will be very high.\r\n   * - the excess utilization rate ratio = (utilization rate - optimal utilization rate) / excess utilization rate\r\n   * - the borrow interest rate = base borrow rate + rate slope 1 + (rate slope 2 * excess utilization rate ratio)\r\n   */\r\n  function calculateInterestRate(uint256 _totalBorrows, uint256 _totalLiquidity)\r\n    external\r\n    override(IPoolConfiguration)\r\n    view\r\n    returns (uint256)\r\n  {\r\n    uint256 utilizationRate = getUtilizationRate(_totalBorrows, _totalLiquidity);\r\n\r\n    if (utilizationRate > OPTIMAL_UTILIZATION_RATE) {\r\n      uint256 excessUtilizationRateRatio = utilizationRate.sub(OPTIMAL_UTILIZATION_RATE).wadDiv(\r\n        EXCESS_UTILIZATION_RATE\r\n      );\r\n      return baseBorrowRate.add(rateSlope1).add(rateSlope2.wadMul(excessUtilizationRateRatio));\r\n    } else {\r\n      return\r\n        baseBorrowRate.add(utilizationRate.wadMul(rateSlope1).wadDiv(OPTIMAL_UTILIZATION_RATE));\r\n    }\r\n  }\r\n\r\n  /**\r\n   * @dev get optimal utilization rate of the ERC20 token pool\r\n   * @return the optimal utilization\r\n   */\r\n  function getOptimalUtilizationRate() external override view returns (uint256) {\r\n    return OPTIMAL_UTILIZATION_RATE;\r\n  }\r\n\r\n  /**\r\n   * @dev calculate the utilization rate\r\n   * @param _totalBorrows the total borrows of the ERC20 token pool\r\n   * @param _totalLiquidity the total liquidity of the ERC20 token of the pool\r\n   * @return utilizationRate the utilization rate of the ERC20 pool\r\n   */\r\n  function getUtilizationRate(uint256 _totalBorrows, uint256 _totalLiquidity)\r\n    public\r\n    override\r\n    view\r\n    returns (uint256)\r\n  {\r\n    return (_totalLiquidity == 0) ? 0 : _totalBorrows.wadDiv(_totalLiquidity);\r\n  }\r\n}\r\n",
  "sourcePath": "D:/Lending-Development/Lending/contracts/DefaultPoolConfiguration.sol",
  "compiler": {
    "name": "solc",
    "version": "0.6.11+commit.5ef660b1.Emscripten.clang"
  },
  "schemaVersion": "3.2.5",
  "updatedAt": "2020-11-03T00:52:35.704Z",
  "devdoc": {
    "author": "Alpha*",
    "kind": "dev",
    "methods": {
      "calculateInterestRate(uint256,uint256)": {
        "details": "calculate the annual interest rate based on utilization rate",
        "params": {
          "_totalBorrows": "the total borrows of the ERC20 token pool",
          "_totalLiquidity": "the total liquidity of the ERC20 token of the pool First, calculate the utilization rate as below formula utilization rate = total borrows / (total borrows + available liquidity) Second, calculate the annual interest rate As the above graph which show the relative between the utilization rate and the borrow interest rate. There are 2 cases: 1. the utilization rate is less than or equal 80% - the borrow interest rate = base borrow rate + (utilization rate * rate slope 1 / optimal utilization rate) 2. the utilization rate is excessed 80%. In this case the borrow interest rate will be very high. - the excess utilization rate ratio = (utilization rate - optimal utilization rate) / excess utilization rate - the borrow interest rate = base borrow rate + rate slope 1 + (rate slope 2 * excess utilization rate ratio)"
        }
      },
      "getBaseBorrowRate()": {
        "details": "get base borrow rate of the ERC20 token pool",
        "returns": {
          "_0": "base borrow rate"
        }
      },
      "getCollateralPercent()": {
        "details": "get collateral percent of the ERC20 token pool",
        "returns": {
          "_0": "collateral percent Basically the collateral percent is the percent that liquidity can be use as collteral to cover the user's loan"
        }
      },
      "getLiquidationBonusPercent()": {
        "details": "get the liquidation bonus of the ERC20 token pool",
        "returns": {
          "_0": "liquidation bonus percent the liquidation bunus percent used for collateral amount calculation. How many collateral that liquidator will receive when the liquidation is success."
        }
      },
      "getOptimalUtilizationRate()": {
        "details": "get optimal utilization rate of the ERC20 token pool",
        "returns": {
          "_0": "the optimal utilization"
        }
      },
      "getUtilizationRate(uint256,uint256)": {
        "details": "calculate the utilization rate",
        "params": {
          "_totalBorrows": "the total borrows of the ERC20 token pool",
          "_totalLiquidity": "the total liquidity of the ERC20 token of the pool"
        },
        "returns": {
          "_0": "utilizationRate the utilization rate of the ERC20 pool"
        }
      },
      "owner()": {
        "details": "Returns the address of the current owner."
      },
      "renounceOwnership()": {
        "details": "Leaves the contract without owner. It will not be possible to call `onlyOwner` functions anymore. Can only be called by the current owner. NOTE: Renouncing ownership will leave the contract without an owner, thereby removing any functionality that is only available to the owner."
      },
      "transferOwnership(address)": {
        "details": "Transfers ownership of the contract to a new account (`newOwner`). Can only be called by the current owner."
      }
    },
    "title": "Default pool configuration contract",
    "version": 1
  },
  "userdoc": {
    "kind": "user",
    "methods": {
      "OPTIMAL_UTILIZATION_RATE()": {
        "notice": "the borrow interest rate calculation Borrow interest rate(%)  ^  |             |    /  |             |   /  |             |  /<------ rate slope 2  |             | /  |         ____|/  |    ____/    |  | __/<--------|-------- rate slope 1  |/<-----------|-------- base borrow rate  |-------------|------|  Utilization rate(%)  0             80    100               ^   ^               |   | excess utilization rate               | optimal utilization rate When the utilization rate is too high (over 80%) the the pool will use rate slope 2 to calculate the borrow interest rate which grow very fast to protect the liquidity in the pool."
      }
    },
    "notice": "Implements the configuration of the ERC20 token pool.",
    "version": 1
  }
}