{
  "contractName": "EscrowAlpha",
  "abi": [
    {
      "inputs": [
        {
          "internalType": "contract AlphaToken",
          "name": "_alphaToken",
          "type": "address"
        },
        {
          "internalType": "uint256",
          "name": "_withdrawPortion",
          "type": "uint256"
        }
      ],
      "stateMutability": "nonpayable",
      "type": "constructor"
    },
    {
      "anonymous": false,
      "inputs": [
        {
          "indexed": true,
          "internalType": "address",
          "name": "user",
          "type": "address"
        },
        {
          "indexed": false,
          "internalType": "uint256",
          "name": "share",
          "type": "uint256"
        },
        {
          "indexed": false,
          "internalType": "uint256",
          "name": "amount",
          "type": "uint256"
        }
      ],
      "name": "AlphaTokenAccumulated",
      "type": "event"
    },
    {
      "anonymous": false,
      "inputs": [
        {
          "indexed": true,
          "internalType": "address",
          "name": "user",
          "type": "address"
        },
        {
          "indexed": false,
          "internalType": "uint256",
          "name": "share",
          "type": "uint256"
        },
        {
          "indexed": false,
          "internalType": "uint256",
          "name": "amount",
          "type": "uint256"
        }
      ],
      "name": "AlphaTokenWithdrawn",
      "type": "event"
    },
    {
      "anonymous": false,
      "inputs": [
        {
          "indexed": true,
          "internalType": "address",
          "name": "previousOwner",
          "type": "address"
        },
        {
          "indexed": true,
          "internalType": "address",
          "name": "newOwner",
          "type": "address"
        }
      ],
      "name": "OwnershipTransferred",
      "type": "event"
    },
    {
      "inputs": [],
      "name": "alphaToken",
      "outputs": [
        {
          "internalType": "contract AlphaToken",
          "name": "",
          "type": "address"
        }
      ],
      "stateMutability": "view",
      "type": "function"
    },
    {
      "inputs": [],
      "name": "owner",
      "outputs": [
        {
          "internalType": "address",
          "name": "",
          "type": "address"
        }
      ],
      "stateMutability": "view",
      "type": "function"
    },
    {
      "inputs": [],
      "name": "renounceOwnership",
      "outputs": [],
      "stateMutability": "nonpayable",
      "type": "function"
    },
    {
      "inputs": [
        {
          "internalType": "address",
          "name": "",
          "type": "address"
        }
      ],
      "name": "shares",
      "outputs": [
        {
          "internalType": "uint256",
          "name": "",
          "type": "uint256"
        }
      ],
      "stateMutability": "view",
      "type": "function"
    },
    {
      "inputs": [],
      "name": "totalShare",
      "outputs": [
        {
          "internalType": "uint256",
          "name": "",
          "type": "uint256"
        }
      ],
      "stateMutability": "view",
      "type": "function"
    },
    {
      "inputs": [
        {
          "internalType": "address",
          "name": "newOwner",
          "type": "address"
        }
      ],
      "name": "transferOwnership",
      "outputs": [],
      "stateMutability": "nonpayable",
      "type": "function"
    },
    {
      "inputs": [],
      "name": "withdrawPortion",
      "outputs": [
        {
          "internalType": "uint256",
          "name": "",
          "type": "uint256"
        }
      ],
      "stateMutability": "view",
      "type": "function"
    },
    {
      "inputs": [
        {
          "internalType": "address",
          "name": "_user",
          "type": "address"
        },
        {
          "internalType": "uint256",
          "name": "_amount",
          "type": "uint256"
        }
      ],
      "name": "accumulateAlphaToUser",
      "outputs": [],
      "stateMutability": "nonpayable",
      "type": "function"
    },
    {
      "inputs": [
        {
          "internalType": "uint256",
          "name": "_share",
          "type": "uint256"
        }
      ],
      "name": "claim",
      "outputs": [],
      "stateMutability": "nonpayable",
      "type": "function"
    },
    {
      "inputs": [
        {
          "internalType": "uint256",
          "name": "_amount",
          "type": "uint256"
        }
      ],
      "name": "recover",
      "outputs": [],
      "stateMutability": "nonpayable",
      "type": "function"
    },
    {
      "inputs": [
        {
          "internalType": "uint256",
          "name": "_withdrawPortion",
          "type": "uint256"
        }
      ],
      "name": "setwithdrawPortion",
      "outputs": [],
      "stateMutability": "nonpayable",
      "type": "function"
    }
  ],
  "bytecode": "0x608060405234801561001057600080fd5b50604051610cf2380380610cf28339818101604052604081101561003357600080fd5b508051602090910151600061004f6001600160e01b036100c616565b600080546001600160a01b0319166001600160a01b0383169081178255604051929350917f8be0079c531659141344cd1fd0a4f28419497f9722a3daafe3b4186f6b6457e0908290a35060018055600280546001600160a01b0319166001600160a01b0393909316929092179091556005556100ca565b3390565b610c19806100d96000396000f3fe608060405234801561001057600080fd5b50600436106100a95760003560e01c806370b4c9e01161007157806370b4c9e014610129578063715018a61461014d5780638da5cb5b14610155578063b73480bf1461015d578063ce7c2ac214610189578063f2fde38b146101af576100a9565b8063026c4207146100ae578063076fe27d146100c85780630ca35682146100e7578063379607f5146101045780633cbc16d014610121575b600080fd5b6100b66101d5565b60408051918252519081900360200190f35b6100e5600480360360208110156100de57600080fd5b50356101db565b005b6100e5600480360360208110156100fd57600080fd5b5035610238565b6100e56004803603602081101561011a57600080fd5b5035610313565b6100b661053e565b610131610544565b604080516001600160a01b039092168252519081900360200190f35b6100e5610553565b6101316105f5565b6100e56004803603604081101561017357600080fd5b506001600160a01b038135169060200135610604565b6100b66004803603602081101561019f57600080fd5b50356001600160a01b0316610832565b6100e5600480360360208110156101c557600080fd5b50356001600160a01b0316610844565b60045481565b6101e361093c565b6000546001600160a01b03908116911614610233576040805162461bcd60e51b81526020600482018190526024820152600080516020610bc4833981519152604482015290519081900360640190fd5b600555565b61024061093c565b6000546001600160a01b03908116911614610290576040805162461bcd60e51b81526020600482018190526024820152600080516020610bc4833981519152604482015290519081900360640190fd5b6002546040805163a9059cbb60e01b81523360048201526024810184905290516001600160a01b039092169163a9059cbb916044808201926020929091908290030181600087803b1580156102e457600080fd5b505af11580156102f8573d6000803e3d6000fd5b505050506040513d602081101561030e57600080fd5b505050565b6002600154141561036b576040805162461bcd60e51b815260206004820152601f60248201527f5265656e7472616e637947756172643a207265656e7472616e742063616c6c00604482015290519081900360640190fd5b6002600181905554604080516370a0823160e01b815230600482015290516000926001600160a01b0316916370a08231916024808301926020929190829003018186803b1580156103bb57600080fd5b505afa1580156103cf573d6000803e3d6000fd5b505050506040513d60208110156103e557600080fd5b505160055460045491925060009161043091670de0b6b3a76400009161041891906104249083898963ffffffff61094016565b9063ffffffff6109a216565b9063ffffffff61094016565b33600090815260036020526040902054909150610453908463ffffffff6109e416565b33600090815260036020526040902055600454610476908463ffffffff6109e416565b60049081556002546040805163a9059cbb60e01b8152339381019390935260248301849052516001600160a01b039091169163a9059cbb9160448083019260209291908290030181600087803b1580156104cf57600080fd5b505af11580156104e3573d6000803e3d6000fd5b505050506040513d60208110156104f957600080fd5b50506040805184815260208101839052815133927f4ba696e8b1f8ddf1c313395f2fd21583b12883800db9fd883570a581cadd59df928290030190a250506001805550565b60055481565b6002546001600160a01b031681565b61055b61093c565b6000546001600160a01b039081169116146105ab576040805162461bcd60e51b81526020600482018190526024820152600080516020610bc4833981519152604482015290519081900360640190fd5b600080546040516001600160a01b03909116907f8be0079c531659141344cd1fd0a4f28419497f9722a3daafe3b4186f6b6457e0908390a3600080546001600160a01b0319169055565b6000546001600160a01b031690565b6002600154141561065c576040805162461bcd60e51b815260206004820152601f60248201527f5265656e7472616e637947756172643a207265656e7472616e742063616c6c00604482015290519081900360640190fd5b6002600181905554604080516370a0823160e01b815230600482015290516000926001600160a01b0316916370a08231916024808301926020929190829003018186803b1580156106ac57600080fd5b505afa1580156106c0573d6000803e3d6000fd5b505050506040513d60208110156106d657600080fd5b5051905060008115610700576106fb826104186004548661094090919063ffffffff16565b610702565b825b6001600160a01b03851660009081526003602052604090205490915061072e908263ffffffff610a2616565b6001600160a01b03851660009081526003602052604090205560045461075a908263ffffffff610a2616565b6004908155600254604080516323b872dd60e01b8152339381019390935230602484015260448301869052516001600160a01b03909116916323b872dd9160648083019260209291908290030181600087803b1580156107b957600080fd5b505af11580156107cd573d6000803e3d6000fd5b505050506040513d60208110156107e357600080fd5b5050604080518281526020810185905281516001600160a01b038716927f5d09ccaeb222bbce79e3a4e0f693f98d72b49b6250f0b5067fb085b0aaf7c924928290030190a25050600180555050565b60036020526000908152604090205481565b61084c61093c565b6000546001600160a01b0390811691161461089c576040805162461bcd60e51b81526020600482018190526024820152600080516020610bc4833981519152604482015290519081900360640190fd5b6001600160a01b0381166108e15760405162461bcd60e51b8152600401808060200182810382526026815260200180610b7d6026913960400191505060405180910390fd5b600080546040516001600160a01b03808516939216917f8be0079c531659141344cd1fd0a4f28419497f9722a3daafe3b4186f6b6457e091a3600080546001600160a01b0319166001600160a01b0392909216919091179055565b3390565b60008261094f5750600061099c565b8282028284828161095c57fe5b04146109995760405162461bcd60e51b8152600401808060200182810382526021815260200180610ba36021913960400191505060405180910390fd5b90505b92915050565b600061099983836040518060400160405280601a81526020017f536166654d6174683a206469766973696f6e206279207a65726f000000000000815250610a80565b600061099983836040518060400160405280601e81526020017f536166654d6174683a207375627472616374696f6e206f766572666c6f770000815250610b22565b600082820183811015610999576040805162461bcd60e51b815260206004820152601b60248201527f536166654d6174683a206164646974696f6e206f766572666c6f770000000000604482015290519081900360640190fd5b60008183610b0c5760405162461bcd60e51b81526004018080602001828103825283818151815260200191508051906020019080838360005b83811015610ad1578181015183820152602001610ab9565b50505050905090810190601f168015610afe5780820380516001836020036101000a031916815260200191505b509250505060405180910390fd5b506000838581610b1857fe5b0495945050505050565b60008184841115610b745760405162461bcd60e51b8152602060048201818152835160248401528351909283926044909101919085019080838360008315610ad1578181015183820152602001610ab9565b50505090039056fe4f776e61626c653a206e6577206f776e657220697320746865207a65726f2061646472657373536166654d6174683a206d756c7469706c69636174696f6e206f766572666c6f774f776e61626c653a2063616c6c6572206973206e6f7420746865206f776e6572a26469706673582212206d84757cf1a52b942e38376e591ccc684845b325b93839231f39b9bc6269266364736f6c634300060b0033",
  "immutableReferences": {},
  "source": "// SPDX-License-Identifier: Apache-2.0\r\npragma solidity >=0.6.11;\r\n\r\nimport \"openzeppelin-solidity/contracts/math/SafeMath.sol\";\r\nimport \"openzeppelin-solidity/contracts/access/Ownable.sol\";\r\nimport \"openzeppelin-solidity/contracts/utils/ReentrancyGuard.sol\";\r\nimport \"../interfaces/IVestingAlpha.sol\";\r\nimport \"./AlphaToken.sol\";\r\n\r\n/**\r\n * @title Alpha escrow contract.\r\n * @author Alpha\r\n *\r\n * Implements Alpha escrow contract. Whenever you withdraw, you pay\r\n * withdraw premium to other existing users who have not withdrawn yet.\r\n */\r\n\r\ncontract EscrowAlpha is IVestingAlpha, Ownable, ReentrancyGuard {\r\n  using SafeMath for uint256;\r\n\r\n  /**\r\n   * @dev emitted on accumulate Alpha token\r\n   * @param user the account of user\r\n   * @param share the shrare that the user receives\r\n   * @param amount the amount of Alpha token to accumulate\r\n   */\r\n  event AlphaTokenAccumulated(address indexed user, uint256 share, uint256 amount);\r\n  /**\r\n   * @dev emitted on withdraw Alpha token\r\n   * @param user the account of user\r\n   * @param share the shrare that the user burns\r\n   * @param amount the amount of Alpha token that the user receives\r\n   */\r\n  event AlphaTokenWithdrawn(address indexed user, uint256 share, uint256 amount);\r\n\r\n  // alpha token\r\n  AlphaToken public alphaToken;\r\n  // user => accumulate vesting share\r\n  mapping(address => uint256) public shares;\r\n  // total share of all users\r\n  uint256 public totalShare;\r\n  // 1e18 - reward withdraw penalty distributed to other token vesters.\r\n  uint256 public withdrawPortion;\r\n\r\n  constructor(AlphaToken _alphaToken, uint256 _withdrawPortion) public {\r\n    alphaToken = _alphaToken;\r\n    withdrawPortion = _withdrawPortion;\r\n  }\r\n\r\n  /**\r\n   * @dev accumulate Alpha token to user\r\n   * @param _user the user account address\r\n   * @param _amount the amount of Alpha token to accumulate\r\n   */\r\n  function accumulateAlphaToUser(address _user, uint256 _amount) external override nonReentrant {\r\n    uint256 supply = alphaToken.balanceOf(address(this));\r\n    uint256 share = supply == 0 ? _amount : _amount.mul(totalShare).div(supply);\r\n    shares[_user] = shares[_user].add(share);\r\n    totalShare = totalShare.add(share);\r\n    alphaToken.transferFrom(msg.sender, address(this), _amount);\r\n    emit AlphaTokenAccumulated(_user, share, _amount);\r\n  }\r\n\r\n  /**\r\n   * @dev claim Alpha token by burning shares (get less because of withdraw premium)\r\n   * @param _share the number of shares to burn and claim Alpha\r\n   */\r\n  function claim(uint256 _share) external nonReentrant {\r\n    uint256 supply = alphaToken.balanceOf(address(this));\r\n    uint256 amount = _share.mul(supply).div(totalShare).mul(withdrawPortion).div(1e18);\r\n    shares[msg.sender] = shares[msg.sender].sub(_share);\r\n    totalShare = totalShare.sub(_share);\r\n    alphaToken.transfer(msg.sender, amount);\r\n    emit AlphaTokenWithdrawn(msg.sender, _share, amount);\r\n  }\r\n\r\n  /**\r\n   * @dev recover left-over Alpha token. Must only be called from owner\r\n   * @param _amount the number of Alpha token to withdraw\r\n   */\r\n  function recover(uint256 _amount) external onlyOwner {\r\n    alphaToken.transfer(msg.sender, _amount);\r\n  }\r\n\r\n  /**\r\n   * @dev update withdraw portion parameter\r\n   * @param _withdrawPortion the new withdraw portion parameter\r\n   */\r\n  function setwithdrawPortion(uint256 _withdrawPortion) external onlyOwner {\r\n    withdrawPortion = _withdrawPortion;\r\n  }\r\n}\r\n",
  "sourcePath": "D:/Lending-Development/Lending/contracts/distribution/EscrowAlpha.sol",
  "compiler": {
    "name": "solc",
    "version": "0.6.11+commit.5ef660b1.Emscripten.clang"
  },
  "schemaVersion": "3.2.5",
  "updatedAt": "2020-11-03T00:52:35.762Z",
  "devdoc": {
    "author": "Alpha Implements Alpha escrow contract. Whenever you withdraw, you pay withdraw premium to other existing users who have not withdrawn yet.",
    "events": {
      "AlphaTokenAccumulated(address,uint256,uint256)": {
        "details": "emitted on accumulate Alpha token",
        "params": {
          "amount": "the amount of Alpha token to accumulate",
          "share": "the shrare that the user receives",
          "user": "the account of user"
        }
      },
      "AlphaTokenWithdrawn(address,uint256,uint256)": {
        "details": "emitted on withdraw Alpha token",
        "params": {
          "amount": "the amount of Alpha token that the user receives",
          "share": "the shrare that the user burns",
          "user": "the account of user"
        }
      }
    },
    "kind": "dev",
    "methods": {
      "accumulateAlphaToUser(address,uint256)": {
        "details": "accumulate Alpha token to user",
        "params": {
          "_amount": "the amount of Alpha token to accumulate",
          "_user": "the user account address"
        }
      },
      "claim(uint256)": {
        "details": "claim Alpha token by burning shares (get less because of withdraw premium)",
        "params": {
          "_share": "the number of shares to burn and claim Alpha"
        }
      },
      "owner()": {
        "details": "Returns the address of the current owner."
      },
      "recover(uint256)": {
        "details": "recover left-over Alpha token. Must only be called from owner",
        "params": {
          "_amount": "the number of Alpha token to withdraw"
        }
      },
      "renounceOwnership()": {
        "details": "Leaves the contract without owner. It will not be possible to call `onlyOwner` functions anymore. Can only be called by the current owner. NOTE: Renouncing ownership will leave the contract without an owner, thereby removing any functionality that is only available to the owner."
      },
      "setwithdrawPortion(uint256)": {
        "details": "update withdraw portion parameter",
        "params": {
          "_withdrawPortion": "the new withdraw portion parameter"
        }
      },
      "transferOwnership(address)": {
        "details": "Transfers ownership of the contract to a new account (`newOwner`). Can only be called by the current owner."
      }
    },
    "title": "Alpha escrow contract.",
    "version": 1
  },
  "userdoc": {
    "kind": "user",
    "methods": {},
    "version": 1
  }
}