{
  "contractName": "LendingPool",
  "abi": [
    {
      "inputs": [
        {
          "internalType": "contract AlTokenDeployer",
          "name": "_alTokenDeployer",
          "type": "address"
        }
      ],
      "stateMutability": "nonpayable",
      "type": "constructor"
    },
    {
      "anonymous": false,
      "inputs": [
        {
          "indexed": true,
          "internalType": "address",
          "name": "pool",
          "type": "address"
        },
        {
          "indexed": true,
          "internalType": "address",
          "name": "user",
          "type": "address"
        },
        {
          "indexed": false,
          "internalType": "uint256",
          "name": "borrowShares",
          "type": "uint256"
        },
        {
          "indexed": false,
          "internalType": "uint256",
          "name": "borrowAmount",
          "type": "uint256"
        }
      ],
      "name": "Borrow",
      "type": "event"
    },
    {
      "anonymous": false,
      "inputs": [
        {
          "indexed": true,
          "internalType": "address",
          "name": "pool",
          "type": "address"
        },
        {
          "indexed": true,
          "internalType": "address",
          "name": "user",
          "type": "address"
        },
        {
          "indexed": false,
          "internalType": "uint256",
          "name": "depositShares",
          "type": "uint256"
        },
        {
          "indexed": false,
          "internalType": "uint256",
          "name": "depositAmount",
          "type": "uint256"
        }
      ],
      "name": "Deposit",
      "type": "event"
    },
    {
      "anonymous": false,
      "inputs": [
        {
          "indexed": true,
          "internalType": "address",
          "name": "user",
          "type": "address"
        },
        {
          "indexed": false,
          "internalType": "address",
          "name": "pool",
          "type": "address"
        },
        {
          "indexed": false,
          "internalType": "address",
          "name": "collateral",
          "type": "address"
        },
        {
          "indexed": false,
          "internalType": "uint256",
          "name": "liquidateAmount",
          "type": "uint256"
        },
        {
          "indexed": false,
          "internalType": "uint256",
          "name": "liquidateShares",
          "type": "uint256"
        },
        {
          "indexed": false,
          "internalType": "uint256",
          "name": "collateralAmount",
          "type": "uint256"
        },
        {
          "indexed": false,
          "internalType": "uint256",
          "name": "collateralShares",
          "type": "uint256"
        },
        {
          "indexed": false,
          "internalType": "address",
          "name": "liquidator",
          "type": "address"
        }
      ],
      "name": "Liquidate",
      "type": "event"
    },
    {
      "anonymous": false,
      "inputs": [
        {
          "indexed": true,
          "internalType": "address",
          "name": "previousOwner",
          "type": "address"
        },
        {
          "indexed": true,
          "internalType": "address",
          "name": "newOwner",
          "type": "address"
        }
      ],
      "name": "OwnershipTransferred",
      "type": "event"
    },
    {
      "anonymous": false,
      "inputs": [
        {
          "indexed": true,
          "internalType": "address",
          "name": "pool",
          "type": "address"
        },
        {
          "indexed": false,
          "internalType": "address",
          "name": "poolConfigAddress",
          "type": "address"
        }
      ],
      "name": "PoolConfigUpdated",
      "type": "event"
    },
    {
      "anonymous": false,
      "inputs": [
        {
          "indexed": true,
          "internalType": "address",
          "name": "pool",
          "type": "address"
        },
        {
          "indexed": true,
          "internalType": "address",
          "name": "alTokenAddress",
          "type": "address"
        },
        {
          "indexed": true,
          "internalType": "address",
          "name": "poolConfigAddress",
          "type": "address"
        }
      ],
      "name": "PoolInitialized",
      "type": "event"
    },
    {
      "anonymous": false,
      "inputs": [
        {
          "indexed": true,
          "internalType": "address",
          "name": "pool",
          "type": "address"
        },
        {
          "indexed": false,
          "internalType": "uint256",
          "name": "cumulativeBorrowInterest",
          "type": "uint256"
        },
        {
          "indexed": false,
          "internalType": "uint256",
          "name": "totalBorrows",
          "type": "uint256"
        }
      ],
      "name": "PoolInterestUpdated",
      "type": "event"
    },
    {
      "anonymous": false,
      "inputs": [
        {
          "indexed": true,
          "internalType": "address",
          "name": "priceOracleAddress",
          "type": "address"
        }
      ],
      "name": "PoolPriceOracleUpdated",
      "type": "event"
    },
    {
      "anonymous": false,
      "inputs": [
        {
          "indexed": true,
          "internalType": "address",
          "name": "pool",
          "type": "address"
        },
        {
          "indexed": true,
          "internalType": "address",
          "name": "user",
          "type": "address"
        },
        {
          "indexed": false,
          "internalType": "uint256",
          "name": "repayShares",
          "type": "uint256"
        },
        {
          "indexed": false,
          "internalType": "uint256",
          "name": "repayAmount",
          "type": "uint256"
        }
      ],
      "name": "Repay",
      "type": "event"
    },
    {
      "anonymous": false,
      "inputs": [
        {
          "indexed": false,
          "internalType": "uint256",
          "name": "previousReservePercent",
          "type": "uint256"
        },
        {
          "indexed": false,
          "internalType": "uint256",
          "name": "newReservePercent",
          "type": "uint256"
        }
      ],
      "name": "ReservePercentUpdated",
      "type": "event"
    },
    {
      "anonymous": false,
      "inputs": [
        {
          "indexed": true,
          "internalType": "address",
          "name": "pool",
          "type": "address"
        },
        {
          "indexed": false,
          "internalType": "uint256",
          "name": "amount",
          "type": "uint256"
        },
        {
          "indexed": false,
          "internalType": "address",
          "name": "withdrawer",
          "type": "address"
        }
      ],
      "name": "ReserveWithdrawn",
      "type": "event"
    },
    {
      "anonymous": false,
      "inputs": [
        {
          "indexed": true,
          "internalType": "address",
          "name": "pool",
          "type": "address"
        },
        {
          "indexed": true,
          "internalType": "address",
          "name": "user",
          "type": "address"
        },
        {
          "indexed": false,
          "internalType": "uint256",
          "name": "withdrawShares",
          "type": "uint256"
        },
        {
          "indexed": false,
          "internalType": "uint256",
          "name": "withdrawAmount",
          "type": "uint256"
        }
      ],
      "name": "Withdraw",
      "type": "event"
    },
    {
      "inputs": [],
      "name": "CLOSE_FACTOR",
      "outputs": [
        {
          "internalType": "uint256",
          "name": "",
          "type": "uint256"
        }
      ],
      "stateMutability": "view",
      "type": "function"
    },
    {
      "inputs": [],
      "name": "EQUILIBRIUM",
      "outputs": [
        {
          "internalType": "uint256",
          "name": "",
          "type": "uint256"
        }
      ],
      "stateMutability": "view",
      "type": "function"
    },
    {
      "inputs": [],
      "name": "MAX_UTILIZATION_RATE",
      "outputs": [
        {
          "internalType": "uint256",
          "name": "",
          "type": "uint256"
        }
      ],
      "stateMutability": "view",
      "type": "function"
    },
    {
      "inputs": [],
      "name": "alTokenDeployer",
      "outputs": [
        {
          "internalType": "contract AlTokenDeployer",
          "name": "",
          "type": "address"
        }
      ],
      "stateMutability": "view",
      "type": "function"
    },
    {
      "inputs": [],
      "name": "distributor",
      "outputs": [
        {
          "internalType": "contract IAlphaDistributor",
          "name": "",
          "type": "address"
        }
      ],
      "stateMutability": "view",
      "type": "function"
    },
    {
      "inputs": [],
      "name": "owner",
      "outputs": [
        {
          "internalType": "address",
          "name": "",
          "type": "address"
        }
      ],
      "stateMutability": "view",
      "type": "function"
    },
    {
      "inputs": [
        {
          "internalType": "address",
          "name": "",
          "type": "address"
        }
      ],
      "name": "pools",
      "outputs": [
        {
          "internalType": "enum LendingPool.PoolStatus",
          "name": "status",
          "type": "uint8"
        },
        {
          "internalType": "contract AlToken",
          "name": "alToken",
          "type": "address"
        },
        {
          "internalType": "contract IPoolConfiguration",
          "name": "poolConfig",
          "type": "address"
        },
        {
          "internalType": "uint256",
          "name": "totalBorrows",
          "type": "uint256"
        },
        {
          "internalType": "uint256",
          "name": "totalBorrowShares",
          "type": "uint256"
        },
        {
          "internalType": "uint256",
          "name": "poolReserves",
          "type": "uint256"
        },
        {
          "internalType": "uint256",
          "name": "lastUpdateTimestamp",
          "type": "uint256"
        },
        {
          "internalType": "uint256",
          "name": "totalAlphaTokenReward",
          "type": "uint256"
        },
        {
          "internalType": "uint256",
          "name": "alphaMultiplier",
          "type": "uint256"
        }
      ],
      "stateMutability": "view",
      "type": "function"
    },
    {
      "inputs": [],
      "name": "renounceOwnership",
      "outputs": [],
      "stateMutability": "nonpayable",
      "type": "function"
    },
    {
      "inputs": [],
      "name": "reservePercent",
      "outputs": [
        {
          "internalType": "uint256",
          "name": "",
          "type": "uint256"
        }
      ],
      "stateMutability": "view",
      "type": "function"
    },
    {
      "inputs": [
        {
          "internalType": "uint256",
          "name": "",
          "type": "uint256"
        }
      ],
      "name": "tokenList",
      "outputs": [
        {
          "internalType": "contract ERC20",
          "name": "",
          "type": "address"
        }
      ],
      "stateMutability": "view",
      "type": "function"
    },
    {
      "inputs": [
        {
          "internalType": "address",
          "name": "newOwner",
          "type": "address"
        }
      ],
      "name": "transferOwnership",
      "outputs": [],
      "stateMutability": "nonpayable",
      "type": "function"
    },
    {
      "inputs": [
        {
          "internalType": "address",
          "name": "",
          "type": "address"
        },
        {
          "internalType": "address",
          "name": "",
          "type": "address"
        }
      ],
      "name": "userPoolData",
      "outputs": [
        {
          "internalType": "bool",
          "name": "disableUseAsCollateral",
          "type": "bool"
        },
        {
          "internalType": "uint256",
          "name": "borrowShares",
          "type": "uint256"
        },
        {
          "internalType": "uint256",
          "name": "latestAlphaMultiplier",
          "type": "uint256"
        }
      ],
      "stateMutability": "view",
      "type": "function"
    },
    {
      "inputs": [],
      "name": "vestingAlpha",
      "outputs": [
        {
          "internalType": "contract IVestingAlpha",
          "name": "",
          "type": "address"
        }
      ],
      "stateMutability": "view",
      "type": "function"
    },
    {
      "inputs": [
        {
          "internalType": "contract ERC20",
          "name": "_token",
          "type": "address"
        },
        {
          "internalType": "contract IPoolConfiguration",
          "name": "_poolConfig",
          "type": "address"
        }
      ],
      "name": "initPool",
      "outputs": [],
      "stateMutability": "nonpayable",
      "type": "function"
    },
    {
      "inputs": [
        {
          "internalType": "contract ERC20",
          "name": "_token",
          "type": "address"
        },
        {
          "internalType": "contract IPoolConfiguration",
          "name": "_poolConfig",
          "type": "address"
        }
      ],
      "name": "setPoolConfig",
      "outputs": [],
      "stateMutability": "nonpayable",
      "type": "function"
    },
    {
      "inputs": [
        {
          "internalType": "contract ERC20",
          "name": "_token",
          "type": "address"
        },
        {
          "internalType": "enum LendingPool.PoolStatus",
          "name": "_status",
          "type": "uint8"
        }
      ],
      "name": "setPoolStatus",
      "outputs": [],
      "stateMutability": "nonpayable",
      "type": "function"
    },
    {
      "inputs": [
        {
          "internalType": "contract ERC20",
          "name": "_token",
          "type": "address"
        },
        {
          "internalType": "bool",
          "name": "_useAsCollateral",
          "type": "bool"
        }
      ],
      "name": "setUserUseAsCollateral",
      "outputs": [],
      "stateMutability": "nonpayable",
      "type": "function"
    },
    {
      "inputs": [
        {
          "internalType": "contract IPriceOracle",
          "name": "_oracle",
          "type": "address"
        }
      ],
      "name": "setPriceOracle",
      "outputs": [],
      "stateMutability": "nonpayable",
      "type": "function"
    },
    {
      "inputs": [
        {
          "internalType": "contract ERC20",
          "name": "_token",
          "type": "address"
        }
      ],
      "name": "getPool",
      "outputs": [
        {
          "internalType": "enum LendingPool.PoolStatus",
          "name": "status",
          "type": "uint8"
        },
        {
          "internalType": "address",
          "name": "alTokenAddress",
          "type": "address"
        },
        {
          "internalType": "address",
          "name": "poolConfigAddress",
          "type": "address"
        },
        {
          "internalType": "uint256",
          "name": "totalBorrows",
          "type": "uint256"
        },
        {
          "internalType": "uint256",
          "name": "totalBorrowShares",
          "type": "uint256"
        },
        {
          "internalType": "uint256",
          "name": "totalLiquidity",
          "type": "uint256"
        },
        {
          "internalType": "uint256",
          "name": "totalAvailableLiquidity",
          "type": "uint256"
        },
        {
          "internalType": "uint256",
          "name": "lastUpdateTimestamp",
          "type": "uint256"
        }
      ],
      "stateMutability": "view",
      "type": "function"
    },
    {
      "inputs": [
        {
          "internalType": "address",
          "name": "_user",
          "type": "address"
        },
        {
          "internalType": "contract ERC20",
          "name": "_token",
          "type": "address"
        }
      ],
      "name": "getUserPoolData",
      "outputs": [
        {
          "internalType": "uint256",
          "name": "compoundedLiquidityBalance",
          "type": "uint256"
        },
        {
          "internalType": "uint256",
          "name": "compoundedBorrowBalance",
          "type": "uint256"
        },
        {
          "internalType": "bool",
          "name": "userUsePoolAsCollateral",
          "type": "bool"
        }
      ],
      "stateMutability": "view",
      "type": "function"
    },
    {
      "inputs": [
        {
          "internalType": "address",
          "name": "_user",
          "type": "address"
        },
        {
          "internalType": "contract ERC20",
          "name": "_token",
          "type": "address"
        }
      ],
      "name": "getUserCompoundedBorrowBalance",
      "outputs": [
        {
          "internalType": "uint256",
          "name": "",
          "type": "uint256"
        }
      ],
      "stateMutability": "view",
      "type": "function"
    },
    {
      "inputs": [
        {
          "internalType": "address",
          "name": "_user",
          "type": "address"
        },
        {
          "internalType": "contract ERC20",
          "name": "_token",
          "type": "address"
        }
      ],
      "name": "getUserCompoundedLiquidityBalance",
      "outputs": [
        {
          "internalType": "uint256",
          "name": "",
          "type": "uint256"
        }
      ],
      "stateMutability": "view",
      "type": "function"
    },
    {
      "inputs": [
        {
          "internalType": "contract ERC20",
          "name": "_token",
          "type": "address"
        }
      ],
      "name": "getTotalAvailableLiquidity",
      "outputs": [
        {
          "internalType": "uint256",
          "name": "",
          "type": "uint256"
        }
      ],
      "stateMutability": "view",
      "type": "function"
    },
    {
      "inputs": [
        {
          "internalType": "contract ERC20",
          "name": "_token",
          "type": "address"
        }
      ],
      "name": "getTotalLiquidity",
      "outputs": [
        {
          "internalType": "uint256",
          "name": "",
          "type": "uint256"
        }
      ],
      "stateMutability": "view",
      "type": "function"
    },
    {
      "inputs": [
        {
          "internalType": "address",
          "name": "_user",
          "type": "address"
        }
      ],
      "name": "isAccountHealthy",
      "outputs": [
        {
          "internalType": "bool",
          "name": "",
          "type": "bool"
        }
      ],
      "stateMutability": "view",
      "type": "function"
    },
    {
      "inputs": [
        {
          "internalType": "address",
          "name": "_user",
          "type": "address"
        }
      ],
      "name": "getUserAccount",
      "outputs": [
        {
          "internalType": "uint256",
          "name": "totalLiquidityBalanceBase",
          "type": "uint256"
        },
        {
          "internalType": "uint256",
          "name": "totalCollateralBalanceBase",
          "type": "uint256"
        },
        {
          "internalType": "uint256",
          "name": "totalBorrowBalanceBase",
          "type": "uint256"
        }
      ],
      "stateMutability": "view",
      "type": "function"
    },
    {
      "inputs": [
        {
          "internalType": "contract ERC20",
          "name": "_token",
          "type": "address"
        }
      ],
      "name": "totalBorrowInUSD",
      "outputs": [
        {
          "internalType": "uint256",
          "name": "",
          "type": "uint256"
        }
      ],
      "stateMutability": "view",
      "type": "function"
    },
    {
      "inputs": [
        {
          "internalType": "contract ERC20",
          "name": "_token",
          "type": "address"
        },
        {
          "internalType": "uint256",
          "name": "_amount",
          "type": "uint256"
        }
      ],
      "name": "deposit",
      "outputs": [],
      "stateMutability": "nonpayable",
      "type": "function"
    },
    {
      "inputs": [
        {
          "internalType": "contract ERC20",
          "name": "_token",
          "type": "address"
        },
        {
          "internalType": "uint256",
          "name": "_amount",
          "type": "uint256"
        }
      ],
      "name": "borrow",
      "outputs": [],
      "stateMutability": "nonpayable",
      "type": "function"
    },
    {
      "inputs": [
        {
          "internalType": "contract ERC20",
          "name": "_token",
          "type": "address"
        },
        {
          "internalType": "uint256",
          "name": "_amount",
          "type": "uint256"
        }
      ],
      "name": "repayByAmount",
      "outputs": [],
      "stateMutability": "nonpayable",
      "type": "function"
    },
    {
      "inputs": [
        {
          "internalType": "contract ERC20",
          "name": "_token",
          "type": "address"
        },
        {
          "internalType": "uint256",
          "name": "_share",
          "type": "uint256"
        }
      ],
      "name": "repayByShare",
      "outputs": [],
      "stateMutability": "nonpayable",
      "type": "function"
    },
    {
      "inputs": [
        {
          "internalType": "contract ERC20",
          "name": "_token",
          "type": "address"
        },
        {
          "internalType": "uint256",
          "name": "_share",
          "type": "uint256"
        }
      ],
      "name": "withdraw",
      "outputs": [],
      "stateMutability": "nonpayable",
      "type": "function"
    },
    {
      "inputs": [
        {
          "internalType": "address",
          "name": "_user",
          "type": "address"
        },
        {
          "internalType": "contract ERC20",
          "name": "_token",
          "type": "address"
        },
        {
          "internalType": "uint256",
          "name": "_liquidateShares",
          "type": "uint256"
        },
        {
          "internalType": "contract ERC20",
          "name": "_collateral",
          "type": "address"
        }
      ],
      "name": "liquidate",
      "outputs": [],
      "stateMutability": "nonpayable",
      "type": "function"
    },
    {
      "inputs": [
        {
          "internalType": "uint256",
          "name": "_reservePercent",
          "type": "uint256"
        }
      ],
      "name": "setReservePercent",
      "outputs": [],
      "stateMutability": "nonpayable",
      "type": "function"
    },
    {
      "inputs": [
        {
          "internalType": "contract ERC20",
          "name": "_token",
          "type": "address"
        },
        {
          "internalType": "uint256",
          "name": "_amount",
          "type": "uint256"
        }
      ],
      "name": "withdrawReserve",
      "outputs": [],
      "stateMutability": "nonpayable",
      "type": "function"
    },
    {
      "inputs": [
        {
          "internalType": "contract IAlphaDistributor",
          "name": "_distributor",
          "type": "address"
        }
      ],
      "name": "setDistributor",
      "outputs": [],
      "stateMutability": "nonpayable",
      "type": "function"
    },
    {
      "inputs": [
        {
          "internalType": "contract IVestingAlpha",
          "name": "_vestingAlpha",
          "type": "address"
        }
      ],
      "name": "setVestingAlpha",
      "outputs": [],
      "stateMutability": "nonpayable",
      "type": "function"
    },
    {
      "inputs": [
        {
          "internalType": "uint256",
          "name": "_amount",
          "type": "uint256"
        }
      ],
      "name": "receiveAlpha",
      "outputs": [],
      "stateMutability": "nonpayable",
      "type": "function"
    },
    {
      "inputs": [],
      "name": "claimAlpha",
      "outputs": [],
      "stateMutability": "nonpayable",
      "type": "function"
    },
    {
      "inputs": [
        {
          "internalType": "contract ERC20",
          "name": "_token",
          "type": "address"
        },
        {
          "internalType": "address",
          "name": "_account",
          "type": "address"
        }
      ],
      "name": "calculateAlphaReward",
      "outputs": [
        {
          "internalType": "uint256",
          "name": "",
          "type": "uint256"
        }
      ],
      "stateMutability": "view",
      "type": "function"
    }
  ],
  "bytecode": "0x608060405266b1a2bc2ec500006009553480156200001c57600080fd5b506040516200588f3803806200588f833981810160405260208110156200004257600080fd5b50516000620000596001600160e01b03620000cd16565b600080546001600160a01b0319166001600160a01b0383169081178255604051929350917f8be0079c531659141344cd1fd0a4f28419497f9722a3daafe3b4186f6b6457e0908290a35060018055600780546001600160a01b0319166001600160a01b0392909216919091179055620000d1565b3390565b6157ae80620000e16000396000f3fe608060405234801561001057600080fd5b50600436106102485760003560e01c80637508f5781161013b578063bfe10928116100b8578063e57003881161007c578063e5700388146107f3578063f2fde38b14610841578063f3fef3a314610867578063f8c7746314610893578063fb47e0161461089b57610248565b8063bfe109281461077e578063c2ec0dca14610786578063d42d4b97146107b5578063d6847e9f146107bd578063dca525cd146107c557610248565b80639de8ef79116100ff5780639de8ef79146105f75780639ead72221461061d578063a4063dbc1461063a578063a4bae008146106c9578063bbe4f6db146106f557610248565b80637508f5781461057557806375619ab51461057d578063765bb092146105a35780638be14f68146105c95780638da5cb5b146105ef57610248565b80633de2f6b2116101c95780634b8a35291161018d5780634b8a3529146104ef5780634dab4dc014610323578063530e784f1461051b5780635dd34bc614610541578063715018a61461056d57610248565b80633de2f6b2146103e55780633f395c0214610421578063451e81de1461044f57806347e7ef2414610475578063491db4a2146104a157610248565b80631ead8c00116102105780631ead8c00146103235780631f88d54c1461032b5780632a8c61d2146103595780632f02d91f1461037d57806336481862146103ab57610248565b806309d868931461024d5780630ceab4f71461026c578063181428ae146102895780631936b278146102c95780631c58ce14146102f7575b600080fd5b61026a6004803603602081101561026357600080fd5b50356108df565b005b61026a6004803603602081101561028257600080fd5b503561097e565b6102b76004803603604081101561029f57600080fd5b506001600160a01b0381358116916020013516610e37565b60408051918252519081900360200190f35b61026a600480360360408110156102df57600080fd5b506001600160a01b0381358116916020013516610edf565b61026a6004803603604081101561030d57600080fd5b506001600160a01b038135169060200135610ff3565b6102b7611388565b61026a6004803603604081101561034157600080fd5b506001600160a01b0381351690602001351515611394565b610361611410565b604080516001600160a01b039092168252519081900360200190f35b6102b76004803603604081101561039357600080fd5b506001600160a01b038135811691602001351661141f565b6103d1600480360360208110156103c157600080fd5b50356001600160a01b031661145c565b604080519115158252519081900360200190f35b61026a600480360360808110156103fb57600080fd5b506001600160a01b03813581169160208101358216916040820135916060013516611475565b61026a6004803603604081101561043757600080fd5b506001600160a01b03813581169160200135166117c9565b6102b76004803603602081101561046557600080fd5b50356001600160a01b0316611ed5565b61026a6004803603604081101561048b57600080fd5b506001600160a01b038135169060200135612037565b6104cf600480360360408110156104b757600080fd5b506001600160a01b03813581169160200135166123d8565b604080519384526020840192909252151582820152519081900360600190f35b61026a6004803603604081101561050557600080fd5b506001600160a01b03813516906020013561242b565b61026a6004803603602081101561053157600080fd5b50356001600160a01b031661286b565b61026a6004803603604081101561055757600080fd5b506001600160a01b03813516906020013561290d565b61026a612b2f565b61026a612bd1565b61026a6004803603602081101561059357600080fd5b50356001600160a01b0316612d77565b61026a600480360360208110156105b957600080fd5b50356001600160a01b0316612df1565b6102b7600480360360208110156105df57600080fd5b50356001600160a01b0316612e6b565b610361612ee7565b6102b76004803603602081101561060d57600080fd5b50356001600160a01b0316612ef6565b6103616004803603602081101561063357600080fd5b5035612f40565b6106606004803603602081101561065057600080fd5b50356001600160a01b0316612f67565b604051808a600281111561067057fe5b60ff1681526001600160a01b03998a166020820152979098166040808901919091526060880196909652608087019490945260a086019290925260c085015260e084015261010083015251908190036101200192509050f35b61026a600480360360408110156106df57600080fd5b506001600160a01b038135169060200135612fba565b61071b6004803603602081101561070b57600080fd5b50356001600160a01b03166131cd565b6040518089600281111561072b57fe5b60ff1681526001600160a01b039889166020820152969097166040808801919091526060870195909552608086019390935260a085019190915260c084015260e083015251908190036101000192509050f35b610361613242565b61026a6004803603604081101561079c57600080fd5b5080356001600160a01b0316906020013560ff16613251565b6103616132eb565b6102b76132fa565b6102b7600480360360408110156107db57600080fd5b506001600160a01b0381358116916020013516613306565b6108216004803603604081101561080957600080fd5b506001600160a01b038135811691602001351661339b565b604080519315158452602084019290925282820152519081900360600190f35b61026a6004803603602081101561085757600080fd5b50356001600160a01b03166133cb565b61026a6004803603604081101561087d57600080fd5b506001600160a01b0381351690602001356134c3565b6102b761396a565b6108c1600480360360208110156108b157600080fd5b50356001600160a01b0316613970565b60408051938452602084019290925282820152519081900360600190f35b6108e7613bb7565b6000546001600160a01b03908116911614610937576040805162461bcd60e51b8152602060048201819052602482015260008051602061567b833981519152604482015290519081900360640190fd5b6009805490829055604080518281526020810184905281517ffe278307c5e8b0fc32ce630cdcf1b87f070bd9cb6c402843da6db1b4d40ee882929181900390910190a15050565b6006546001600160a01b031633146109c75760405162461bcd60e51b81526004018080602001828103825260278152602001806155ed6027913960400191505060405180910390fd5b60045460609067ffffffffffffffff811180156109e357600080fd5b50604051908082528060200260200182016040528015610a0d578160200160208202803683370190505b5090506000805b600454811015610add5760016002600060048481548110610a3157fe5b60009182526020808320909101546001600160a01b0316835282019290925260400190205460ff166002811115610a6457fe5b1415610ad557610a9460048281548110610a7a57fe5b6000918252602090912001546001600160a01b0316611ed5565b838281518110610aa057fe5b602002602001018181525050610ad2838281518110610abb57fe5b602002602001015183613bbb90919063ffffffff16565b91505b600101610a14565b5080610aea575050610e34565b600660009054906101000a90046001600160a01b03166001600160a01b03166370b4c9e06040518163ffffffff1660e01b815260040160206040518083038186803b158015610b3857600080fd5b505afa158015610b4c573d6000803e3d6000fd5b505050506040513d6020811015610b6257600080fd5b5051604080516323b872dd60e01b81523360048201523060248201526044810186905290516001600160a01b03909216916323b872dd916064808201926020929091908290030181600087803b158015610bbb57600080fd5b505af1158015610bcf573d6000803e3d6000fd5b505050506040513d6020811015610be557600080fd5b50600090505b8251811015610e305760006002600060048481548110610c0757fe5b60009182526020808320909101546001600160a01b03168352820192909252604001902090506001815460ff166002811115610c3f57fe5b1415610e27576000610c7d84610c71878681518110610c5a57fe5b602002602001015189613c1590919063ffffffff16565b9063ffffffff613c6e16565b9050600080610cad60048681548110610c9257fe5b6000918252602090912001546001600160a01b031684613cb0565b91509150600660009054906101000a90046001600160a01b03166001600160a01b03166370b4c9e06040518163ffffffff1660e01b815260040160206040518083038186803b158015610cff57600080fd5b505afa158015610d13573d6000803e3d6000fd5b505050506040513d6020811015610d2957600080fd5b505184546040805163095ea7b360e01b81526101009092046001600160a01b03908116600484015260248301869052905192169163095ea7b3916044808201926020929091908290030181600087803b158015610d8557600080fd5b505af1158015610d99573d6000803e3d6000fd5b505050506040513d6020811015610daf57600080fd5b5050835460408051630ceab4f760e01b81526004810185905290516101009092046001600160a01b031691630ceab4f79160248082019260009290919082900301818387803b158015610e0157600080fd5b505af1158015610e15573d6000803e3d6000fd5b50505050610e238482613eb9565b5050505b50600101610beb565b5050505b50565b6001600160a01b038082166000908152600260209081526040808320805482516370a0823160e01b815288871660048201529251949591948694610100909204909216926370a082319260248083019392829003018186803b158015610e9c57600080fd5b505afa158015610eb0573d6000803e3d6000fd5b505050506040513d6020811015610ec657600080fd5b50519050610ed48482613f1e565b925050505b92915050565b610ee7613bb7565b6000546001600160a01b03908116911614610f37576040805162461bcd60e51b8152602060048201819052602482015260008051602061567b833981519152604482015290519081900360640190fd5b6001600160a01b0380831660009081526002602052604090208054909161010090910416610f965760405162461bcd60e51b81526004018080602001828103825260318152602001806157486031913960400191505060405180910390fd5b6001810180546001600160a01b038085166001600160a01b031990921682179092556040805191825251918516917fed7692d7eac8e25ca74b0bcb7b52fe51d01a8910e8e320c6f3223365708d76de9181900360200190a2505050565b60026001541415611039576040805162461bcd60e51b815260206004820152601f6024820152600080516020615492833981519152604482015290519081900360640190fd5b600260018181556001600160a01b038085166000908152602084905260408120928301549383015486949192919091169063a57967859061107986612ef6565b6040518363ffffffff1660e01b8152600401808381526020018281526020019250505060206040518083038186803b1580156110b457600080fd5b505afa1580156110c8573d6000803e3d6000fd5b505050506040513d60208110156110de57600080fd5b505160058301549091506000906110f790839042613fd6565b600284015490915061110f828263ffffffff61400b16565b6002850181905560095461114f9161113e9190611132908563ffffffff61402916565b9063ffffffff61400b16565b60048601549063ffffffff613bbb16565b6004850155426005850155600284015460408051848152602081019290925280516001600160a01b0388169260008051602061558383398151915292908290030190a261119a613bb7565b6000546001600160a01b039081169116146111ea576040805162461bcd60e51b8152602060048201819052602482015260008051602061567b833981519152604482015290519081900360640190fd5b6001600160a01b038716600081815260026020908152604080832081516370a0823160e01b815230600482015291519094926370a082319260248082019391829003018186803b15801561123d57600080fd5b505afa158015611251573d6000803e3d6000fd5b505050506040513d602081101561126757600080fd5b50519050808811156112c0576040805162461bcd60e51b815260206004820152601960248201527f706f6f6c2062616c616e636520696e73756666696369656e7400000000000000604482015290519081900360640190fd5b81600401548811156113035760405162461bcd60e51b81526004018080602001828103825260218152602001806155626021913960400191505060405180910390fd5b61131d6001600160a01b038a16338a63ffffffff61406b16565b6004820154611332908963ffffffff61402916565b60048301556040805189815233602082015281516001600160a01b038c16927f45aa7b36f21ca112624482ccb81aa7f14fce95aa02b837702dffcd019717532b928290030190a250506001805550505050505050565b6706f05b59d3b2000081565b3360009081526003602090815260408083206001600160a01b03861684529091529020805460ff191682151781558161140b576113d03361145c565b61140b5760405162461bcd60e51b81526004018080602001828103825260338152602001806155076033913960400191505060405180910390fd5b505050565b6008546001600160a01b031681565b6001600160a01b03808316600090815260036020908152604080832093851683529290529081206001015461145483826140bd565b949350505050565b600080600061146a84613970565b111595945050505050565b600260015414156114bb576040805162461bcd60e51b815260206004820152601f6024820152600080516020615492833981519152604482015290519081900360640190fd5b600260018181556001600160a01b038086166000908152602084905260408120928301549383015487949192919091169063a5796785906114fb86612ef6565b6040518363ffffffff1660e01b8152600401808381526020018281526020019250505060206040518083038186803b15801561153657600080fd5b505afa15801561154a573d6000803e3d6000fd5b505050506040513d602081101561156057600080fd5b5051600583015490915060009061157990839042613fd6565b6002840154909150611591828263ffffffff61400b16565b600285018190556009546115b49161113e9190611132908563ffffffff61402916565b6004850155426005850155600284015460408051848152602081019290925280516001600160a01b0388169260008051602061558383398151915292908290030190a26001600160a01b03808716600090815260026020819052604082206001810154918101548a949193929091169063a57967859061163386612ef6565b6040518363ffffffff1660e01b8152600401808381526020018281526020019250505060206040518083038186803b15801561166e57600080fd5b505afa158015611682573d6000803e3d6000fd5b505050506040513d602081101561169857600080fd5b505160058301549091506000906116b190839042613fd6565b60028401549091506116c9828263ffffffff61400b16565b600285018190556009546116ec9161113e9190611132908563ffffffff61402916565b6004850155426005850155600284015460408051848152602081019290925280516001600160a01b0388169260008051602061558383398151915292908290030190a26006546001600160a01b0316156117a957600660009054906101000a90046001600160a01b03166001600160a01b031663181783586040518163ffffffff1660e01b8152600401600060405180830381600087803b15801561179057600080fd5b505af11580156117a4573d6000803e3d6000fd5b505050505b6117b58e8e8e8e614122565b505060018055505050505050505050505050565b6117d1613bb7565b6000546001600160a01b03908116911614611821576040805162461bcd60e51b8152602060048201819052602482015260008051602061567b833981519152604482015290519081900360640190fd5b60005b60045481101561189f57826001600160a01b03166004828154811061184557fe5b6000918252602090912001546001600160a01b031614156118975760405162461bcd60e51b815260040180806020018281038252602881526020018061553a6028913960400191505060405180910390fd5b600101611824565b506060826001600160a01b03166395d89b416040518163ffffffff1660e01b815260040160006040518083038186803b1580156118db57600080fd5b505afa1580156118ef573d6000803e3d6000fd5b505050506040513d6000823e601f3d908101601f19168201604052602081101561191857600080fd5b810190808051604051939291908464010000000082111561193857600080fd5b90830190602082018581111561194d57600080fd5b825164010000000081118282018810171561196757600080fd5b82525081516020918201929091019080838360005b8381101561199457818101518382015260200161197c565b50505050905090810190601f1680156119c15780820380516001836020036101000a031916815260200191505b50604052505050604051602001808061185b60f21b81525060020182805190602001908083835b60208310611a075780518252601f1990920191602091820191016119e8565b6001836020036101000a03801982511681845116808217855250505050505090500191505060405160208183030381529060405290506060836001600160a01b03166395d89b416040518163ffffffff1660e01b815260040160006040518083038186803b158015611a7857600080fd5b505afa158015611a8c573d6000803e3d6000fd5b505050506040513d6000823e601f3d908101601f191682016040526020811015611ab557600080fd5b8101908080516040519392919084640100000000821115611ad557600080fd5b908301906020820185811115611aea57600080fd5b8251640100000000811182820188101715611b0457600080fd5b82525081516020918201929091019080838360005b83811015611b31578181015183820152602001611b19565b50505050905090810190601f168015611b5e5780820380516001836020036101000a031916815260200191505b50604052505050604051602001808061105b60f21b81525060020182805190602001908083835b60208310611ba45780518252601f199092019160209182019101611b85565b51815160209384036101000a60001901801990921691161790526040805192909401828103601f190183529384905260075463e0b7be7b60e01b85526001600160a01b038b81166044870152606060048701908152845160648801528451949950600098509116955063e0b7be7b9488945089938c93839260248101926084909101918801908083838e5b83811015611c47578181015183820152602001611c2f565b50505050905090810190601f168015611c745780820380516001836020036101000a031916815260200191505b50838103825285518152855160209182019187019080838360005b83811015611ca7578181015183820152602001611c8f565b50505050905090810190601f168015611cd45780820380516001836020036101000a031916815260200191505b5095505050505050602060405180830381600087803b158015611cf657600080fd5b505af1158015611d0a573d6000803e3d6000fd5b505050506040513d6020811015611d2057600080fd5b50519050611d2c615432565b6040805161012081019091528060008152602001836001600160a01b03168152602001866001600160a01b0316815260200160008152602001600081526020016000815260200142815260200160008152602001600081525090508060026000886001600160a01b03166001600160a01b0316815260200190815260200160002060008201518160000160006101000a81548160ff02191690836002811115611dd157fe5b0217905550602082015181546001600160a01b03918216610100908102610100600160a81b0319909216919091178355604080850151600180860180549286166001600160a01b0319938416179055606087015160028701556080870151600387015560a087015160048088019190915560c0880151600588015560e0880151600688015593909601516007909501949094558154948501825560009182527f8a35acfbc15ff81a39ae7d344fd709f28e8600b4aa8c65c6b64bfe7fe36bd19b90940180548b841694168417905592518882169391861692917fb2684e1b8e116bbb42a14d7a6bc6afa19d85ff0a8666a6b424b79a738c661d8191a4505050505050565b6005546000906001600160a01b0316611f35576040805162461bcd60e51b815260206004820152601e60248201527f7072696365206f7261636c652069736e277420696e697469616c697a65640000604482015290519081900360640190fd5b6005546040805163b3596f0760e01b81526001600160a01b0385811660048301529151600093929092169163b3596f0791602480820192602092909190829003018186803b158015611f8657600080fd5b505afa158015611f9a573d6000803e3d6000fd5b505050506040513d6020811015611fb057600080fd5b5051905080612002576040805162461bcd60e51b81526020600482015260196024820152781d1bdad95b881c1c9a58d9481a5cdb89dd0818dbdc9c9958dd603a1b604482015290519081900360640190fd5b6001600160a01b0383166000908152600260208190526040909120015461203090829063ffffffff613c1516565b9392505050565b6002600154141561207d576040805162461bcd60e51b815260206004820152601f6024820152600080516020615492833981519152604482015290519081900360640190fd5b600260018181556001600160a01b038085166000908152602084905260408120928301549383015486949192919091169063a5796785906120bd86612ef6565b6040518363ffffffff1660e01b8152600401808381526020018281526020019250505060206040518083038186803b1580156120f857600080fd5b505afa15801561210c573d6000803e3d6000fd5b505050506040513d602081101561212257600080fd5b5051600583015490915060009061213b90839042613fd6565b6002840154909150612153828263ffffffff61400b16565b600285018190556009546121769161113e9190611132908563ffffffff61402916565b6004850155426005850155600284015460408051848152602081019290925280516001600160a01b0388169260008051602061558383398151915292908290030190a26006546001600160a01b03161561223357600660009054906101000a90046001600160a01b03166001600160a01b031663181783586040518163ffffffff1660e01b8152600401600060405180830381600087803b15801561221a57600080fd5b505af115801561222e573d6000803e3d6000fd5b505050505b6001600160a01b03871660009081526002602052604090206001815460ff16600281111561225d57fe5b146122af576040805162461bcd60e51b815260206004820152601a60248201527f63616e2774206465706f73697420746f207468697320706f6f6c000000000000604482015290519081900360640190fd5b600087116122ee5760405162461bcd60e51b81526004018080602001828103825260218152602001806156c66021913960400191505060405180910390fd5b60006122fa898961469f565b8254604080516340c10f1960e01b81523360048201526024810184905290519293506101009091046001600160a01b0316916340c10f199160448082019260009290919082900301818387803b15801561235357600080fd5b505af1158015612367573d6000803e3d6000fd5b50612381925050506001600160a01b038a1633308b614773565b60408051828152602081018a9052815133926001600160a01b038d16927fdcbc1c05240f31ff3ad067ef1ee35ce4997762752e3a095284754544f4c709d7929081900390910190a350506001805550505050505050565b60008060006123e78585610e37565b92506123f3858561141f565b6001600160a01b039586166000908152600360209081526040808320979098168252959095529490932054919460ff90921615925050565b60026001541415612471576040805162461bcd60e51b815260206004820152601f6024820152600080516020615492833981519152604482015290519081900360640190fd5b600260018181556001600160a01b038085166000908152602084905260408120928301549383015486949192919091169063a5796785906124b186612ef6565b6040518363ffffffff1660e01b8152600401808381526020018281526020019250505060206040518083038186803b1580156124ec57600080fd5b505afa158015612500573d6000803e3d6000fd5b505050506040513d602081101561251657600080fd5b5051600583015490915060009061252f90839042613fd6565b6002840154909150612547828263ffffffff61400b16565b6002850181905560095461256a9161113e9190611132908563ffffffff61402916565b6004850155426005850155600284015460408051848152602081019290925280516001600160a01b0388169260008051602061558383398151915292908290030190a26006546001600160a01b03161561262757600660009054906101000a90046001600160a01b03166001600160a01b031663181783586040518163ffffffff1660e01b8152600401600060405180830381600087803b15801561260e57600080fd5b505af1158015612622573d6000803e3d6000fd5b505050505b6001600160a01b0387166000818152600260209081526040808320338452600383528184209484529390915290206001825460ff16600281111561266757fe5b146126b2576040805162461bcd60e51b815260206004820152601660248201527518d85b89dd08189bdc9c9bddc81d1a1a5cc81c1bdbdb60521b604482015290519081900360640190fd5b60008811612707576040805162461bcd60e51b815260206004820181905260248201527f626f72726f7720616d6f756e742073686f756c64206d6f7265207468616e2030604482015290519081900360640190fd5b61271089612e6b565b88111561274e5760405162461bcd60e51b815260040180806020018281038252602f8152602001806154b2602f913960400191505060405180910390fd5b61275889336147cd565b60006127648a8a614856565b600284015490915061277c908a63ffffffff613bbb16565b60028401556003830154612796908263ffffffff613bbb16565b600384015560018201546127b0908263ffffffff613bbb16565b60018301556127cf6001600160a01b038b16338b63ffffffff61406b16565b6127d83361145c565b6128135760405162461bcd60e51b81526004018080602001828103825260248152602001806156146024913960400191505060405180910390fd5b60408051828152602081018b9052815133926001600160a01b038e16927fc1561b330e73faa7d5d1ac03c968d8f359b0191ccdb9cc002cf7d8eb6ae038cb929081900390910190a35050600180555050505050505050565b612873613bb7565b6000546001600160a01b039081169116146128c3576040805162461bcd60e51b8152602060048201819052602482015260008051602061567b833981519152604482015290519081900360640190fd5b600580546001600160a01b0319166001600160a01b0383169081179091556040517ffdf69db57057f7c0c39fd639d305bb42f470c89645f2237956d598cf279f330490600090a250565b60026001541415612953576040805162461bcd60e51b815260206004820152601f6024820152600080516020615492833981519152604482015290519081900360640190fd5b600260018181556001600160a01b038085166000908152602084905260408120928301549383015486949192919091169063a57967859061299386612ef6565b6040518363ffffffff1660e01b8152600401808381526020018281526020019250505060206040518083038186803b1580156129ce57600080fd5b505afa1580156129e2573d6000803e3d6000fd5b505050506040513d60208110156129f857600080fd5b50516005830154909150600090612a1190839042613fd6565b6002840154909150612a29828263ffffffff61400b16565b60028501819055600954612a4c9161113e9190611132908563ffffffff61402916565b6004850155426005850155600284015460408051848152602081019290925280516001600160a01b0388169260008051602061558383398151915292908290030190a26006546001600160a01b031615612b0957600660009054906101000a90046001600160a01b03166001600160a01b031663181783586040518163ffffffff1660e01b8152600401600060405180830381600087803b158015612af057600080fd5b505af1158015612b04573d6000803e3d6000fd5b505050505b6000612b1588886148af565b9050612b2188826148f9565b505060018055505050505050565b612b37613bb7565b6000546001600160a01b03908116911614612b87576040805162461bcd60e51b8152602060048201819052602482015260008051602061567b833981519152604482015290519081900360640190fd5b600080546040516001600160a01b03909116907f8be0079c531659141344cd1fd0a4f28419497f9722a3daafe3b4186f6b6457e0908390a3600080546001600160a01b0319169055565b6006546001600160a01b031615612c4b57600660009054906101000a90046001600160a01b03166001600160a01b031663181783586040518163ffffffff1660e01b8152600401600060405180830381600087803b158015612c3257600080fd5b505af1158015612c46573d6000803e3d6000fd5b505050505b60026001541415612c91576040805162461bcd60e51b815260206004820152601f6024820152600080516020615492833981519152604482015290519081900360640190fd5b600260015560005b600454811015612d705760006002600060048481548110612cb657fe5b60009182526020808320909101546001600160a01b03908116845290830193909352604091820181208054835163247e99b160e11b815233600482015293519195506101009004909316926348fd336292602480820193929182900301818387803b158015612d2457600080fd5b505af1158015612d38573d6000803e3d6000fd5b50505050612d6760048381548110612d4c57fe5b6000918252602090912001546001600160a01b0316336147cd565b50600101612c99565b5060018055565b612d7f613bb7565b6000546001600160a01b03908116911614612dcf576040805162461bcd60e51b8152602060048201819052602482015260008051602061567b833981519152604482015290519081900360640190fd5b600680546001600160a01b0319166001600160a01b0392909216919091179055565b612df9613bb7565b6000546001600160a01b03908116911614612e49576040805162461bcd60e51b8152602060048201819052602482015260008051602061567b833981519152604482015290519081900360640190fd5b600880546001600160a01b0319166001600160a01b0392909216919091179055565b604080516370a0823160e01b815230600482015290516000916001600160a01b038416916370a0823191602480820192602092909190829003018186803b158015612eb557600080fd5b505afa158015612ec9573d6000803e3d6000fd5b505050506040513d6020811015612edf57600080fd5b505192915050565b6000546001600160a01b031690565b6001600160a01b0381166000908152600260205260408120600481015461203090612f34612f2386612e6b565b60028501549063ffffffff613bbb16565b9063ffffffff61402916565b60048181548110612f4d57fe5b6000918252602090912001546001600160a01b0316905081565b60026020819052600091825260409091208054600182015492820154600383015460048401546005850154600686015460079096015460ff8616976001600160a01b036101009097048716979616959089565b60026001541415613000576040805162461bcd60e51b815260206004820152601f6024820152600080516020615492833981519152604482015290519081900360640190fd5b600260018181556001600160a01b038085166000908152602084905260408120928301549383015486949192919091169063a57967859061304086612ef6565b6040518363ffffffff1660e01b8152600401808381526020018281526020019250505060206040518083038186803b15801561307b57600080fd5b505afa15801561308f573d6000803e3d6000fd5b505050506040513d60208110156130a557600080fd5b505160058301549091506000906130be90839042613fd6565b60028401549091506130d6828263ffffffff61400b16565b600285018190556009546130f99161113e9190611132908563ffffffff61402916565b6004850155426005850155600284015460408051848152602081019290925280516001600160a01b0388169260008051602061558383398151915292908290030190a26006546001600160a01b0316156131b657600660009054906101000a90046001600160a01b03166001600160a01b031663181783586040518163ffffffff1660e01b8152600401600060405180830381600087803b15801561319d57600080fd5b505af11580156131b1573d6000803e3d6000fd5b505050505b6131c087876148f9565b5050600180555050505050565b6001600160a01b0380821660009081526002602081905260408220805460018201549282015460038301549495610100909204821694939091169290918590819081906132198a612ef6565b93506132248a612e6b565b6005820154915460ff169b989a509698509496939592949293915050565b6006546001600160a01b031681565b613259613bb7565b6000546001600160a01b039081169116146132a9576040805162461bcd60e51b8152602060048201819052602482015260008051602061567b833981519152604482015290519081900360640190fd5b6001600160a01b0382166000908152600260208190526040909120805490918391839160ff199091169060019084908111156132e157fe5b0217905550505050565b6007546001600160a01b031681565b670de0b6b3a764000081565b6001600160a01b0380831660008181526002602081815260408084209587168452600382528084209484529390529181206001810154928101546007850154929493919285926133789264e8d4a5100092610c71929161336c919063ffffffff61402916565b9063ffffffff613c1516565b90508260060154811061338f578260060154613391565b805b9695505050505050565b600360209081526000928352604080842090915290825290208054600182015460029092015460ff909116919083565b6133d3613bb7565b6000546001600160a01b03908116911614613423576040805162461bcd60e51b8152602060048201819052602482015260008051602061567b833981519152604482015290519081900360640190fd5b6001600160a01b0381166134685760405162461bcd60e51b81526004018080602001828103825260268152602001806154e16026913960400191505060405180910390fd5b600080546040516001600160a01b03808516939216917f8be0079c531659141344cd1fd0a4f28419497f9722a3daafe3b4186f6b6457e091a3600080546001600160a01b0319166001600160a01b0392909216919091179055565b60026001541415613509576040805162461bcd60e51b815260206004820152601f6024820152600080516020615492833981519152604482015290519081900360640190fd5b600260018181556001600160a01b038085166000908152602084905260408120928301549383015486949192919091169063a57967859061354986612ef6565b6040518363ffffffff1660e01b8152600401808381526020018281526020019250505060206040518083038186803b15801561358457600080fd5b505afa158015613598573d6000803e3d6000fd5b505050506040513d60208110156135ae57600080fd5b505160058301549091506000906135c790839042613fd6565b60028401549091506135df828263ffffffff61400b16565b600285018190556009546136029161113e9190611132908563ffffffff61402916565b6004850155426005850155600284015460408051848152602081019290925280516001600160a01b0388169260008051602061558383398151915292908290030190a26006546001600160a01b0316156136bf57600660009054906101000a90046001600160a01b03166001600160a01b031663181783586040518163ffffffff1660e01b8152600401600060405180830381600087803b1580156136a657600080fd5b505af11580156136ba573d6000803e3d6000fd5b505050505b6001600160a01b038088166000908152600260209081526040808320805482516370a0823160e01b81523360048201529251919561010090910416926370a082319260248082019391829003018186803b15801561371c57600080fd5b505afa158015613730573d6000803e3d6000fd5b505050506040513d602081101561374657600080fd5b505190506001825460ff16600281111561375c57fe5b148061377757506002825460ff16600281111561377557fe5b145b6137c8576040805162461bcd60e51b815260206004820152601860248201527f63616e2774207769746864726177207468697320706f6f6c0000000000000000604482015290519081900360640190fd5b87818111156137d45750805b60006137e08b83613f1e565b845460408051632770a7eb60e21b81523360048201526024810186905290519293506101009091046001600160a01b031691639dc29fac9160448082019260009290919082900301818387803b15801561383957600080fd5b505af115801561384d573d6000803e3d6000fd5b50506040805163a9059cbb60e01b81523360048201526024810185905290516001600160a01b038f16935063a9059cbb925060448083019260209291908290030181600087803b1580156138a057600080fd5b505af11580156138b4573d6000803e3d6000fd5b505050506040513d60208110156138ca57600080fd5b506138d690503361145c565b6139115760405162461bcd60e51b81526004018080602001828103825260268152602001806155c76026913960400191505060405180910390fd5b6040805183815260208101839052815133926001600160a01b038f16927ff341246adaac6f497bc2a656f546ab9e182111d630394f0c57c710a59a2cb567929081900390910190a3505060018055505050505050505050565b60095481565b60008080805b600454811015613baf5760006004828154811061398f57fe5b60009182526020808320909101546001600160a01b03168083526002909152604082209092509080806139c28a866123d8565b9250925092508260001415806139d757508115155b15613b9e576001840154604080516286cd6b60e31b815290516000926001600160a01b0316916304366b58916004808301926020929190829003018186803b158015613a2257600080fd5b505afa158015613a36573d6000803e3d6000fd5b505050506040513d6020811015613a4c57600080fd5b50516005546040805163b3596f0760e01b81526001600160a01b038a811660048301529151939450600093919092169163b3596f07916024808301926020929190829003018186803b158015613aa157600080fd5b505afa158015613ab5573d6000803e3d6000fd5b505050506040513d6020811015613acb57600080fd5b5051905080613b1d576040805162461bcd60e51b81526020600482015260196024820152781d1bdad95b881c1c9a58d9481a5cdb89dd0818dbdc9c9958dd603a1b604482015290519081900360640190fd5b6000613b2f828763ffffffff61400b16565b9050613b418c8263ffffffff613bbb16565b9b50600083118015613b505750835b15613b7857613b75613b68828563ffffffff61400b16565b8c9063ffffffff613bbb16565b9a505b613b98613b8b838763ffffffff61400b16565b8b9063ffffffff613bbb16565b99505050505b505060019093019250613976915050565b509193909250565b3390565b600082820183811015612030576040805162461bcd60e51b815260206004820152601b60248201527f536166654d6174683a206164646974696f6e206f766572666c6f770000000000604482015290519081900360640190fd5b600082613c2457506000610ed9565b82820282848281613c3157fe5b04146120305760405162461bcd60e51b815260040180806020018281038252602181526020018061565a6021913960400191505060405180910390fd5b600061203083836040518060400160405280601a81526020017f536166654d6174683a206469766973696f6e206279207a65726f000000000000815250614a8c565b6001600160a01b038083166000908152600260208190526040822060018101549181015492938493919284929116906345ade05190613cee89612ef6565b6040518363ffffffff1660e01b8152600401808381526020018281526020019250505060206040518083038186803b158015613d2957600080fd5b505afa158015613d3d573d6000803e3d6000fd5b505050506040513d6020811015613d5357600080fd5b50516001830154604080516309a9134360e31b815290519293506000926001600160a01b0390921691634d489a1891600480820192602092909190829003018186803b158015613da257600080fd5b505afa158015613db6573d6000803e3d6000fd5b505050506040513d6020811015613dcc57600080fd5b50519050808211613e18578015613e0e57613e0981613dfd846111328a6706f05b59d3b2000063ffffffff61400b16565b9063ffffffff614b2e16565b613e11565b60005b9450613e9d565b670de0b6b3a7640000821015613e9857613e93613e866706f05b59d3b20000613e7a613e52670de0b6b3a76400008663ffffffff61402916565b613dfd613e65888863ffffffff61402916565b6706f05b59d3b200009063ffffffff61400b16565b9063ffffffff613bbb16565b879063ffffffff61400b16565b613e9a565b855b94505b613ead868663ffffffff61402916565b93505050509250929050565b6006820154613ece908263ffffffff613bbb16565b60068301556003820154613ee157613f1a565b6003820154613f1490613f0390610c718464e8d4a5100063ffffffff613c1516565b60078401549063ffffffff613bbb16565b60078301555b5050565b6001600160a01b038083166000908152600260209081526040808320805482516318160ddd60e01b81529251949591948694610100909204909216926318160ddd9260048083019392829003018186803b158015613f7b57600080fd5b505afa158015613f8f573d6000803e3d6000fd5b505050506040513d6020811015613fa557600080fd5b5051905080613fb957600092505050610ed9565b610ed481610c71613fc988612ef6565b879063ffffffff613c1516565b6000611454613fe3614b4c565b613e7a6301e13380613dfd613ffe878963ffffffff61402916565b899063ffffffff61400b16565b6000612030670de0b6b3a7640000610c71858563ffffffff613c1516565b600061203083836040518060400160405280601e81526020017f536166654d6174683a207375627472616374696f6e206f766572666c6f770000815250614b58565b604080516001600160a01b038416602482015260448082018490528251808303909101815260649091019091526020810180516001600160e01b031663a9059cbb60e01b17905261140b908490614bb2565b6001600160a01b038216600090815260026020819052604082209081015415806140e957506003810154155b156140f75782915050610ed9565b6114548160030154614116836002015486613c1590919063ffffffff16565b9063ffffffff614c6316565b6001600160a01b038381166000818152600260209081526040808320868616808552828520968b16855260038452828520908552909252808320938352909120909291906001845460ff16600281111561417857fe5b148061419357506002845460ff16600281111561419157fe5b145b6141e4576040805162461bcd60e51b815260206004820152601960248201527f63616e2774206c6971756964617465207468697320706f6f6c00000000000000604482015290519081900360640190fd5b6141ee87896147cd565b6141f78861145c565b156142335760405162461bcd60e51b81526004018080602001828103825260378152602001806156e76037913960400191505060405180910390fd5b815460ff16156142745760405162461bcd60e51b815260040180806020018281038252602b81526020018061569b602b913960400191505060405180910390fd5b6001830154604080516286cd6b60e31b815290516000926001600160a01b0316916304366b58916004808301926020929190829003018186803b1580156142ba57600080fd5b505afa1580156142ce573d6000803e3d6000fd5b505050506040513d60208110156142e457600080fd5b5051116143225760405162461bcd60e51b81526004018080602001828103825260228152602001806156386022913960400191505060405180910390fd5b600081600101541161437b576040805162461bcd60e51b815260206004820152601d60248201527f75736572206469646e277420626f72726f77207468697320746f6b656e000000604482015290519081900360640190fd5b600181015460009061439b906706f05b59d3b2000063ffffffff61400b16565b905086818111156143a95750805b60006143b58a836140bd565b905060006143c48b838b614ce0565b905060006143d28a83614f72565b90506143ef6001600160a01b038d1633308663ffffffff61477316565b808860000160019054906101000a90046001600160a01b03166001600160a01b03166370a082318f6040518263ffffffff1660e01b815260040180826001600160a01b03166001600160a01b0316815260200191505060206040518083038186803b15801561445d57600080fd5b505afa158015614471573d6000803e3d6000fd5b505050506040513d602081101561448757600080fd5b5051116144db576040805162461bcd60e51b815260206004820152601c60248201527f7573657220636f6c6c61746572616c2069736e277420656e6f75676800000000604482015290519081900360640190fd5b8760000160019054906101000a90046001600160a01b03166001600160a01b0316639dc29fac8e836040518363ffffffff1660e01b815260040180836001600160a01b03166001600160a01b0316815260200182815260200192505050600060405180830381600087803b15801561455257600080fd5b505af1158015614566573d6000803e3d6000fd5b50508954604080516340c10f1960e01b81523360048201526024810186905290516101009092046001600160a01b031693506340c10f19925060448082019260009290919082900301818387803b1580156145c057600080fd5b505af11580156145d4573d6000803e3d6000fd5b50505060028a01546145ed91508463ffffffff61402916565b60028a01556003890154614607908563ffffffff61402916565b60038a01556001860154614621908563ffffffff61402916565b6001870155604080516001600160a01b038e811682528c81166020830152818301869052606082018790526080820185905260a082018490523360c08301529151918f16917f602f496956f48338da240f5132098504dfefea6c18ee6d8bcb1879c137942ab39181900360e00190a250505050505050505050505050565b6001600160a01b0382166000908152600260205260408120816146c185612ef6565b905060008260000160019054906101000a90046001600160a01b03166001600160a01b03166318160ddd6040518163ffffffff1660e01b815260040160206040518083038186803b15801561471557600080fd5b505afa158015614729573d6000803e3d6000fd5b505050506040513d602081101561473f57600080fd5b505190508115801561474f575080155b1561475f57849350505050610ed9565b61339182610c71878463ffffffff613c1516565b604080516001600160a01b0380861660248301528416604482015260648082018490528251808303909101815260849091019091526020810180516001600160e01b03166323b872dd60e01b179052610e30908590614bb2565b6006546001600160a01b03166147e257613f1a565b6001600160a01b0380831660008181526002602090815260408083209486168352600382528083209383529290529081209061481e8585613306565b6006840154909150614836908263ffffffff61402916565b60068401556007830154600283015561484f8482615039565b5050505050565b6001600160a01b0382166000908152600260208190526040822090810154158061488257506003810154155b156148905782915050610ed9565b6114548160020154614116836003015486613c1590919063ffffffff16565b6001600160a01b038216600090815260026020526040812060038101546148da576000915050610ed9565b6114548160020154610c71836003015486613c1590919063ffffffff16565b6001600160a01b0382166000818152600260209081526040808320338452600383528184209484529390915290206001825460ff16600281111561493957fe5b148061495457506002825460ff16600281111561495257fe5b145b6149a5576040805162461bcd60e51b815260206004820152601860248201527f63616e277420726570617920746f207468697320706f6f6c0000000000000000604482015290519081900360640190fd5b600181015483908111156149ba575060018101545b6149c485336147cd565b60006149d086836140bd565b60028501549091506149e8908263ffffffff61402916565b60028501556003840154614a02908363ffffffff61402916565b60038501556001830154614a1c908363ffffffff61402916565b6001840155614a3c6001600160a01b03871633308463ffffffff61477316565b6040805183815260208101839052815133926001600160a01b038a16927fe4a1ae657f49cb1fb1c7d3a94ae6093565c4c8c0e03de488f79c377c3c3a24e0929081900390910190a3505050505050565b60008183614b185760405162461bcd60e51b81526004018080602001828103825283818151815260200191508051906020019080838360005b83811015614add578181015183820152602001614ac5565b50505050905090810190601f168015614b0a5780820380516001836020036101000a031916815260200191505b509250505060405180910390fd5b506000838581614b2457fe5b0495945050505050565b600061203082610c7185670de0b6b3a764000063ffffffff613c1516565b670de0b6b3a764000090565b60008184841115614baa5760405162461bcd60e51b8152602060048201818152835160248401528351909283926044909101919085019080838360008315614add578181015183820152602001614ac5565b505050900390565b6060614c07826040518060400160405280602081526020017f5361666545524332303a206c6f772d6c6576656c2063616c6c206661696c6564815250856001600160a01b03166152b59092919063ffffffff16565b80519091501561140b57808060200190516020811015614c2657600080fd5b505161140b5760405162461bcd60e51b815260040180806020018281038252602a81526020018061571e602a913960400191505060405180910390fd5b6000808211614cb9576040805162461bcd60e51b815260206004820152601860248201527f64697669646572206d757374206d6f7265207468616e20300000000000000000604482015290519081900360640190fd5b6000828481614cc457fe5b049050828481614cd057fe5b0615612030576001019392505050565b6005546000906001600160a01b0316614d40576040805162461bcd60e51b815260206004820152601e60248201527f7072696365206f7261636c652069736e277420696e697469616c697a65640000604482015290519081900360640190fd5b6005546040805163b3596f0760e01b81526001600160a01b0387811660048301529151600093929092169163b3596f0791602480820192602092909190829003018186803b158015614d9157600080fd5b505afa158015614da5573d6000803e3d6000fd5b505050506040513d6020811015614dbb57600080fd5b5051905080614dfb5760405162461bcd60e51b81526004018080602001828103825260248152602001806155a36024913960400191505060405180910390fd5b6005546040805163b3596f0760e01b81526001600160a01b0386811660048301529151600093929092169163b3596f0791602480820192602092909190829003018186803b158015614e4c57600080fd5b505afa158015614e60573d6000803e3d6000fd5b505050506040513d6020811015614e7657600080fd5b5051905080614ecc576040805162461bcd60e51b815260206004820152601e60248201527f636f6c6c61746572616c2070726963652069736e277420636f72726563740000604482015290519081900360640190fd5b6001600160a01b03808716600090815260026020908152604080832060010154815163da423bd560e01b815291519394169263da423bd592600480840193919291829003018186803b158015614f2157600080fd5b505afa158015614f35573d6000803e3d6000fd5b505050506040513d6020811015614f4b57600080fd5b50519050614f6782610c7183611132878b63ffffffff613c1516565b979650505050505050565b6001600160a01b038083166000908152600260209081526040808320805482516318160ddd60e01b81529251949591948694610100909204909216926318160ddd9260048083019392829003018186803b158015614fcf57600080fd5b505afa158015614fe3573d6000803e3d6000fd5b505050506040513d6020811015614ff957600080fd5b50519050600061500886612ef6565b9050801580615015575081155b1561502557849350505050610ed9565b61339181614116878563ffffffff613c1516565b6008546001600160a01b031661514857600660009054906101000a90046001600160a01b03166001600160a01b03166370b4c9e06040518163ffffffff1660e01b815260040160206040518083038186803b15801561509757600080fd5b505afa1580156150ab573d6000803e3d6000fd5b505050506040513d60208110156150c157600080fd5b50516040805163a9059cbb60e01b81526001600160a01b038581166004830152602482018590529151919092169163a9059cbb9160448083019260209291908290030181600087803b15801561511657600080fd5b505af115801561512a573d6000803e3d6000fd5b505050506040513d602081101561514057600080fd5b50613f1a9050565b600660009054906101000a90046001600160a01b03166001600160a01b03166370b4c9e06040518163ffffffff1660e01b815260040160206040518083038186803b15801561519657600080fd5b505afa1580156151aa573d6000803e3d6000fd5b505050506040513d60208110156151c057600080fd5b50516008546040805163095ea7b360e01b81526001600160a01b039283166004820152602481018590529051919092169163095ea7b39160448083019260209291908290030181600087803b15801561521857600080fd5b505af115801561522c573d6000803e3d6000fd5b505050506040513d602081101561524257600080fd5b50506008546040805163b73480bf60e01b81526001600160a01b038581166004830152602482018590529151919092169163b73480bf91604480830192600092919082900301818387803b15801561529957600080fd5b505af11580156152ad573d6000803e3d6000fd5b505050505050565b6060611454848460008560606152ca8561542c565b61531b576040805162461bcd60e51b815260206004820152601d60248201527f416464726573733a2063616c6c20746f206e6f6e2d636f6e7472616374000000604482015290519081900360640190fd5b60006060866001600160a01b031685876040518082805190602001908083835b6020831061535a5780518252601f19909201916020918201910161533b565b6001836020036101000a03801982511681845116808217855250505050505090500191505060006040518083038185875af1925050503d80600081146153bc576040519150601f19603f3d011682016040523d82523d6000602084013e6153c1565b606091505b509150915081156153d55791506114549050565b8051156153e55780518082602001fd5b60405162461bcd60e51b8152602060048201818152865160248401528651879391928392604401919085019080838360008315614add578181015183820152602001614ac5565b3b151590565b604080516101208101909152806000815260200160006001600160a01b0316815260200160006001600160a01b03168152602001600081526020016000815260200160008152602001600081526020016000815260200160008152509056fe5265656e7472616e637947756172643a207265656e7472616e742063616c6c00616d6f756e74206973206d6f7265207468616e20617661696c61626c65206c6971756964697479206f6e20706f6f6c4f776e61626c653a206e6577206f776e657220697320746865207a65726f206164647265737363616e2774207365742075736520617320636f6c6c61746572616c2c206163636f756e742069736e2774206865616c7468792e7468697320706f6f6c20616c726561647920657869737473206f6e206c656e64696e6720706f6f6c616d6f756e74206973206d6f7265207468616e20706f6f6c2072657365727665734459cec4806e5d45ce1ebf79e0c92583bc5f7567c93ee849aaeded68aa2c7b206c69717569646174656420746f6b656e2070726963652069736e277420636f72726563746163636f756e74206973206e6f74206865616c7468792e2063616e27742077697468647261774f6e6c79206469737472696275746f722063616e2063616c6c207265636569766520416c7068616163636f756e74206973206e6f74206865616c7468792e2063616e277420626f72726f777468697320706f6f6c2069736e2774207573656420617320636f6c6c61746572616c536166654d6174683a206d756c7469706c69636174696f6e206f766572666c6f774f776e61626c653a2063616c6c6572206973206e6f7420746865206f776e657275736572206469646e277420656e61626c65207468652072657175657374656420636f6c6c61746572616c6465706f73697420616d6f756e742073686f756c64206d6f7265207468616e2030757365722773206163636f756e74206973206865616c7468792e2063616e2774206c69717569646174652074686973206163636f756e745361666545524332303a204552433230206f7065726174696f6e20646964206e6f742073756363656564706f6f6c2069736e277420696e697469616c697a65642c2063616e2774207365742074686520706f6f6c20636f6e666967a26469706673582212202e19ae6f88cb87c7aff399763f31ba20c0a0b9a524a460389c68c5e2c6d6567f64736f6c634300060b0033",
  "immutableReferences": {},
  "source": "pragma solidity >=0.6.11;\r\n\r\nimport \"openzeppelin-solidity/contracts/access/Ownable.sol\";\r\nimport \"openzeppelin-solidity/contracts/token/ERC20/ERC20.sol\";\r\nimport \"openzeppelin-solidity/contracts/token/ERC20/SafeERC20.sol\";\r\nimport \"openzeppelin-solidity/contracts/math/SafeMath.sol\";\r\nimport \"openzeppelin-solidity/contracts/utils/ReentrancyGuard.sol\";\r\nimport \"./interfaces/IAlphaDistributor.sol\";\r\nimport \"./interfaces/IAlphaReceiver.sol\";\r\nimport \"./interfaces/ILendingPool.sol\";\r\nimport \"./interfaces/IPoolConfiguration.sol\";\r\nimport \"./interfaces/IPriceOracle.sol\";\r\nimport \"./interfaces/IVestingAlpha.sol\";\r\nimport \"./AlToken.sol\";\r\nimport \"./AlTokenDeployer.sol\";\r\nimport \"./libraries/WadMath.sol\";\r\nimport \"./libraries/Math.sol\";\r\n\r\n/**\r\n * @title Lending pool contract\r\n * @notice Implements the core contract of lending pool.\r\n * this contract manages all states and handles user interaction with the pool.\r\n * @author Alpha\r\n **/\r\n\r\ncontract LendingPool is Ownable, ILendingPool, IAlphaReceiver, ReentrancyGuard {\r\n  using SafeMath for uint256;\r\n  using WadMath for uint256;\r\n  using Math for uint256;\r\n  using SafeERC20 for ERC20;\r\n\r\n  /*\r\n   * Lending pool smart contracts\r\n   * -----------------------------\r\n   * Each ERC20 token has an individual pool which users provide their liquidity to the pool.\r\n   * Users can use their liquidity as collateral to borrow any asset from all pools if their account is still healthy.\r\n   * By account health checking, the total borrow value must less than the total collateral value (collateral value is\r\n   * ~75% of the liquidity value depends on each token). Borrower need to repay the loan with accumulated interest.\r\n   * Liquidity provider would receive the borrow interest. In case of the user account is not healthy\r\n   * then liquidator can help to liquidate the user's account then receive the collateral with liquidation bonus as the reward.\r\n   *\r\n   * The status of the pool\r\n   * -----------------------------\r\n   * The pool has 3 status. every pool will have only one status at a time.\r\n   * 1. INACTIVE - the pool is on initialized state or inactive state so it's not ready for user to do any actions. users can't deposit, borrow,\r\n   * repay and withdraw\r\n   * 2 .ACTIVE - the pool is active. users can deposit, borrow, repay, withdraw and liquidate\r\n   * 3. CLOSED - the pool is waiting for inactive state. users can clear their account by repaying, withdrawal, liquidation but can't deposit, borrow\r\n   */\r\n  enum PoolStatus {INACTIVE, ACTIVE, CLOSED}\r\n  uint256 internal constant SECONDS_PER_YEAR = 365 days;\r\n  /**\r\n   * @dev emitted on initilize pool\r\n   * @param pool the address of the ERC20 token of the pool\r\n   * @param alTokenAddress the address of the pool's alToken\r\n   * @param poolConfigAddress the address of the pool's configuration contract\r\n   */\r\n  event PoolInitialized(\r\n    address indexed pool,\r\n    address indexed alTokenAddress,\r\n    address indexed poolConfigAddress\r\n  );\r\n\r\n  /**\r\n   * @dev emitted on update pool configuration\r\n   * @param pool the address of the ERC20 token of the pool\r\n   * @param poolConfigAddress the address of the updated pool's configuration contract\r\n   */\r\n  event PoolConfigUpdated(address indexed pool, address poolConfigAddress);\r\n\r\n  /**\r\n   * @dev emitted on set price oracle\r\n   * @param priceOracleAddress the address of the price oracle\r\n   */\r\n  event PoolPriceOracleUpdated(address indexed priceOracleAddress);\r\n\r\n  /**\r\n   * @dev emitted on pool updates interest\r\n   * @param pool the address of the ERC20 token of the pool\r\n   * @param cumulativeBorrowInterest the borrow interest which accumulated from last update timestamp to now\r\n   * @param totalBorrows the updated total borrows of the pool. increasing by the cumulative borrow interest.\r\n   */\r\n  event PoolInterestUpdated(\r\n    address indexed pool,\r\n    uint256 cumulativeBorrowInterest,\r\n    uint256 totalBorrows\r\n  );\r\n\r\n  /**\r\n   * @dev emitted on deposit\r\n   * @param pool the address of the ERC20 token of the pool\r\n   * @param user the address of the user who deposit the ERC20 token to the pool\r\n   * @param depositShares the share amount of the ERC20 token which calculated from deposit amount\r\n   * Note: depositShares is the same as number of alphaToken\r\n   * @param depositAmount the amount of the ERC20 that deposit to the pool\r\n   */\r\n  event Deposit(\r\n    address indexed pool,\r\n    address indexed user,\r\n    uint256 depositShares,\r\n    uint256 depositAmount\r\n  );\r\n\r\n  /**\r\n   * @dev emitted on borrow\r\n   * @param pool the address of the ERC20 token of the pool\r\n   * @param user the address of the user who borrow the ERC20 token from the pool\r\n   * @param borrowShares the amount of borrow shares which calculated from borrow amount\r\n   * @param borrowAmount the amount of borrow\r\n   */\r\n  event Borrow(\r\n    address indexed pool,\r\n    address indexed user,\r\n    uint256 borrowShares,\r\n    uint256 borrowAmount\r\n  );\r\n\r\n  /**\r\n   * @dev emitted on repay\r\n   * @param pool the address of the ERC20 token of the pool\r\n   * @param user the address of the user who repay the ERC20 token to the pool\r\n   * @param repayShares the amount of repay shares which calculated from repay amount\r\n   * @param repayAmount the amount of repay\r\n   */\r\n  event Repay(address indexed pool, address indexed user, uint256 repayShares, uint256 repayAmount);\r\n\r\n  /**\r\n   * @dev emitted on withdraw alToken\r\n   * @param pool the address of the ERC20 token of the pool\r\n   * @param user the address of the user who withdraw the ERC20 token from the pool\r\n   * @param withdrawShares the amount of withdraw shares which calculated from withdraw amount\r\n   * @param withdrawAmount the amount of withdraw\r\n   */\r\n  event Withdraw(\r\n    address indexed pool,\r\n    address indexed user,\r\n    uint256 withdrawShares,\r\n    uint256 withdrawAmount\r\n  );\r\n\r\n  /**\r\n   * @dev emitted on liquidate\r\n   * @param user the address of the user who is liquidated by liquidator\r\n   * @param pool the address of the ERC20 token which is liquidated by liquidator\r\n   * @param collateral the address of the ERC20 token that liquidator received as a rewards\r\n   * @param liquidateAmount the amount of the ERC20 token that liquidator liquidate for the user\r\n   * @param liquidateShares the amount of liquidate shares which calculated from liquidate amount\r\n   * @param collateralAmount the amount of the collateral which calculated from liquidate amount that liquidator want to liquidate\r\n   * @param collateralShares the amount of collateral shares which liquidator received from liquidation in from of alToken\r\n   * @param liquidator the address of the liquidator\r\n   */\r\n  event Liquidate(\r\n    address indexed user,\r\n    address pool,\r\n    address collateral,\r\n    uint256 liquidateAmount,\r\n    uint256 liquidateShares,\r\n    uint256 collateralAmount,\r\n    uint256 collateralShares,\r\n    address liquidator\r\n  );\r\n\r\n  /**\r\n   * @dev emitted on reserve withdraw\r\n   * @param pool the address of the ERC20 token of the pool\r\n   * @param amount the amount to withdraw\r\n   * @param withdrawer the address of withdrawer\r\n   */\r\n  event ReserveWithdrawn(address indexed pool, uint256 amount, address withdrawer);\r\n\r\n  /**\r\n   * @dev emitted on update reserve percent\r\n   * @param previousReservePercent the previous pool's reserve percent\r\n   * @param newReservePercent the updated pool's reserve percent\r\n   */\r\n  event ReservePercentUpdated(uint256 previousReservePercent, uint256 newReservePercent);\r\n\r\n  /**\r\n   * @dev the struct for storing the user's state separately on each pool\r\n   */\r\n  struct UserPoolData {\r\n    // the user set to used this pool as collateral for borrowing\r\n    bool disableUseAsCollateral;\r\n    // borrow shares of the user of this pool. If user didn't borrow this pool then shere will be 0\r\n    uint256 borrowShares;\r\n    // latest alpha multiplier (borrow reward multiplier) of the user of this pool. Using to calculate current borrow reward.\r\n    uint256 latestAlphaMultiplier;\r\n  }\r\n\r\n  /**\r\n   * @dev the struct for storing the pool's state separately on each ERC20 token\r\n   */\r\n  struct Pool {\r\n    // pool status\r\n    PoolStatus status;\r\n    // al token of the pool\r\n    AlToken alToken;\r\n    // pool configuration contract\r\n    IPoolConfiguration poolConfig;\r\n    // total borrow amount on this pool\r\n    uint256 totalBorrows;\r\n    // total share on this pool\r\n    uint256 totalBorrowShares;\r\n    // reserve amount on this pool\r\n    uint256 poolReserves;\r\n    // last update timestamp of this pool\r\n    uint256 lastUpdateTimestamp;\r\n    // total alpha token reward on this pool\r\n    uint256 totalAlphaTokenReward;\r\n    // alpha reward multiplier of each borrow share\r\n    uint256 alphaMultiplier;\r\n  }\r\n\r\n  /**\r\n   * @dev the mapping from the ERC20 token to the pool struct of that ERC20 token\r\n   * token address => pool\r\n   */\r\n  mapping(address => Pool) public pools;\r\n\r\n  /**\r\n   * @dev the mapping from user address to the ERC20 token to the user data of\r\n   * that ERC20 token's pool\r\n   * user address => token address => user pool data\r\n   */\r\n  mapping(address => mapping(address => UserPoolData)) public userPoolData;\r\n\r\n  /**\r\n   * @dev list of all tokens on the lending pool contract.\r\n   */\r\n  ERC20[] public tokenList;\r\n\r\n  /**\r\n   * @dev price oracle of the lending pool contract.\r\n   */\r\n  IPriceOracle priceOracle;\r\n\r\n  /**\r\n   * @dev alpha token address contract.\r\n   */\r\n  IAlphaDistributor public override distributor;\r\n\r\n  /**\r\n   * @dev AltokenDeployer address\r\n   */\r\n  AlTokenDeployer public alTokenDeployer;\r\n  /**\r\n   * @dev VestingAlpha address\r\n   */\r\n  IVestingAlpha public override vestingAlpha;\r\n  // max purchase percent of each liquidation\r\n  // max purchase shares is 50% of user borrow shares\r\n  uint256 public constant CLOSE_FACTOR = 0.5 * 1e18;\r\n  uint256 public constant EQUILIBRIUM = 0.5 * 1e18;\r\n  uint256 public constant MAX_UTILIZATION_RATE = 1 * 1e18;\r\n  uint256 public reservePercent = 0.05 * 1e18;\r\n\r\n  constructor(AlTokenDeployer _alTokenDeployer) public {\r\n    alTokenDeployer = _alTokenDeployer;\r\n  }\r\n\r\n  /**\r\n   * @dev update accumulated pool's borrow interest from last update timestamp to now then add to total borrows of that pool.\r\n   * any function that use this modifier will update pool's total borrows before starting the function.\r\n   * @param  _token the ERC20 token of the pool that will update accumulated borrow interest to total borrows\r\n   */\r\n  modifier updatePoolWithInterestsAndTimestamp(ERC20 _token) {\r\n    Pool storage pool = pools[address(_token)];\r\n    uint256 borrowInterestRate = pool.poolConfig.calculateInterestRate(\r\n      pool.totalBorrows,\r\n      getTotalLiquidity(_token)\r\n    );\r\n    uint256 cumulativeBorrowInterest = calculateLinearInterest(\r\n      borrowInterestRate,\r\n      pool.lastUpdateTimestamp,\r\n      block.timestamp\r\n    );\r\n\r\n    // update pool\r\n    uint256 previousTotalBorrows = pool.totalBorrows;\r\n    pool.totalBorrows = cumulativeBorrowInterest.wadMul(pool.totalBorrows);\r\n    pool.poolReserves = pool.poolReserves.add(\r\n      pool.totalBorrows.sub(previousTotalBorrows).wadMul(reservePercent)\r\n    );\r\n    pool.lastUpdateTimestamp = block.timestamp;\r\n    emit PoolInterestUpdated(address(_token), cumulativeBorrowInterest, pool.totalBorrows);\r\n    _;\r\n  }\r\n\r\n  /**\r\n   * @dev update Alpha reward by call poke on distribution contract.\r\n   */\r\n  modifier updateAlphaReward() {\r\n    if (address(distributor) != address(0)) {\r\n      distributor.poke();\r\n    }\r\n    _;\r\n  }\r\n\r\n  /**\r\n   * @dev initialize the ERC20 token pool. only owner can initialize the pool.\r\n   * @param _token the ERC20 token of the pool\r\n   * @param _poolConfig the configuration contract of the pool\r\n   */\r\n  function initPool(ERC20 _token, IPoolConfiguration _poolConfig) external onlyOwner {\r\n    for (uint256 i = 0; i < tokenList.length; i++) {\r\n      require(tokenList[i] != _token, \"this pool already exists on lending pool\");\r\n    }\r\n    string memory alTokenSymbol = string(abi.encodePacked(\"al\", _token.symbol()));\r\n    string memory alTokenName = string(abi.encodePacked(\"Al\", _token.symbol()));\r\n    AlToken alToken = alTokenDeployer.createNewAlToken(alTokenName, alTokenSymbol, _token);\r\n    Pool memory pool = Pool(\r\n      PoolStatus.INACTIVE,\r\n      alToken,\r\n      _poolConfig,\r\n      0,\r\n      0,\r\n      0,\r\n      block.timestamp,\r\n      0,\r\n      0\r\n    );\r\n    pools[address(_token)] = pool;\r\n    tokenList.push(_token);\r\n    emit PoolInitialized(address(_token), address(alToken), address(_poolConfig));\r\n  }\r\n\r\n  /**\r\n   * @dev set pool configuration contract of the pool. only owner can set the pool configuration.\r\n   * @param _token the ERC20 token of the pool that will set the configuration\r\n   * @param _poolConfig the interface of the pool's configuration contract\r\n   */\r\n  function setPoolConfig(ERC20 _token, IPoolConfiguration _poolConfig) external onlyOwner {\r\n    Pool storage pool = pools[address(_token)];\r\n    require(\r\n      address(pool.alToken) != address(0),\r\n      \"pool isn't initialized, can't set the pool config\"\r\n    );\r\n    pool.poolConfig = _poolConfig;\r\n    emit PoolConfigUpdated(address(_token), address(_poolConfig));\r\n  }\r\n\r\n  /**\r\n   * @dev set the status of the lending pool. only owner can set the pool's status\r\n   * @param _token the ERC20 token of the pool\r\n   * @param _status the status of the pool\r\n   */\r\n  function setPoolStatus(ERC20 _token, PoolStatus _status) external onlyOwner {\r\n    Pool storage pool = pools[address(_token)];\r\n    pool.status = _status;\r\n  }\r\n\r\n  /**\r\n   * @dev set user uses the ERC20 token as collateral flag\r\n   * @param _token the ERC20 token of the pool\r\n   * @param _useAsCollateral the boolean that represent user use the ERC20 token on the pool as collateral or not\r\n   */\r\n  function setUserUseAsCollateral(ERC20 _token, bool _useAsCollateral) external {\r\n    UserPoolData storage userData = userPoolData[msg.sender][address(_token)];\r\n    userData.disableUseAsCollateral = !_useAsCollateral;\r\n    // only disable as collateral need to check the account health\r\n    if (!_useAsCollateral) {\r\n      require(isAccountHealthy(msg.sender), \"can't set use as collateral, account isn't healthy.\");\r\n    }\r\n  }\r\n\r\n  /**\r\n   * @dev set price oracle of the lending pool. only owner can set the price oracle.\r\n   * @param _oracle the price oracle which will get asset price to the lending pool contract\r\n   */\r\n  function setPriceOracle(IPriceOracle _oracle) external onlyOwner {\r\n    priceOracle = _oracle;\r\n    emit PoolPriceOracleUpdated(address(_oracle));\r\n  }\r\n\r\n  /**\r\n   * @dev get the pool of the ERC20 token\r\n   * @param _token the ERC20 token of the pool\r\n   * @return status - the pool's status, alTokenAddress - the pool's alToken, poolConfigAddress - the pool's configuration contract,\r\n   * totalBorrows - the pool's total borrows, totalBorrowShares - the pool's total borrow shares, totalLiquidity - the pool's total liquidity,\r\n   * totalAvailableLiquidity - the pool's total available liquidity, lastUpdateTimestamp - the pool's last update timestamp\r\n   */\r\n  function getPool(ERC20 _token)\r\n    external\r\n    view\r\n    returns (\r\n      PoolStatus status,\r\n      address alTokenAddress,\r\n      address poolConfigAddress,\r\n      uint256 totalBorrows,\r\n      uint256 totalBorrowShares,\r\n      uint256 totalLiquidity,\r\n      uint256 totalAvailableLiquidity,\r\n      uint256 lastUpdateTimestamp\r\n    )\r\n  {\r\n    Pool storage pool = pools[address(_token)];\r\n    alTokenAddress = address(pool.alToken);\r\n    poolConfigAddress = address(pool.poolConfig);\r\n    totalBorrows = pool.totalBorrows;\r\n    totalBorrowShares = pool.totalBorrowShares;\r\n    totalLiquidity = getTotalLiquidity(_token);\r\n    totalAvailableLiquidity = getTotalAvailableLiquidity(_token);\r\n    lastUpdateTimestamp = pool.lastUpdateTimestamp;\r\n    status = pool.status;\r\n  }\r\n\r\n  /**\r\n   * @dev get user data of the ERC20 token pool\r\n   * @param _user the address of user that need to get the data\r\n   * @param _token the ERC20 token of the pool that need to get the data of the user\r\n   * @return compoundedLiquidityBalance - the compounded liquidity balance of this user in this ERC20 token pool,\r\n   * compoundedBorrowBalance - the compounded borrow balance of this user in this ERC20 pool,\r\n   * userUsePoolAsCollateral - the boolean flag that the user\r\n   * uses the liquidity in this ERC20 token pool as collateral or not\r\n   */\r\n  function getUserPoolData(address _user, ERC20 _token)\r\n    public\r\n    view\r\n    returns (\r\n      uint256 compoundedLiquidityBalance,\r\n      uint256 compoundedBorrowBalance,\r\n      bool userUsePoolAsCollateral\r\n    )\r\n  {\r\n    compoundedLiquidityBalance = getUserCompoundedLiquidityBalance(_user, _token);\r\n    compoundedBorrowBalance = getUserCompoundedBorrowBalance(_user, _token);\r\n    userUsePoolAsCollateral = !userPoolData[_user][address(_token)].disableUseAsCollateral;\r\n  }\r\n\r\n  /**\r\n   * @dev calculate the interest rate which is the part of the annual interest rate on the elapsed time\r\n   * @param _rate an annual interest rate express in WAD\r\n   * @param _fromTimestamp the start timestamp to calculate interest\r\n   * @param _toTimestamp the end timestamp to calculate interest\r\n   * @return the interest rate in between the start timestamp to the end timestamp\r\n   */\r\n  function calculateLinearInterest(\r\n    uint256 _rate,\r\n    uint256 _fromTimestamp,\r\n    uint256 _toTimestamp\r\n  ) internal pure returns (uint256) {\r\n    return\r\n      _rate.wadMul(_toTimestamp.sub(_fromTimestamp)).wadDiv(SECONDS_PER_YEAR).add(WadMath.wad());\r\n  }\r\n\r\n  /**\r\n   * @dev get user's compounded borrow balance of the user in the ERC20 token pool\r\n   * @param _user the address of the user\r\n   * @param _token the ERC20 token of the pool that will get the compounded borrow balance\r\n   * @return the compounded borrow balance of the user on the ERC20 token pool\r\n   */\r\n  function getUserCompoundedBorrowBalance(address _user, ERC20 _token)\r\n    public\r\n    view\r\n    returns (uint256)\r\n  {\r\n    uint256 userBorrowShares = userPoolData[_user][address(_token)].borrowShares;\r\n    return calculateRoundUpBorrowAmount(_token, userBorrowShares);\r\n  }\r\n\r\n  /**\r\n   * @dev get user's compounded liquidity balance of the user in the ERC20 token pool\r\n   * @param _user the account address of the user\r\n   * @param _token the ERC20 token of the pool that will get the compounded liquidity balance\r\n   * @return the compounded liquidity balance of the user on the ERC20 token pool\r\n   */\r\n  function getUserCompoundedLiquidityBalance(address _user, ERC20 _token)\r\n    public\r\n    view\r\n    returns (uint256)\r\n  {\r\n    Pool storage pool = pools[address(_token)];\r\n    uint256 userLiquidityShares = pool.alToken.balanceOf(_user);\r\n    return calculateRoundDownLiquidityAmount(_token, userLiquidityShares);\r\n  }\r\n\r\n  /**\r\n   * @dev get total available liquidity in the ERC20 token pool\r\n   * @param _token the ERC20 token of the pool\r\n   * @return the balance of the ERC20 token in the pool\r\n   */\r\n  function getTotalAvailableLiquidity(ERC20 _token) public view returns (uint256) {\r\n    return _token.balanceOf(address(this));\r\n  }\r\n\r\n  /**\r\n   * @dev get total liquidity of the ERC20 token pool\r\n   * @param _token the ERC20 token of the pool\r\n   * @return the total liquidity on the lending pool which is the sum of total borrows and available liquidity\r\n   */\r\n  function getTotalLiquidity(ERC20 _token) public view returns (uint256) {\r\n    Pool storage pool = pools[address(_token)];\r\n    return\r\n      pool.totalBorrows.add(getTotalAvailableLiquidity(_token)).sub(\r\n        pools[address(_token)].poolReserves\r\n      );\r\n  }\r\n\r\n  /**\r\n   * @dev calculate liquidity share amount (round-down)\r\n   * @param _token the ERC20 token of the pool\r\n   * @param _amount the amount of liquidity to calculate the liquidity shares\r\n   * @return the amount of liquidity shares which is calculated from the below formula\r\n   * liquidity shares = (_amount * total liquidity shares) / total liquidity\r\n   * if the calculated liquidity shares = 2.9 then liquidity shares will be 2\r\n   */\r\n  function calculateRoundDownLiquidityShareAmount(ERC20 _token, uint256 _amount)\r\n    internal\r\n    view\r\n    returns (uint256)\r\n  {\r\n    Pool storage pool = pools[address(_token)];\r\n    uint256 totalLiquidity = getTotalLiquidity(_token);\r\n    uint256 totalLiquidityShares = pool.alToken.totalSupply();\r\n    if (totalLiquidity == 0 && totalLiquidityShares == 0) {\r\n      return _amount;\r\n    }\r\n    return _amount.mul(totalLiquidityShares).div(totalLiquidity);\r\n  }\r\n\r\n  /**\r\n   * @dev calculate borrow share amount (round-up)\r\n   * @param _token the ERC20 token of the pool\r\n   * @param _amount the amount of borrow to calculate the borrow shares\r\n   * @return the borrow amount which is calculated from the below formula\r\n   * borrow shares = ((amount * total borrow shares) + (total borrows -  1)) / total borrow\r\n   * if the calculated borrow shares = 10.1 then the borrow shares = 11\r\n   */\r\n  function calculateRoundUpBorrowShareAmount(ERC20 _token, uint256 _amount)\r\n    internal\r\n    view\r\n    returns (uint256)\r\n  {\r\n    Pool storage pool = pools[address(_token)];\r\n    // borrow share amount of the first borrowing is equal to amount\r\n    if (pool.totalBorrows == 0 || pool.totalBorrowShares == 0) {\r\n      return _amount;\r\n    }\r\n    return _amount.mul(pool.totalBorrowShares).divCeil(pool.totalBorrows);\r\n  }\r\n\r\n  /**\r\n   * @dev calculate borrow share amount (round-down)\r\n   * @param _token the ERC20 token of the pool\r\n   * @param _amount the amount of borrow to calculate the borrow shares\r\n   * @return the borrow amount which is calculated from the below formula\r\n   * borrow shares = (_amount * total borrow shares) / total borrows\r\n   * if the calculated borrow shares = 10.9 then the borrow shares = 10\r\n   */\r\n  function calculateRoundDownBorrowShareAmount(ERC20 _token, uint256 _amount)\r\n    internal\r\n    view\r\n    returns (uint256)\r\n  {\r\n    Pool storage pool = pools[address(_token)];\r\n    if (pool.totalBorrowShares == 0) {\r\n      return 0;\r\n    }\r\n    return _amount.mul(pool.totalBorrowShares).div(pool.totalBorrows);\r\n  }\r\n\r\n  /**\r\n   * @dev calculate liquidity share amount (round-up)\r\n   * @param _token the ERC20 token of the pool\r\n   * @param _amount the amount of liquidity to calculate the liquidity shares\r\n   * @return the liquidity shares which is calculated from the below formula\r\n   * liquidity shares = ((amount * total liquidity shares) + (total liquidity - 1)) / total liquidity shares\r\n   * if the calculated liquidity shares = 10.1 then the liquidity shares = 11\r\n   */\r\n  function calculateRoundUpLiquidityShareAmount(ERC20 _token, uint256 _amount)\r\n    internal\r\n    view\r\n    returns (uint256)\r\n  {\r\n    Pool storage pool = pools[address(_token)];\r\n    uint256 poolTotalLiquidityShares = pool.alToken.totalSupply();\r\n    uint256 poolTotalLiquidity = getTotalLiquidity(_token);\r\n    // liquidity share amount of the first depositing is equal to amount\r\n    if (poolTotalLiquidity == 0 || poolTotalLiquidityShares == 0) {\r\n      return _amount;\r\n    }\r\n    return _amount.mul(poolTotalLiquidityShares).divCeil(poolTotalLiquidity);\r\n  }\r\n\r\n  /**\r\n   * @dev calculate liquidity amount (round-down)\r\n   * @param _token the ERC20 token of the pool\r\n   * @param _shareAmount the liquidity shares to calculate the amount of liquidity\r\n   * @return the amount of liquidity which is calculated from the below formula\r\n   * liquidity amount = (_shareAmount * total liquidity) / total liquidity shares\r\n   * if the calculated liquidity amount = 10.9 then the liquidity amount = 10\r\n   */\r\n  function calculateRoundDownLiquidityAmount(ERC20 _token, uint256 _shareAmount)\r\n    internal\r\n    view\r\n    returns (uint256)\r\n  {\r\n    Pool storage pool = pools[address(_token)];\r\n    uint256 poolTotalLiquidityShares = pool.alToken.totalSupply();\r\n    if (poolTotalLiquidityShares == 0) {\r\n      return 0;\r\n    }\r\n    return _shareAmount.mul(getTotalLiquidity(_token)).div(poolTotalLiquidityShares);\r\n  }\r\n\r\n  /**\r\n   * @dev calculate borrow amount (round-up)\r\n   * @param _token the ERC20 token of the pool\r\n   * @param _shareAmount the borrow shares to calculate the amount of borrow\r\n   * @return the amount of borrowing which is calculated from the below formula\r\n   * borrowing amount = ((share amount * total borrows) + (total borrow shares - 1)) / total borrow shares\r\n   * if the calculated borrowing amount = 10.1 then the borrowing amount = 11\r\n   */\r\n  function calculateRoundUpBorrowAmount(ERC20 _token, uint256 _shareAmount)\r\n    internal\r\n    view\r\n    returns (uint256)\r\n  {\r\n    Pool storage pool = pools[address(_token)];\r\n    if (pool.totalBorrows == 0 || pool.totalBorrowShares == 0) {\r\n      return _shareAmount;\r\n    }\r\n    return _shareAmount.mul(pool.totalBorrows).divCeil(pool.totalBorrowShares);\r\n  }\r\n\r\n  /**\r\n   * @dev check is the user account is still healthy\r\n   * Traverse a token list to visit all ERC20 token pools then accumulate 3 balance values of the user:\r\n   * -----------------------------\r\n   * 1. user's total liquidity balance. Accumulate the user's liquidity balance of all ERC20 token pools\r\n   * 2. user's total borrow balance. Accumulate the user's borrow balance of all ERC20 token pools\r\n   * 3. user's total collateral balance. each ERC20 token has the different max loan-to-value (collateral percent) or the percent of\r\n   * liquidity that can actually use as collateral for the borrowing.\r\n   * e.g. if B token has 75% collateral percent means the collateral balance is 75 if the user's has 100 B token balance\r\n   * -----------------------------\r\n   * the account is still healthy if total borrow value is less than total collateral value. This means the user's collateral\r\n   * still cover the user's loan. In case of total borrow value is more than total collateral value then user's account is not healthy.\r\n   * @param _user the address of the user that will check the account health status\r\n   * @return the boolean that represent the account health status. Returns true if account is still healthy, false if account is not healthy.\r\n   */\r\n  function isAccountHealthy(address _user) public override view returns (bool) {\r\n    (, uint256 totalCollateralBalanceBase, uint256 totalBorrowBalanceBase) = getUserAccount(_user);\r\n\r\n    return totalBorrowBalanceBase <= totalCollateralBalanceBase;\r\n  }\r\n\r\n  /**\r\n   * @dev get user account details\r\n   * @param _user the address of the user to get the account details\r\n   * return totalLiquidityBalanceBase - the value of user's total liquidity,\r\n   * totalCollateralBalanceBase - the value of user's total collateral,\r\n   * totalBorrowBalanceBase - the value of user's total borrow\r\n   */\r\n  function getUserAccount(address _user)\r\n    public\r\n    view\r\n    returns (\r\n      uint256 totalLiquidityBalanceBase,\r\n      uint256 totalCollateralBalanceBase,\r\n      uint256 totalBorrowBalanceBase\r\n    )\r\n  {\r\n    for (uint256 i = 0; i < tokenList.length; i++) {\r\n      ERC20 _token = tokenList[i];\r\n      Pool storage pool = pools[address(_token)];\r\n\r\n      // get user pool data\r\n      (\r\n        uint256 compoundedLiquidityBalance,\r\n        uint256 compoundedBorrowBalance,\r\n        bool userUsePoolAsCollateral\r\n      ) = getUserPoolData(_user, _token);\r\n\r\n      if (compoundedLiquidityBalance != 0 || compoundedBorrowBalance != 0) {\r\n        uint256 collateralPercent = pool.poolConfig.getCollateralPercent();\r\n        uint256 poolPricePerUnit = priceOracle.getAssetPrice(address(_token));\r\n        require(poolPricePerUnit > 0, \"token price isn't correct\");\r\n\r\n        uint256 liquidityBalanceBase = poolPricePerUnit.wadMul(compoundedLiquidityBalance);\r\n        totalLiquidityBalanceBase = totalLiquidityBalanceBase.add(liquidityBalanceBase);\r\n        // this pool can use as collateral when collateralPercent more than 0.\r\n        if (collateralPercent > 0 && userUsePoolAsCollateral) {\r\n          totalCollateralBalanceBase = totalCollateralBalanceBase.add(\r\n            liquidityBalanceBase.wadMul(collateralPercent)\r\n          );\r\n        }\r\n        totalBorrowBalanceBase = totalBorrowBalanceBase.add(\r\n          poolPricePerUnit.wadMul(compoundedBorrowBalance)\r\n        );\r\n      }\r\n    }\r\n  }\r\n\r\n  function totalBorrowInUSD(ERC20 _token) public view returns (uint256) {\r\n    require(address(priceOracle) != address(0), \"price oracle isn't initialized\");\r\n    uint256 tokenPricePerUnit = priceOracle.getAssetPrice(address(_token));\r\n    require(tokenPricePerUnit > 0, \"token price isn't correct\");\r\n    return tokenPricePerUnit.mul(pools[address(_token)].totalBorrows);\r\n  }\r\n\r\n  /**\r\n   * @dev deposit the ERC20 token to the pool\r\n   * @param _token the ERC20 token of the pool that user want to deposit\r\n   * @param _amount the deposit amount\r\n   * User can call this function to deposit their ERC20 token to the pool. user will receive the alToken of that ERC20 token\r\n   * which represent the liquidity shares of the user. Providing the liquidity will receive an interest from the the borrower as an incentive.\r\n   * e.g. Alice deposits 10 Hello tokens to the pool.\r\n   * if 1 Hello token shares equals to 2 Hello tokens then Alice will have 5 Hello token shares from 10 Hello tokens depositing.\r\n   * User will receive the liquidity shares in the form of alToken so Alice will have 5 alHello on her wallet\r\n   * for representing her shares.\r\n   */\r\n  function deposit(ERC20 _token, uint256 _amount)\r\n    external\r\n    nonReentrant\r\n    updatePoolWithInterestsAndTimestamp(_token)\r\n    updateAlphaReward\r\n  {\r\n    Pool storage pool = pools[address(_token)];\r\n    require(pool.status == PoolStatus.ACTIVE, \"can't deposit to this pool\");\r\n    require(_amount > 0, \"deposit amount should more than 0\");\r\n\r\n    // 1. calculate liquidity share amount\r\n    uint256 shareAmount = calculateRoundDownLiquidityShareAmount(_token, _amount);\r\n\r\n    // 2. mint alToken to user equal to liquidity share amount\r\n    pool.alToken.mint(msg.sender, shareAmount);\r\n\r\n    // 3. transfer user deposit liquidity to the pool\r\n    _token.safeTransferFrom(msg.sender, address(this), _amount);\r\n\r\n    emit Deposit(address(_token), msg.sender, shareAmount, _amount);\r\n  }\r\n\r\n  /**\r\n   * @dev borrow the ERC20 token from the pool\r\n   * @param _token the ERC20 token of the pool that user want to borrow\r\n   * @param _amount the borrow amount\r\n   * User can call this function to borrow the ERC20 token from the pool. This function will\r\n   * convert the borrow amount to the borrow shares then accumulate borrow shares of this user\r\n   * of this ERC20 pool then set to user data on that pool state.\r\n   * e.g. Bob borrows 10 Hello tokens from the Hello token pool.\r\n   * if 1 borrow shares of Hello token equals to 5 Hello tokens then the lending contract will\r\n   * set Bob's borrow shares state with 2 borrow shares. Bob will receive 10 Hello tokens.\r\n   */\r\n  function borrow(ERC20 _token, uint256 _amount)\r\n    external\r\n    nonReentrant\r\n    updatePoolWithInterestsAndTimestamp(_token)\r\n    updateAlphaReward\r\n  {\r\n    Pool storage pool = pools[address(_token)];\r\n    UserPoolData storage userData = userPoolData[msg.sender][address(_token)];\r\n    require(pool.status == PoolStatus.ACTIVE, \"can't borrow this pool\");\r\n    require(_amount > 0, \"borrow amount should more than 0\");\r\n    require(\r\n      _amount <= getTotalAvailableLiquidity(_token),\r\n      \"amount is more than available liquidity on pool\"\r\n    );\r\n\r\n    // 0. Claim alpha token from latest borrow\r\n    claimCurrentAlphaReward(_token, msg.sender);\r\n\r\n    // 1. calculate borrow share amount\r\n    uint256 borrowShare = calculateRoundUpBorrowShareAmount(_token, _amount);\r\n\r\n    // 2. update pool state\r\n    pool.totalBorrows = pool.totalBorrows.add(_amount);\r\n    pool.totalBorrowShares = pool.totalBorrowShares.add(borrowShare);\r\n\r\n    // 3. update user state\r\n    userData.borrowShares = userData.borrowShares.add(borrowShare);\r\n\r\n    // 4. transfer borrowed token from pool to user\r\n    _token.safeTransfer(msg.sender, _amount);\r\n\r\n    // 5. check account health. this transaction will revert if the account of this user is not healthy\r\n    require(isAccountHealthy(msg.sender), \"account is not healthy. can't borrow\");\r\n    emit Borrow(address(_token), msg.sender, borrowShare, _amount);\r\n  }\r\n\r\n  /**\r\n   * @dev repay the ERC20 token to the pool equal to repay amount\r\n   * @param _token the ERC20 token of the pool that user want to repay\r\n   * @param _amount the repay amount\r\n   * User can call this function to repay the ERC20 token to the pool. For user's convenience,\r\n   * this function will convert repay amount to repay shares then do the repay.\r\n   */\r\n  function repayByAmount(ERC20 _token, uint256 _amount)\r\n    external\r\n    nonReentrant\r\n    updatePoolWithInterestsAndTimestamp(_token)\r\n    updateAlphaReward\r\n  {\r\n    // calculate round down borrow share\r\n    uint256 repayShare = calculateRoundDownBorrowShareAmount(_token, _amount);\r\n    repayInternal(_token, repayShare);\r\n  }\r\n\r\n  /**\r\n   * @dev repay the ERC20 token to the pool equal to repay shares\r\n   * @param _token the ERC20 token of the pool that user want to repay\r\n   * @param _share the amount of borrow shares thet user want to repay\r\n   * User can call this function to repay the ERC20 token to the pool.\r\n   * This function will do the repay equal to repay shares\r\n   */\r\n  function repayByShare(ERC20 _token, uint256 _share)\r\n    external\r\n    nonReentrant\r\n    updatePoolWithInterestsAndTimestamp(_token)\r\n    updateAlphaReward\r\n  {\r\n    repayInternal(_token, _share);\r\n  }\r\n\r\n  /**\r\n   * @dev repay the ERC20 token to the pool equal to repay shares\r\n   * @param _token the ERC20 token of the pool that user want to repay\r\n   * @param _share the amount of borrow shares thet user want to repay\r\n   * Internal function that do the repay. If Alice want to repay 10 borrow shares then the repay shares is 10.\r\n   * this function will repay the ERC20 token of Alice equal to repay shares value to the pool.\r\n   * If 1 repay shares equal to 2 Hello tokens then Alice will repay 20 Hello tokens to the pool. the Alice's\r\n   * borrow shares will be decreased.\r\n   */\r\n  function repayInternal(ERC20 _token, uint256 _share) internal {\r\n    Pool storage pool = pools[address(_token)];\r\n    UserPoolData storage userData = userPoolData[msg.sender][address(_token)];\r\n    require(\r\n      pool.status == PoolStatus.ACTIVE || pool.status == PoolStatus.CLOSED,\r\n      \"can't repay to this pool\"\r\n    );\r\n    uint256 paybackShares = _share;\r\n    if (paybackShares > userData.borrowShares) {\r\n      paybackShares = userData.borrowShares;\r\n    }\r\n\r\n    // 0. Claim alpha token from latest borrow\r\n    claimCurrentAlphaReward(_token, msg.sender);\r\n\r\n    // 1. calculate round up payback token\r\n    uint256 paybackAmount = calculateRoundUpBorrowAmount(_token, paybackShares);\r\n\r\n    // 2. update pool state\r\n    pool.totalBorrows = pool.totalBorrows.sub(paybackAmount);\r\n    pool.totalBorrowShares = pool.totalBorrowShares.sub(paybackShares);\r\n\r\n    // 3. update user state\r\n    userData.borrowShares = userData.borrowShares.sub(paybackShares);\r\n\r\n    // 4. transfer payback tokens to the pool\r\n    _token.safeTransferFrom(msg.sender, address(this), paybackAmount);\r\n    emit Repay(address(_token), msg.sender, paybackShares, paybackAmount);\r\n  }\r\n\r\n  /**\r\n   * @dev withdraw the ERC20 token from the pool\r\n   * @param _token the ERC20 token of the pool that user want to withdraw\r\n   * @param _share the alToken amount that user want to withdraw\r\n   * When user withdraw their liquidity shares or alToken, they will receive the ERC20 token from the pool\r\n   * equal to the alHello value.\r\n   * e.g. Bob want to withdraw 10 alHello. If 1 alHello equal to 10 Hello tokens then Bob will receive\r\n   * 100 Hello tokens after withdraw. Bob's alHello will be burned.\r\n   * Note: Bob cannot withdraw his alHello if his account is not healthy which means he uses all of his liquidity as\r\n   * collateral to cover his loan so he cannot withdraw or transfer his alHello.\r\n   */\r\n  function withdraw(ERC20 _token, uint256 _share)\r\n    external\r\n    nonReentrant\r\n    updatePoolWithInterestsAndTimestamp(_token)\r\n    updateAlphaReward\r\n  {\r\n    Pool storage pool = pools[address(_token)];\r\n    uint256 alBalance = pool.alToken.balanceOf(msg.sender);\r\n    require(\r\n      pool.status == PoolStatus.ACTIVE || pool.status == PoolStatus.CLOSED,\r\n      \"can't withdraw this pool\"\r\n    );\r\n    uint256 withdrawShares = _share;\r\n    if (withdrawShares > alBalance) {\r\n      withdrawShares = alBalance;\r\n    }\r\n\r\n    // 1. calculate liquidity amount from shares\r\n    uint256 withdrawAmount = calculateRoundDownLiquidityAmount(_token, withdrawShares);\r\n\r\n    // 2. burn al tokens of user equal to shares\r\n    pool.alToken.burn(msg.sender, withdrawShares);\r\n\r\n    // 3. transfer ERC20 tokens to user account\r\n    _token.transfer(msg.sender, withdrawAmount);\r\n\r\n    // 4. check account health. this transaction will revert if the account of this user is not healthy\r\n    require(isAccountHealthy(msg.sender), \"account is not healthy. can't withdraw\");\r\n    emit Withdraw(address(_token), msg.sender, withdrawShares, withdrawAmount);\r\n  }\r\n\r\n  /**\r\n   * @dev liquidate the unhealthy user account\r\n   * @param _user the address of the user that liquidator want to liquidate\r\n   * @param _token the token that liquidator whan to liquidate\r\n   * @param _liquidateShares the amount of token shares that liquidator want to liquidate\r\n   * @param _collateral the ERC20 token of the pool that liquidator will receive as a reward\r\n   * If the user's account health is not healthy, anothor user can become to the liquidator to liquidate\r\n   * the user account then got the collateral as a reward.\r\n   */\r\n  function liquidate(\r\n    address _user,\r\n    ERC20 _token,\r\n    uint256 _liquidateShares,\r\n    ERC20 _collateral\r\n  )\r\n    external\r\n    nonReentrant\r\n    updatePoolWithInterestsAndTimestamp(_token)\r\n    updatePoolWithInterestsAndTimestamp(_collateral)\r\n    updateAlphaReward\r\n  {\r\n    liquidateInternal(_user, _token, _liquidateShares, _collateral);\r\n  }\r\n\r\n  /**\r\n   * @dev liquidate the unhealthy user account (internal)\r\n   * @param _user the address of the user that liquidator want to liquidate\r\n   * @param _token the token that liquidator whan to liquidate\r\n   * @param _liquidateShares the amount of token shares that liquidator want to liquidate\r\n   * @param _collateral the ERC20 token of the pool that liquidator will receive as a reward\r\n   * e.g. Alice account is not healthy. Bob saw Alice account then want to liquidate 10 Hello borrow shares of Alice account\r\n   * and want to get the Seeyou tokens as the collateral. The steps that will happen is below:\r\n   * 1. Bob calls the liquidate function with _user is Alice address, _token is Hello token,\r\n   * _liquidateShare is 10, _collateral is Seeyou token to liquidate Alice account.\r\n   * 2. Contract check if Alice account is in an unhealthy state or not. If Alice account is\r\n   * still healthy, Bob cannot liquidate this account then this transaction will be revert.\r\n   * 3. Contract check if the collateral that Bob has requested enable for the liquidation reward both on\r\n   * pool enabling and Alice enabling.\r\n   * 4. Bob can liquidate Alice account if Alice has been borrowing Hello tokens from the pool.\r\n   * 5. Bob can liquidate from 0 to the max liquidate shares which equal to 50% of Alice's Hello borrow share.\r\n   * 6. Contract calculates the amount of collateral that Bob will receive as the rewards to convert to\r\n   * the amount of Seeyou shares. Seeyou shares is the alSeeyou token.\r\n   * 7. Bob pays Hello tokens equal to 10 Hello shares. If 1 Hello shares equal to 10 Hello tokens then Bob will\r\n   * pay 100 Hello token to the pool\r\n   * 8. The borrowing shares of the Hello token on Alice account will be decreased. The alSeeyou of Alice will be burned.\r\n   * 9. Bob will get 105 alSeeyou tokens.\r\n   * 10. Bob can withdraw the alHello tokens later to get the Hello tokens from the pool.\r\n   * Note: Hello and Seeyou are the imaginary ERC20 token.\r\n   */\r\n  function liquidateInternal(\r\n    address _user,\r\n    ERC20 _token,\r\n    uint256 _liquidateShares,\r\n    ERC20 _collateral\r\n  ) internal {\r\n    Pool storage pool = pools[address(_token)];\r\n    Pool storage collateralPool = pools[address(_collateral)];\r\n    UserPoolData storage userCollateralData = userPoolData[_user][address(_collateral)];\r\n    UserPoolData storage userTokenData = userPoolData[_user][address(_token)];\r\n    require(\r\n      pool.status == PoolStatus.ACTIVE || pool.status == PoolStatus.CLOSED,\r\n      \"can't liquidate this pool\"\r\n    );\r\n\r\n    // 0. Claim alpha token from latest user borrow\r\n    claimCurrentAlphaReward(_token, _user);\r\n\r\n    // 1. check account health of user to make sure that liquidator can liquidate this account\r\n    require(!isAccountHealthy(_user), \"user's account is healthy. can't liquidate this account\");\r\n\r\n    // 2. check if the user enables collateral\r\n    require(\r\n      !userCollateralData.disableUseAsCollateral,\r\n      \"user didn't enable the requested collateral\"\r\n    );\r\n\r\n    // 3. check if the token pool enable to use as collateral\r\n    require(\r\n      collateralPool.poolConfig.getCollateralPercent() > 0,\r\n      \"this pool isn't used as collateral\"\r\n    );\r\n\r\n    // 4. check if the user has borrowed tokens that liquidator want to liquidate\r\n    require(userTokenData.borrowShares > 0, \"user didn't borrow this token\");\r\n\r\n    // 5. calculate liquidate amount and shares\r\n    uint256 maxPurchaseShares = userTokenData.borrowShares.wadMul(CLOSE_FACTOR);\r\n    uint256 liquidateShares = _liquidateShares;\r\n    if (liquidateShares > maxPurchaseShares) {\r\n      liquidateShares = maxPurchaseShares;\r\n    }\r\n    uint256 liquidateAmount = calculateRoundUpBorrowAmount(_token, liquidateShares);\r\n\r\n    // 6. calculate collateral amount and shares\r\n    uint256 collateralAmount = calculateCollateralAmount(_token, liquidateAmount, _collateral);\r\n    uint256 collateralShares = calculateRoundUpLiquidityShareAmount(_collateral, collateralAmount);\r\n\r\n    // 7. transfer liquidate amount to the pool\r\n    _token.safeTransferFrom(msg.sender, address(this), liquidateAmount);\r\n\r\n    // 8. burn al token of user equal to collateral shares\r\n    require(\r\n      collateralPool.alToken.balanceOf(_user) > collateralShares,\r\n      \"user collateral isn't enough\"\r\n    );\r\n    collateralPool.alToken.burn(_user, collateralShares);\r\n\r\n    // 9. mint al token equal to collateral shares to liquidator\r\n    collateralPool.alToken.mint(msg.sender, collateralShares);\r\n\r\n    // 10. update pool state\r\n    pool.totalBorrows = pool.totalBorrows.sub(liquidateAmount);\r\n    pool.totalBorrowShares = pool.totalBorrowShares.sub(liquidateShares);\r\n\r\n    // 11. update user state\r\n    userTokenData.borrowShares = userTokenData.borrowShares.sub(liquidateShares);\r\n\r\n    emit Liquidate(\r\n      _user,\r\n      address(_token),\r\n      address(_collateral),\r\n      liquidateAmount,\r\n      liquidateShares,\r\n      collateralAmount,\r\n      collateralShares,\r\n      msg.sender\r\n    );\r\n  }\r\n\r\n  /**\r\n   * @dev calculate collateral amount that the liquidator will receive after the liquidation\r\n   * @param _token the token that liquidator whan to liquidate\r\n   * @param _liquidateAmount the amount of token that liquidator want to liquidate\r\n   * @param _collateral the ERC20 token of the pool that liquidator will receive as a reward\r\n   * @return the collateral amount of the liquidation\r\n   * This function will be call on liquidate function to calculate the collateral amount that\r\n   * liquidator will get after the liquidation. Liquidation bonus is expressed in percent. the collateral amount\r\n   * depends on each pool. If the Hello pool has liquidation bonus equal to 105% then the collateral value is\r\n   * more than the value of liquidated tokens around 5%. the formula is below:\r\n   * collateral amount = (token price * liquidate amount * liquidation bonus percent) / collateral price\r\n   */\r\n  function calculateCollateralAmount(\r\n    ERC20 _token,\r\n    uint256 _liquidateAmount,\r\n    ERC20 _collateral\r\n  ) internal view returns (uint256) {\r\n    require(address(priceOracle) != address(0), \"price oracle isn't initialized\");\r\n    uint256 tokenPricePerUnit = priceOracle.getAssetPrice(address(_token));\r\n    require(tokenPricePerUnit > 0, \"liquidated token price isn't correct\");\r\n    uint256 collateralPricePerUnit = priceOracle.getAssetPrice(address(_collateral));\r\n    require(collateralPricePerUnit > 0, \"collateral price isn't correct\");\r\n    uint256 liquidationBonus = pools[address(_token)].poolConfig.getLiquidationBonusPercent();\r\n    return (\r\n      tokenPricePerUnit.mul(_liquidateAmount).wadMul(liquidationBonus).div(collateralPricePerUnit)\r\n    );\r\n  }\r\n\r\n  /**\r\n   * @dev set reserve percent for admin\r\n   * @param _reservePercent the percent of pool reserve\r\n   */\r\n  function setReservePercent(uint256 _reservePercent) external onlyOwner {\r\n    uint256 previousReservePercent = reservePercent;\r\n    reservePercent = _reservePercent;\r\n    emit ReservePercentUpdated(previousReservePercent, reservePercent);\r\n  }\r\n\r\n  /**\r\n   * @dev withdraw function for admin to get the reserves\r\n   * @param _token the ERC20 token of the pool to withdraw\r\n   * @param _amount amount to withdraw\r\n   */\r\n  function withdrawReserve(ERC20 _token, uint256 _amount)\r\n    external\r\n    nonReentrant\r\n    updatePoolWithInterestsAndTimestamp(_token)\r\n    onlyOwner\r\n  {\r\n    Pool storage pool = pools[address(_token)];\r\n    uint256 poolBalance = _token.balanceOf(address(this));\r\n    require(_amount <= poolBalance, \"pool balance insufficient\");\r\n    // admin can't withdraw more than pool's reserve\r\n    require(_amount <= pool.poolReserves, \"amount is more than pool reserves\");\r\n    _token.safeTransfer(msg.sender, _amount);\r\n    pool.poolReserves = pool.poolReserves.sub(_amount);\r\n    emit ReserveWithdrawn(address(_token), _amount, msg.sender);\r\n  }\r\n\r\n  // ==================  Distribute AlphaToken  ========================\r\n\r\n  /**\r\n    @dev set distributor address\r\n   */\r\n  function setDistributor(IAlphaDistributor _distributor) public onlyOwner {\r\n    distributor = _distributor;\r\n  }\r\n\r\n  /**\r\n    @dev set vesting alpha address\r\n   */\r\n  function setVestingAlpha(IVestingAlpha _vestingAlpha) public onlyOwner {\r\n    vestingAlpha = _vestingAlpha;\r\n  }\r\n\r\n  /**\r\n   * @dev implement function of IAlphaReceiver interface to\r\n   * receive Alpha token rewards from the distributor\r\n   * @param _amount the amount of Alpha token to receive\r\n   */\r\n  function receiveAlpha(uint256 _amount) external override {\r\n    require(msg.sender == address(distributor), \"Only distributor can call receive Alpha\");\r\n    // Calculate total borrow value.\r\n    uint256[] memory borrows = new uint256[](tokenList.length);\r\n    uint256 totalBorrow = 0;\r\n\r\n    for (uint256 i = 0; i < tokenList.length; i++) {\r\n      if (pools[address(tokenList[i])].status == PoolStatus.ACTIVE) {\r\n        borrows[i] = totalBorrowInUSD(tokenList[i]);\r\n        totalBorrow = totalBorrow.add(borrows[i]);\r\n      }\r\n    }\r\n    // This contract should not receive alpha token if no borrow value lock in.\r\n    if (totalBorrow == 0) {\r\n      return;\r\n    }\r\n    distributor.alphaToken().transferFrom(msg.sender, address(this), _amount);\r\n    for (uint256 i = 0; i < borrows.length; i++) {\r\n      Pool storage pool = pools[address(tokenList[i])];\r\n      if (pool.status == PoolStatus.ACTIVE) {\r\n        uint256 portion = _amount.mul(borrows[i]).div(totalBorrow);\r\n        (uint256 lendersGain, uint256 borrowersGain) = splitReward(tokenList[i], portion);\r\n        // Distribute the Alpha token to the lenders (AlToken holder)\r\n        distributor.alphaToken().approve(address(pool.alToken), lendersGain);\r\n        pool.alToken.receiveAlpha(lendersGain);\r\n\r\n        // Distribute the Alpha token to the borrowers\r\n        updateBorrowAlphaReward(pool, borrowersGain);\r\n      }\r\n    }\r\n  }\r\n\r\n  /**\r\n   * @dev claim Alpha token rewards from all ERC20 token pools and create receipt for caller\r\n   */\r\n  function claimAlpha() external updateAlphaReward nonReentrant {\r\n    for (uint256 i = 0; i < tokenList.length; i++) {\r\n      Pool storage pool = pools[address(tokenList[i])];\r\n\r\n      // claim Alpha rewards as a lender\r\n      pool.alToken.claimCurrentAlphaRewardByOwner(msg.sender);\r\n\r\n      // claim Alpha reward as a borrower\r\n      claimCurrentAlphaReward(tokenList[i], msg.sender);\r\n    }\r\n  }\r\n\r\n  /**\r\n   * @dev update Alpha rewards for the borrower of the ERC20 pool\r\n   * @param _pool the ERC20 token pool to update the Alpha rewards\r\n   * @param _amount the total amount of the rewards to all borrowers of the pool\r\n   */\r\n  function updateBorrowAlphaReward(Pool storage _pool, uint256 _amount) internal {\r\n    _pool.totalAlphaTokenReward = _pool.totalAlphaTokenReward.add(_amount);\r\n    if (_pool.totalBorrowShares == 0) {\r\n      return;\r\n    }\r\n    _pool.alphaMultiplier = _pool.alphaMultiplier.add(\r\n      _amount.mul(1e12).div(_pool.totalBorrowShares)\r\n    );\r\n  }\r\n\r\n  /**\r\n   * @dev split the Alpha rewards between the lenders and borrowers\r\n   * @param _token the ERC20 token pool\r\n   * @param _amount the amount of Alpha token rewards to split\r\n   * @return lendersGain - the rewards's lenders gain\r\n   * borrowersGain - the rewards's borrower gain\r\n   */\r\n  function splitReward(ERC20 _token, uint256 _amount)\r\n    internal\r\n    view\r\n    returns (uint256 lendersGain, uint256 borrowersGain)\r\n  {\r\n    Pool storage pool = pools[address(_token)];\r\n    uint256 utilizationRate = pool.poolConfig.getUtilizationRate(\r\n      pool.totalBorrows,\r\n      getTotalLiquidity(_token)\r\n    );\r\n    uint256 optimal = pool.poolConfig.getOptimalUtilizationRate();\r\n    if (utilizationRate <= optimal) {\r\n      // lenders gain = amount * ((EQUILIBRIUM / OPTIMAL) * utilization rate)\r\n      lendersGain = (optimal == 0)\r\n        ? 0\r\n        : _amount.wadMul(EQUILIBRIUM).wadMul(utilizationRate).wadDiv(optimal);\r\n    } else {\r\n      // lenders gain = amount * ((EQUILIBRIUM * (utilization rate - OPTIMAL)) / (MAX_UTILIZATION_RATE - OPTIMAL)) + EQUILIBRIUM)\r\n      lendersGain = (utilizationRate >= MAX_UTILIZATION_RATE)\r\n        ? _amount\r\n        : _amount.wadMul(\r\n          EQUILIBRIUM\r\n            .wadMul(utilizationRate.sub(optimal))\r\n            .wadDiv(MAX_UTILIZATION_RATE.sub(optimal))\r\n            .add(EQUILIBRIUM)\r\n        );\r\n    }\r\n    // borrowers gain = amount - lenders gain\r\n    borrowersGain = _amount.sub(lendersGain);\r\n  }\r\n\r\n  function calculateAlphaReward(ERC20 _token, address _account) public view returns (uint256) {\r\n    Pool storage pool = pools[address(_token)];\r\n    UserPoolData storage userData = userPoolData[_account][address(_token)];\r\n    //               reward start block                                        now\r\n    // Global                |----------------|----------------|----------------|\r\n    // User's latest reward  |----------------|----------------|\r\n    // User's Alpha rewards                                    |----------------|\r\n    // reward = [(Global Alpha multiplier - user's lastest Alpha multiplier) * user's Alpha token] / 1e12\r\n    uint256 pending = pool\r\n      .alphaMultiplier\r\n      .sub(userData.latestAlphaMultiplier)\r\n      .mul(userData.borrowShares)\r\n      .div(1e12);\r\n    return pending < pool.totalAlphaTokenReward ? pending : pool.totalAlphaTokenReward;\r\n  }\r\n\r\n  /**\r\n   * @dev claim Alpha tokens rewards\r\n   * @param _token the ERC20 pool\r\n   * @param _account the user account that will claim the Alpha tokens\r\n   */\r\n  function claimCurrentAlphaReward(ERC20 _token, address _account) internal {\r\n    // No op if alpha distributor didn't be set in lending pool.\r\n    if (address(distributor) == address(0)) {\r\n      return;\r\n    }\r\n    Pool storage pool = pools[address(_token)];\r\n    UserPoolData storage userData = userPoolData[_account][address(_token)];\r\n    uint256 reward = calculateAlphaReward(_token, _account);\r\n    pool.totalAlphaTokenReward = pool.totalAlphaTokenReward.sub(reward);\r\n    userData.latestAlphaMultiplier = pool.alphaMultiplier;\r\n    sendAlphaReward(_account, reward);\r\n  }\r\n\r\n  /**\r\n   * @dev send Alpha tokens to the recipient\r\n   * @param _recipient the recipient of the Alpha reward\r\n   * @param _amount the Alpha reward amount to send\r\n   */\r\n  function sendAlphaReward(address _recipient, uint256 _amount) internal {\r\n    if (address(vestingAlpha) == address(0)) {\r\n      distributor.alphaToken().transfer(_recipient, _amount);\r\n    } else {\r\n      distributor.alphaToken().approve(address(vestingAlpha), _amount);\r\n      vestingAlpha.accumulateAlphaToUser(_recipient, _amount);\r\n    }\r\n  }\r\n}\r\n",
  "sourcePath": "D:/Lending-Development/Lending/contracts/LendingPool.sol",
  "compiler": {
    "name": "solc",
    "version": "0.6.11+commit.5ef660b1.Emscripten.clang"
  },
  "schemaVersion": "3.2.5",
  "updatedAt": "2020-11-03T00:52:35.708Z",
  "devdoc": {
    "author": "Alpha*",
    "events": {
      "Borrow(address,address,uint256,uint256)": {
        "details": "emitted on borrow",
        "params": {
          "borrowAmount": "the amount of borrow",
          "borrowShares": "the amount of borrow shares which calculated from borrow amount",
          "pool": "the address of the ERC20 token of the pool",
          "user": "the address of the user who borrow the ERC20 token from the pool"
        }
      },
      "Deposit(address,address,uint256,uint256)": {
        "details": "emitted on deposit",
        "params": {
          "depositAmount": "the amount of the ERC20 that deposit to the pool",
          "depositShares": "the share amount of the ERC20 token which calculated from deposit amount Note: depositShares is the same as number of alphaToken",
          "pool": "the address of the ERC20 token of the pool",
          "user": "the address of the user who deposit the ERC20 token to the pool"
        }
      },
      "Liquidate(address,address,address,uint256,uint256,uint256,uint256,address)": {
        "details": "emitted on liquidate",
        "params": {
          "collateral": "the address of the ERC20 token that liquidator received as a rewards",
          "collateralAmount": "the amount of the collateral which calculated from liquidate amount that liquidator want to liquidate",
          "collateralShares": "the amount of collateral shares which liquidator received from liquidation in from of alToken",
          "liquidateAmount": "the amount of the ERC20 token that liquidator liquidate for the user",
          "liquidateShares": "the amount of liquidate shares which calculated from liquidate amount",
          "liquidator": "the address of the liquidator",
          "pool": "the address of the ERC20 token which is liquidated by liquidator",
          "user": "the address of the user who is liquidated by liquidator"
        }
      },
      "PoolConfigUpdated(address,address)": {
        "details": "emitted on update pool configuration",
        "params": {
          "pool": "the address of the ERC20 token of the pool",
          "poolConfigAddress": "the address of the updated pool's configuration contract"
        }
      },
      "PoolInitialized(address,address,address)": {
        "details": "emitted on initilize pool",
        "params": {
          "alTokenAddress": "the address of the pool's alToken",
          "pool": "the address of the ERC20 token of the pool",
          "poolConfigAddress": "the address of the pool's configuration contract"
        }
      },
      "PoolInterestUpdated(address,uint256,uint256)": {
        "details": "emitted on pool updates interest",
        "params": {
          "cumulativeBorrowInterest": "the borrow interest which accumulated from last update timestamp to now",
          "pool": "the address of the ERC20 token of the pool",
          "totalBorrows": "the updated total borrows of the pool. increasing by the cumulative borrow interest."
        }
      },
      "PoolPriceOracleUpdated(address)": {
        "details": "emitted on set price oracle",
        "params": {
          "priceOracleAddress": "the address of the price oracle"
        }
      },
      "Repay(address,address,uint256,uint256)": {
        "details": "emitted on repay",
        "params": {
          "pool": "the address of the ERC20 token of the pool",
          "repayAmount": "the amount of repay",
          "repayShares": "the amount of repay shares which calculated from repay amount",
          "user": "the address of the user who repay the ERC20 token to the pool"
        }
      },
      "ReservePercentUpdated(uint256,uint256)": {
        "details": "emitted on update reserve percent",
        "params": {
          "newReservePercent": "the updated pool's reserve percent",
          "previousReservePercent": "the previous pool's reserve percent"
        }
      },
      "ReserveWithdrawn(address,uint256,address)": {
        "details": "emitted on reserve withdraw",
        "params": {
          "amount": "the amount to withdraw",
          "pool": "the address of the ERC20 token of the pool",
          "withdrawer": "the address of withdrawer"
        }
      },
      "Withdraw(address,address,uint256,uint256)": {
        "details": "emitted on withdraw alToken",
        "params": {
          "pool": "the address of the ERC20 token of the pool",
          "user": "the address of the user who withdraw the ERC20 token from the pool",
          "withdrawAmount": "the amount of withdraw",
          "withdrawShares": "the amount of withdraw shares which calculated from withdraw amount"
        }
      }
    },
    "kind": "dev",
    "methods": {
      "borrow(address,uint256)": {
        "details": "borrow the ERC20 token from the pool",
        "params": {
          "_amount": "the borrow amount User can call this function to borrow the ERC20 token from the pool. This function will convert the borrow amount to the borrow shares then accumulate borrow shares of this user of this ERC20 pool then set to user data on that pool state. e.g. Bob borrows 10 Hello tokens from the Hello token pool. if 1 borrow shares of Hello token equals to 5 Hello tokens then the lending contract will set Bob's borrow shares state with 2 borrow shares. Bob will receive 10 Hello tokens.",
          "_token": "the ERC20 token of the pool that user want to borrow"
        }
      },
      "claimAlpha()": {
        "details": "claim Alpha token rewards from all ERC20 token pools and create receipt for caller"
      },
      "deposit(address,uint256)": {
        "details": "deposit the ERC20 token to the pool",
        "params": {
          "_amount": "the deposit amount User can call this function to deposit their ERC20 token to the pool. user will receive the alToken of that ERC20 token which represent the liquidity shares of the user. Providing the liquidity will receive an interest from the the borrower as an incentive. e.g. Alice deposits 10 Hello tokens to the pool. if 1 Hello token shares equals to 2 Hello tokens then Alice will have 5 Hello token shares from 10 Hello tokens depositing. User will receive the liquidity shares in the form of alToken so Alice will have 5 alHello on her wallet for representing her shares.",
          "_token": "the ERC20 token of the pool that user want to deposit"
        }
      },
      "getPool(address)": {
        "details": "get the pool of the ERC20 token",
        "params": {
          "_token": "the ERC20 token of the pool"
        },
        "returns": {
          "status": "- the pool's status, alTokenAddress - the pool's alToken, poolConfigAddress - the pool's configuration contract, totalBorrows - the pool's total borrows, totalBorrowShares - the pool's total borrow shares, totalLiquidity - the pool's total liquidity, totalAvailableLiquidity - the pool's total available liquidity, lastUpdateTimestamp - the pool's last update timestamp"
        }
      },
      "getTotalAvailableLiquidity(address)": {
        "details": "get total available liquidity in the ERC20 token pool",
        "params": {
          "_token": "the ERC20 token of the pool"
        },
        "returns": {
          "_0": "the balance of the ERC20 token in the pool"
        }
      },
      "getTotalLiquidity(address)": {
        "details": "get total liquidity of the ERC20 token pool",
        "params": {
          "_token": "the ERC20 token of the pool"
        },
        "returns": {
          "_0": "the total liquidity on the lending pool which is the sum of total borrows and available liquidity"
        }
      },
      "getUserAccount(address)": {
        "details": "get user account details",
        "params": {
          "_user": "the address of the user to get the account details return totalLiquidityBalanceBase - the value of user's total liquidity, totalCollateralBalanceBase - the value of user's total collateral, totalBorrowBalanceBase - the value of user's total borrow"
        }
      },
      "getUserCompoundedBorrowBalance(address,address)": {
        "details": "get user's compounded borrow balance of the user in the ERC20 token pool",
        "params": {
          "_token": "the ERC20 token of the pool that will get the compounded borrow balance",
          "_user": "the address of the user"
        },
        "returns": {
          "_0": "the compounded borrow balance of the user on the ERC20 token pool"
        }
      },
      "getUserCompoundedLiquidityBalance(address,address)": {
        "details": "get user's compounded liquidity balance of the user in the ERC20 token pool",
        "params": {
          "_token": "the ERC20 token of the pool that will get the compounded liquidity balance",
          "_user": "the account address of the user"
        },
        "returns": {
          "_0": "the compounded liquidity balance of the user on the ERC20 token pool"
        }
      },
      "getUserPoolData(address,address)": {
        "details": "get user data of the ERC20 token pool",
        "params": {
          "_token": "the ERC20 token of the pool that need to get the data of the user",
          "_user": "the address of user that need to get the data"
        },
        "returns": {
          "compoundedLiquidityBalance": "- the compounded liquidity balance of this user in this ERC20 token pool, compoundedBorrowBalance - the compounded borrow balance of this user in this ERC20 pool, userUsePoolAsCollateral - the boolean flag that the user uses the liquidity in this ERC20 token pool as collateral or not"
        }
      },
      "initPool(address,address)": {
        "details": "initialize the ERC20 token pool. only owner can initialize the pool.",
        "params": {
          "_poolConfig": "the configuration contract of the pool",
          "_token": "the ERC20 token of the pool"
        }
      },
      "isAccountHealthy(address)": {
        "details": "check is the user account is still healthy Traverse a token list to visit all ERC20 token pools then accumulate 3 balance values of the user: ----------------------------- 1. user's total liquidity balance. Accumulate the user's liquidity balance of all ERC20 token pools 2. user's total borrow balance. Accumulate the user's borrow balance of all ERC20 token pools 3. user's total collateral balance. each ERC20 token has the different max loan-to-value (collateral percent) or the percent of liquidity that can actually use as collateral for the borrowing. e.g. if B token has 75% collateral percent means the collateral balance is 75 if the user's has 100 B token balance ----------------------------- the account is still healthy if total borrow value is less than total collateral value. This means the user's collateral still cover the user's loan. In case of total borrow value is more than total collateral value then user's account is not healthy.",
        "params": {
          "_user": "the address of the user that will check the account health status"
        },
        "returns": {
          "_0": "the boolean that represent the account health status. Returns true if account is still healthy, false if account is not healthy."
        }
      },
      "liquidate(address,address,uint256,address)": {
        "details": "liquidate the unhealthy user account",
        "params": {
          "_collateral": "the ERC20 token of the pool that liquidator will receive as a reward If the user's account health is not healthy, anothor user can become to the liquidator to liquidate the user account then got the collateral as a reward.",
          "_liquidateShares": "the amount of token shares that liquidator want to liquidate",
          "_token": "the token that liquidator whan to liquidate",
          "_user": "the address of the user that liquidator want to liquidate"
        }
      },
      "owner()": {
        "details": "Returns the address of the current owner."
      },
      "receiveAlpha(uint256)": {
        "details": "implement function of IAlphaReceiver interface to receive Alpha token rewards from the distributor",
        "params": {
          "_amount": "the amount of Alpha token to receive"
        }
      },
      "renounceOwnership()": {
        "details": "Leaves the contract without owner. It will not be possible to call `onlyOwner` functions anymore. Can only be called by the current owner. NOTE: Renouncing ownership will leave the contract without an owner, thereby removing any functionality that is only available to the owner."
      },
      "repayByAmount(address,uint256)": {
        "details": "repay the ERC20 token to the pool equal to repay amount",
        "params": {
          "_amount": "the repay amount User can call this function to repay the ERC20 token to the pool. For user's convenience, this function will convert repay amount to repay shares then do the repay.",
          "_token": "the ERC20 token of the pool that user want to repay"
        }
      },
      "repayByShare(address,uint256)": {
        "details": "repay the ERC20 token to the pool equal to repay shares",
        "params": {
          "_share": "the amount of borrow shares thet user want to repay User can call this function to repay the ERC20 token to the pool. This function will do the repay equal to repay shares",
          "_token": "the ERC20 token of the pool that user want to repay"
        }
      },
      "setDistributor(address)": {
        "details": "set distributor address"
      },
      "setPoolConfig(address,address)": {
        "details": "set pool configuration contract of the pool. only owner can set the pool configuration.",
        "params": {
          "_poolConfig": "the interface of the pool's configuration contract",
          "_token": "the ERC20 token of the pool that will set the configuration"
        }
      },
      "setPoolStatus(address,uint8)": {
        "details": "set the status of the lending pool. only owner can set the pool's status",
        "params": {
          "_status": "the status of the pool",
          "_token": "the ERC20 token of the pool"
        }
      },
      "setPriceOracle(address)": {
        "details": "set price oracle of the lending pool. only owner can set the price oracle.",
        "params": {
          "_oracle": "the price oracle which will get asset price to the lending pool contract"
        }
      },
      "setReservePercent(uint256)": {
        "details": "set reserve percent for admin",
        "params": {
          "_reservePercent": "the percent of pool reserve"
        }
      },
      "setUserUseAsCollateral(address,bool)": {
        "details": "set user uses the ERC20 token as collateral flag",
        "params": {
          "_token": "the ERC20 token of the pool",
          "_useAsCollateral": "the boolean that represent user use the ERC20 token on the pool as collateral or not"
        }
      },
      "setVestingAlpha(address)": {
        "details": "set vesting alpha address"
      },
      "transferOwnership(address)": {
        "details": "Transfers ownership of the contract to a new account (`newOwner`). Can only be called by the current owner."
      },
      "withdraw(address,uint256)": {
        "details": "withdraw the ERC20 token from the pool",
        "params": {
          "_share": "the alToken amount that user want to withdraw When user withdraw their liquidity shares or alToken, they will receive the ERC20 token from the pool equal to the alHello value. e.g. Bob want to withdraw 10 alHello. If 1 alHello equal to 10 Hello tokens then Bob will receive 100 Hello tokens after withdraw. Bob's alHello will be burned. Note: Bob cannot withdraw his alHello if his account is not healthy which means he uses all of his liquidity as collateral to cover his loan so he cannot withdraw or transfer his alHello.",
          "_token": "the ERC20 token of the pool that user want to withdraw"
        }
      },
      "withdrawReserve(address,uint256)": {
        "details": "withdraw function for admin to get the reserves",
        "params": {
          "_amount": "amount to withdraw",
          "_token": "the ERC20 token of the pool to withdraw"
        }
      }
    },
    "stateVariables": {
      "alTokenDeployer": {
        "details": "AltokenDeployer address"
      },
      "distributor": {
        "details": "alpha token address contract."
      },
      "pools": {
        "details": "the mapping from the ERC20 token to the pool struct of that ERC20 token token address => pool"
      },
      "priceOracle": {
        "details": "price oracle of the lending pool contract."
      },
      "tokenList": {
        "details": "list of all tokens on the lending pool contract."
      },
      "userPoolData": {
        "details": "the mapping from user address to the ERC20 token to the user data of that ERC20 token's pool user address => token address => user pool data"
      },
      "vestingAlpha": {
        "details": "VestingAlpha address"
      }
    },
    "title": "Lending pool contract",
    "version": 1
  },
  "userdoc": {
    "kind": "user",
    "methods": {},
    "notice": "Implements the core contract of lending pool. this contract manages all states and handles user interaction with the pool.",
    "version": 1
  }
}