{
  "contractName": "PoolConfiguration",
  "abi": [
    {
      "inputs": [
        {
          "internalType": "uint256",
          "name": "_baseBorrowRate",
          "type": "uint256"
        },
        {
          "internalType": "uint256",
          "name": "_rateSlope1",
          "type": "uint256"
        },
        {
          "internalType": "uint256",
          "name": "_rateSlope2",
          "type": "uint256"
        },
        {
          "internalType": "uint256",
          "name": "_collateralPercent",
          "type": "uint256"
        },
        {
          "internalType": "uint256",
          "name": "_liquidationBonusPercent",
          "type": "uint256"
        },
        {
          "internalType": "uint256",
          "name": "_optimalUtilizationRate",
          "type": "uint256"
        },
        {
          "internalType": "uint256",
          "name": "_excessUtilizationRate",
          "type": "uint256"
        }
      ],
      "stateMutability": "nonpayable",
      "type": "constructor"
    },
    {
      "anonymous": false,
      "inputs": [
        {
          "indexed": true,
          "internalType": "address",
          "name": "previousOwner",
          "type": "address"
        },
        {
          "indexed": true,
          "internalType": "address",
          "name": "newOwner",
          "type": "address"
        }
      ],
      "name": "OwnershipTransferred",
      "type": "event"
    },
    {
      "inputs": [],
      "name": "baseBorrowRate",
      "outputs": [
        {
          "internalType": "uint256",
          "name": "",
          "type": "uint256"
        }
      ],
      "stateMutability": "view",
      "type": "function"
    },
    {
      "inputs": [],
      "name": "collateralPercent",
      "outputs": [
        {
          "internalType": "uint256",
          "name": "",
          "type": "uint256"
        }
      ],
      "stateMutability": "view",
      "type": "function"
    },
    {
      "inputs": [],
      "name": "excessUtilizationRate",
      "outputs": [
        {
          "internalType": "uint256",
          "name": "",
          "type": "uint256"
        }
      ],
      "stateMutability": "view",
      "type": "function"
    },
    {
      "inputs": [],
      "name": "liquidationBonusPercent",
      "outputs": [
        {
          "internalType": "uint256",
          "name": "",
          "type": "uint256"
        }
      ],
      "stateMutability": "view",
      "type": "function"
    },
    {
      "inputs": [],
      "name": "optimalUtilizationRate",
      "outputs": [
        {
          "internalType": "uint256",
          "name": "",
          "type": "uint256"
        }
      ],
      "stateMutability": "view",
      "type": "function"
    },
    {
      "inputs": [],
      "name": "owner",
      "outputs": [
        {
          "internalType": "address",
          "name": "",
          "type": "address"
        }
      ],
      "stateMutability": "view",
      "type": "function"
    },
    {
      "inputs": [],
      "name": "rateSlope1",
      "outputs": [
        {
          "internalType": "uint256",
          "name": "",
          "type": "uint256"
        }
      ],
      "stateMutability": "view",
      "type": "function"
    },
    {
      "inputs": [],
      "name": "rateSlope2",
      "outputs": [
        {
          "internalType": "uint256",
          "name": "",
          "type": "uint256"
        }
      ],
      "stateMutability": "view",
      "type": "function"
    },
    {
      "inputs": [],
      "name": "renounceOwnership",
      "outputs": [],
      "stateMutability": "nonpayable",
      "type": "function"
    },
    {
      "inputs": [
        {
          "internalType": "address",
          "name": "newOwner",
          "type": "address"
        }
      ],
      "name": "transferOwnership",
      "outputs": [],
      "stateMutability": "nonpayable",
      "type": "function"
    },
    {
      "inputs": [],
      "name": "getBaseBorrowRate",
      "outputs": [
        {
          "internalType": "uint256",
          "name": "",
          "type": "uint256"
        }
      ],
      "stateMutability": "view",
      "type": "function"
    },
    {
      "inputs": [],
      "name": "getCollateralPercent",
      "outputs": [
        {
          "internalType": "uint256",
          "name": "",
          "type": "uint256"
        }
      ],
      "stateMutability": "view",
      "type": "function"
    },
    {
      "inputs": [],
      "name": "getLiquidationBonusPercent",
      "outputs": [
        {
          "internalType": "uint256",
          "name": "",
          "type": "uint256"
        }
      ],
      "stateMutability": "view",
      "type": "function"
    },
    {
      "inputs": [
        {
          "internalType": "uint256",
          "name": "_totalBorrows",
          "type": "uint256"
        },
        {
          "internalType": "uint256",
          "name": "_totalLiquidity",
          "type": "uint256"
        }
      ],
      "name": "calculateInterestRate",
      "outputs": [
        {
          "internalType": "uint256",
          "name": "",
          "type": "uint256"
        }
      ],
      "stateMutability": "view",
      "type": "function"
    },
    {
      "inputs": [],
      "name": "getOptimalUtilizationRate",
      "outputs": [
        {
          "internalType": "uint256",
          "name": "",
          "type": "uint256"
        }
      ],
      "stateMutability": "view",
      "type": "function"
    },
    {
      "inputs": [
        {
          "internalType": "uint256",
          "name": "_totalBorrows",
          "type": "uint256"
        },
        {
          "internalType": "uint256",
          "name": "_totalLiquidity",
          "type": "uint256"
        }
      ],
      "name": "getUtilizationRate",
      "outputs": [
        {
          "internalType": "uint256",
          "name": "",
          "type": "uint256"
        }
      ],
      "stateMutability": "view",
      "type": "function"
    }
  ],
  "bytecode": "0x608060405234801561001057600080fd5b506040516108eb3803806108eb833981810160405260e081101561003357600080fd5b508051602082015160408301516060840151608085015160a086015160c090960151949593949293919290919060006100736001600160e01b036100e016565b600080546001600160a01b0319166001600160a01b0383169081178255604051929350917f8be0079c531659141344cd1fd0a4f28419497f9722a3daafe3b4186f6b6457e0908290a3506001969096556002949094556003929092556004556005556006556007556100e4565b3390565b6107f8806100f36000396000f3fe608060405234801561001057600080fd5b50600436106101005760003560e01c8063a579678511610097578063da423bd511610066578063da423bd5146101cb578063dffd2b38146101d3578063e21f7923146101db578063f2fde38b146101e357610100565b8063a579678514610190578063bf386682146101b3578063ca6389f3146101bb578063ccc12094146101c357610100565b80634d489a18116100d35780634d489a18146101525780635454a4b61461015a578063715018a6146101625780638da5cb5b1461016c57610100565b806304366b58146101055780631eedf5c71461011f5780633dd6b14a1461012757806345ade0511461012f575b600080fd5b61010d610209565b60408051918252519081900360200190f35b61010d61020f565b61010d610215565b61010d6004803603604081101561014557600080fd5b508035906020013561021b565b61010d610244565b61010d61024a565b61016a610250565b005b610174610304565b604080516001600160a01b039092168252519081900360200190f35b61010d600480360360408110156101a657600080fd5b5080359060200135610313565b61010d6103ce565b61010d6103d4565b61010d6103da565b61010d6103e0565b61010d6103e6565b61010d6103ec565b61016a600480360360208110156101f957600080fd5b50356001600160a01b03166103f2565b60045490565b60035481565b60055481565b6000811561023857610233838363ffffffff6104fc16565b61023b565b60005b90505b92915050565b60065490565b60025481565b610258610526565b6000546001600160a01b039081169116146102ba576040805162461bcd60e51b815260206004820181905260248201527f4f776e61626c653a2063616c6c6572206973206e6f7420746865206f776e6572604482015290519081900360640190fd5b600080546040516001600160a01b03909116907f8be0079c531659141344cd1fd0a4f28419497f9722a3daafe3b4186f6b6457e0908390a3600080546001600160a01b0319169055565b6000546001600160a01b031690565b600080610320848461021b565b90506006548111156103995760006103556007546103496006548561052a90919063ffffffff16565b9063ffffffff6104fc16565b905061039061036f8260035461056c90919063ffffffff16565b6002546001546103849163ffffffff61058a16565b9063ffffffff61058a16565b9250505061023e565b6103c66103b76006546103496002548561056c90919063ffffffff16565b6001549063ffffffff61058a16565b91505061023e565b60015481565b60015490565b60045481565b60055490565b60065481565b60075481565b6103fa610526565b6000546001600160a01b0390811691161461045c576040805162461bcd60e51b815260206004820181905260248201527f4f776e61626c653a2063616c6c6572206973206e6f7420746865206f776e6572604482015290519081900360640190fd5b6001600160a01b0381166104a15760405162461bcd60e51b815260040180806020018281038252602681526020018061077c6026913960400191505060405180910390fd5b600080546040516001600160a01b03808516939216917f8be0079c531659141344cd1fd0a4f28419497f9722a3daafe3b4186f6b6457e091a3600080546001600160a01b0319166001600160a01b0392909216919091179055565b600061023b8261051a85670de0b6b3a764000063ffffffff6105e416565b9063ffffffff61063d16565b3390565b600061023b83836040518060400160405280601e81526020017f536166654d6174683a207375627472616374696f6e206f766572666c6f77000081525061067f565b600061023b670de0b6b3a764000061051a858563ffffffff6105e416565b60008282018381101561023b576040805162461bcd60e51b815260206004820152601b60248201527f536166654d6174683a206164646974696f6e206f766572666c6f770000000000604482015290519081900360640190fd5b6000826105f35750600061023e565b8282028284828161060057fe5b041461023b5760405162461bcd60e51b81526004018080602001828103825260218152602001806107a26021913960400191505060405180910390fd5b600061023b83836040518060400160405280601a81526020017f536166654d6174683a206469766973696f6e206279207a65726f000000000000815250610716565b6000818484111561070e5760405162461bcd60e51b81526004018080602001828103825283818151815260200191508051906020019080838360005b838110156106d35781810151838201526020016106bb565b50505050905090810190601f1680156107005780820380516001836020036101000a031916815260200191505b509250505060405180910390fd5b505050900390565b600081836107655760405162461bcd60e51b81526020600482018181528351602484015283519092839260449091019190850190808383600083156106d35781810151838201526020016106bb565b50600083858161077157fe5b049594505050505056fe4f776e61626c653a206e6577206f776e657220697320746865207a65726f2061646472657373536166654d6174683a206d756c7469706c69636174696f6e206f766572666c6f77a26469706673582212205dabfa8b08a84cbdb60435d3c0326ce957b65c4b3baa5f4fd20c0acec6a6e42c64736f6c634300060b0033",
  "immutableReferences": {},
  "source": "pragma solidity >=0.6.11;\r\n\r\nimport \"openzeppelin-solidity/contracts/access/Ownable.sol\";\r\nimport \"openzeppelin-solidity/contracts/math/SafeMath.sol\";\r\nimport \"./interfaces/IPoolConfiguration.sol\";\r\nimport \"./libraries/WadMath.sol\";\r\n\r\n/**\r\n * @title Pool configuration contract\r\n * @notice Implements the configuration of the ERC20 token pool.\r\n * @author Alpha\r\n **/\r\n\r\ncontract PoolConfiguration is IPoolConfiguration, Ownable {\r\n  using SafeMath for uint256;\r\n  using WadMath for uint256;\r\n\r\n  /**\r\n   * @notice the borrow interest rate calculation\r\n   * Borrow interest rate(%)\r\n   *  ^\r\n   *  |             |    /\r\n   *  |             |   /\r\n   *  |             |  /<------ rate slope 2\r\n   *  |             | /\r\n   *  |         ____|/\r\n   *  |    ____/    |\r\n   *  | __/<--------|-------- rate slope 1\r\n   *  |/<-----------|-------- base borrow rate\r\n   *  |-------------|------|  Utilization rate(%)\r\n   *  0             80    100\r\n   *               ^   ^\r\n   *               |   | excess utilization rate\r\n   *               | optimal utilization rate\r\n   *\r\n   * When the utilization rate is too high (over 80%) the the pool will use rate slope 2 to calculate\r\n   * the borrow interest rate which grow very fast to protect the liquidity in the pool.\r\n   */\r\n\r\n  uint256 public baseBorrowRate;\r\n  uint256 public rateSlope1;\r\n  uint256 public rateSlope2;\r\n  uint256 public collateralPercent;\r\n  uint256 public liquidationBonusPercent;\r\n  uint256 public optimalUtilizationRate;\r\n  uint256 public excessUtilizationRate;\r\n\r\n  constructor(\r\n    uint256 _baseBorrowRate,\r\n    uint256 _rateSlope1,\r\n    uint256 _rateSlope2,\r\n    uint256 _collateralPercent,\r\n    uint256 _liquidationBonusPercent,\r\n    uint256 _optimalUtilizationRate,\r\n    uint256 _excessUtilizationRate\r\n  ) public {\r\n    baseBorrowRate = _baseBorrowRate;\r\n    rateSlope1 = _rateSlope1;\r\n    rateSlope2 = _rateSlope2;\r\n    collateralPercent = _collateralPercent;\r\n    liquidationBonusPercent = _liquidationBonusPercent;\r\n    optimalUtilizationRate = _optimalUtilizationRate;\r\n    excessUtilizationRate = _excessUtilizationRate;\r\n  }\r\n\r\n  /**\r\n   * @dev get base borrow rate of the ERC20 token pool\r\n   * @return base borrow rate\r\n   */\r\n  function getBaseBorrowRate() external override(IPoolConfiguration) view returns (uint256) {\r\n    return baseBorrowRate;\r\n  }\r\n\r\n  /**\r\n   * @dev get collateral percent of the ERC20 token pool\r\n   * @return collateral percent\r\n   * Basically the collateral percent is the percent that liquidity can be use as collteral to cover the user's loan\r\n   */\r\n  function getCollateralPercent() external override(IPoolConfiguration) view returns (uint256) {\r\n    return collateralPercent;\r\n  }\r\n\r\n  /**\r\n   * @dev get the liquidation bonus of the ERC20 token pool\r\n   * @return liquidation bonus percent\r\n   * the liquidation bunus percent used for collateral amount calculation.\r\n   * How many collateral that liquidator will receive when the liquidation is success.\r\n   */\r\n  function getLiquidationBonusPercent()\r\n    external\r\n    override(IPoolConfiguration)\r\n    view\r\n    returns (uint256)\r\n  {\r\n    return liquidationBonusPercent;\r\n  }\r\n\r\n  /**\r\n   * @dev calculate the annual interest rate based on utilization rate\r\n   * @param _totalBorrows the total borrows of the ERC20 token pool\r\n   * @param _totalLiquidity the total liquidity of the ERC20 token of the pool\r\n   * First, calculate the utilization rate as below formula\r\n   * utilization rate = total borrows / (total borrows + available liquidity)\r\n   * Second, calculate the annual interest rate\r\n   * As the above graph which show the relative between the utilization rate and the borrow interest rate.\r\n   * There are 2 cases:\r\n   * 1. the utilization rate is less than or equal 80%\r\n   * - the borrow interest rate = base borrow rate + (utilization rate * rate slope 1 / optimal utilization rate)\r\n   * 2. the utilization rate is excessed 80%. In this case the borrow interest rate will be very high.\r\n   * - the excess utilization rate ratio = (utilization rate - optimal utilization rate) / excess utilization rate\r\n   * - the borrow interest rate = base borrow rate + rate slope 1 + (rate slope 2 * excess utilization rate ratio)\r\n   */\r\n  function calculateInterestRate(uint256 _totalBorrows, uint256 _totalLiquidity)\r\n    external\r\n    override(IPoolConfiguration)\r\n    view\r\n    returns (uint256)\r\n  {\r\n    uint256 utilizationRate = getUtilizationRate(_totalBorrows, _totalLiquidity);\r\n\r\n    if (utilizationRate > optimalUtilizationRate) {\r\n      uint256 excessUtilizationRateRatio = utilizationRate.sub(optimalUtilizationRate).wadDiv(\r\n        excessUtilizationRate\r\n      );\r\n      return baseBorrowRate.add(rateSlope1).add(rateSlope2.wadMul(excessUtilizationRateRatio));\r\n    } else {\r\n      return baseBorrowRate.add(utilizationRate.wadMul(rateSlope1).wadDiv(optimalUtilizationRate));\r\n    }\r\n  }\r\n\r\n  /**\r\n   * @dev get optimal utilization rate of the ERC20 token pool\r\n   * @return the optimal utilization\r\n   */\r\n  function getOptimalUtilizationRate() external override view returns (uint256) {\r\n    return optimalUtilizationRate;\r\n  }\r\n\r\n  /**\r\n   * @dev calculate the utilization rate\r\n   * @param _totalBorrows the total borrows of the ERC20 token pool\r\n   * @param _totalLiquidity the total liquidity of the ERC20 token of the pool\r\n   * @return utilizationRate the utilization rate of the ERC20 pool\r\n   */\r\n  function getUtilizationRate(uint256 _totalBorrows, uint256 _totalLiquidity)\r\n    public\r\n    override\r\n    view\r\n    returns (uint256)\r\n  {\r\n    return (_totalLiquidity == 0) ? 0 : _totalBorrows.wadDiv(_totalLiquidity);\r\n  }\r\n}\r\n",
  "sourcePath": "D:/Lending-Development/Lending/contracts/PoolConfiguration.sol",
  "compiler": {
    "name": "solc",
    "version": "0.6.11+commit.5ef660b1.Emscripten.clang"
  },
  "schemaVersion": "3.2.5",
  "updatedAt": "2020-11-03T00:52:35.747Z",
  "devdoc": {
    "author": "Alpha*",
    "kind": "dev",
    "methods": {
      "calculateInterestRate(uint256,uint256)": {
        "details": "calculate the annual interest rate based on utilization rate",
        "params": {
          "_totalBorrows": "the total borrows of the ERC20 token pool",
          "_totalLiquidity": "the total liquidity of the ERC20 token of the pool First, calculate the utilization rate as below formula utilization rate = total borrows / (total borrows + available liquidity) Second, calculate the annual interest rate As the above graph which show the relative between the utilization rate and the borrow interest rate. There are 2 cases: 1. the utilization rate is less than or equal 80% - the borrow interest rate = base borrow rate + (utilization rate * rate slope 1 / optimal utilization rate) 2. the utilization rate is excessed 80%. In this case the borrow interest rate will be very high. - the excess utilization rate ratio = (utilization rate - optimal utilization rate) / excess utilization rate - the borrow interest rate = base borrow rate + rate slope 1 + (rate slope 2 * excess utilization rate ratio)"
        }
      },
      "getBaseBorrowRate()": {
        "details": "get base borrow rate of the ERC20 token pool",
        "returns": {
          "_0": "base borrow rate"
        }
      },
      "getCollateralPercent()": {
        "details": "get collateral percent of the ERC20 token pool",
        "returns": {
          "_0": "collateral percent Basically the collateral percent is the percent that liquidity can be use as collteral to cover the user's loan"
        }
      },
      "getLiquidationBonusPercent()": {
        "details": "get the liquidation bonus of the ERC20 token pool",
        "returns": {
          "_0": "liquidation bonus percent the liquidation bunus percent used for collateral amount calculation. How many collateral that liquidator will receive when the liquidation is success."
        }
      },
      "getOptimalUtilizationRate()": {
        "details": "get optimal utilization rate of the ERC20 token pool",
        "returns": {
          "_0": "the optimal utilization"
        }
      },
      "getUtilizationRate(uint256,uint256)": {
        "details": "calculate the utilization rate",
        "params": {
          "_totalBorrows": "the total borrows of the ERC20 token pool",
          "_totalLiquidity": "the total liquidity of the ERC20 token of the pool"
        },
        "returns": {
          "_0": "utilizationRate the utilization rate of the ERC20 pool"
        }
      },
      "owner()": {
        "details": "Returns the address of the current owner."
      },
      "renounceOwnership()": {
        "details": "Leaves the contract without owner. It will not be possible to call `onlyOwner` functions anymore. Can only be called by the current owner. NOTE: Renouncing ownership will leave the contract without an owner, thereby removing any functionality that is only available to the owner."
      },
      "transferOwnership(address)": {
        "details": "Transfers ownership of the contract to a new account (`newOwner`). Can only be called by the current owner."
      }
    },
    "title": "Pool configuration contract",
    "version": 1
  },
  "userdoc": {
    "kind": "user",
    "methods": {
      "baseBorrowRate()": {
        "notice": "the borrow interest rate calculation Borrow interest rate(%)  ^  |             |    /  |             |   /  |             |  /<------ rate slope 2  |             | /  |         ____|/  |    ____/    |  | __/<--------|-------- rate slope 1  |/<-----------|-------- base borrow rate  |-------------|------|  Utilization rate(%)  0             80    100               ^   ^               |   | excess utilization rate               | optimal utilization rate When the utilization rate is too high (over 80%) the the pool will use rate slope 2 to calculate the borrow interest rate which grow very fast to protect the liquidity in the pool."
      }
    },
    "notice": "Implements the configuration of the ERC20 token pool.",
    "version": 1
  }
}