{
  "contractName": "VestingAlpha",
  "abi": [
    {
      "inputs": [
        {
          "internalType": "contract AlphaToken",
          "name": "_alphaToken",
          "type": "address"
        },
        {
          "internalType": "uint256",
          "name": "_vestingDuration",
          "type": "uint256"
        }
      ],
      "stateMutability": "nonpayable",
      "type": "constructor"
    },
    {
      "anonymous": false,
      "inputs": [
        {
          "indexed": true,
          "internalType": "address",
          "name": "user",
          "type": "address"
        },
        {
          "indexed": false,
          "internalType": "uint256",
          "name": "amount",
          "type": "uint256"
        }
      ],
      "name": "AlphaTokenAccumulated",
      "type": "event"
    },
    {
      "anonymous": false,
      "inputs": [
        {
          "indexed": true,
          "internalType": "uint256",
          "name": "receiptID",
          "type": "uint256"
        },
        {
          "indexed": false,
          "internalType": "uint256",
          "name": "amount",
          "type": "uint256"
        }
      ],
      "name": "ReceiptClaimed",
      "type": "event"
    },
    {
      "anonymous": false,
      "inputs": [
        {
          "indexed": true,
          "internalType": "uint256",
          "name": "receiptID",
          "type": "uint256"
        },
        {
          "indexed": true,
          "internalType": "address",
          "name": "recipient",
          "type": "address"
        },
        {
          "indexed": false,
          "internalType": "uint256",
          "name": "amount",
          "type": "uint256"
        }
      ],
      "name": "ReceiptCreated",
      "type": "event"
    },
    {
      "inputs": [],
      "name": "alphaToken",
      "outputs": [
        {
          "internalType": "contract AlphaToken",
          "name": "",
          "type": "address"
        }
      ],
      "stateMutability": "view",
      "type": "function"
    },
    {
      "inputs": [
        {
          "internalType": "uint256",
          "name": "",
          "type": "uint256"
        }
      ],
      "name": "receipts",
      "outputs": [
        {
          "internalType": "address",
          "name": "recipient",
          "type": "address"
        },
        {
          "internalType": "uint256",
          "name": "amount",
          "type": "uint256"
        },
        {
          "internalType": "uint256",
          "name": "createdAt",
          "type": "uint256"
        },
        {
          "internalType": "uint256",
          "name": "claimedAmount",
          "type": "uint256"
        }
      ],
      "stateMutability": "view",
      "type": "function"
    },
    {
      "inputs": [
        {
          "internalType": "address",
          "name": "",
          "type": "address"
        }
      ],
      "name": "userAccumulatedAlpha",
      "outputs": [
        {
          "internalType": "uint256",
          "name": "",
          "type": "uint256"
        }
      ],
      "stateMutability": "view",
      "type": "function"
    },
    {
      "inputs": [],
      "name": "vestingDuration",
      "outputs": [
        {
          "internalType": "uint256",
          "name": "",
          "type": "uint256"
        }
      ],
      "stateMutability": "view",
      "type": "function"
    },
    {
      "inputs": [
        {
          "internalType": "address",
          "name": "_user",
          "type": "address"
        },
        {
          "internalType": "uint256",
          "name": "_amount",
          "type": "uint256"
        }
      ],
      "name": "accumulateAlphaToUser",
      "outputs": [],
      "stateMutability": "nonpayable",
      "type": "function"
    },
    {
      "inputs": [],
      "name": "createReceipt",
      "outputs": [
        {
          "internalType": "uint256",
          "name": "",
          "type": "uint256"
        }
      ],
      "stateMutability": "nonpayable",
      "type": "function"
    },
    {
      "inputs": [
        {
          "internalType": "uint256",
          "name": "_receiptID",
          "type": "uint256"
        }
      ],
      "name": "claim",
      "outputs": [],
      "stateMutability": "nonpayable",
      "type": "function"
    }
  ],
  "bytecode": "0x608060405234801561001057600080fd5b50604051610ba5380380610ba58339818101604052604081101561003357600080fd5b5080516020909101516001600081815581546001600160a01b0319166001600160a01b03909416939093179055600355610b3290819061007390396000f3fe608060405234801561001057600080fd5b506004361061007c5760003560e01c8063379607f51161005b578063379607f51461010e57806370b4c9e01461012d578063b73480bf14610151578063b790f0a91461017d5761007c565b8062134177146100815780630f7ee1ec146100b95780631514617e14610106575b600080fd5b6100a76004803603602081101561009757600080fd5b50356001600160a01b0316610185565b60408051918252519081900360200190f35b6100d6600480360360208110156100cf57600080fd5b5035610197565b604080516001600160a01b0390951685526020850193909352838301919091526060830152519081900360800190f35b6100a76101d8565b61012b6004803603602081101561012457600080fd5b50356101de565b005b61013561049d565b604080516001600160a01b039092168252519081900360200190f35b61012b6004803603604081101561016757600080fd5b506001600160a01b0381351690602001356104ac565b6100a7610615565b60046020526000908152604090205481565b600281815481106101a457fe5b600091825260209091206004909102018054600182015460028301546003909301546001600160a01b039092169350919084565b60035481565b60026000541415610236576040805162461bcd60e51b815260206004820152601f60248201527f5265656e7472616e637947756172643a207265656e7472616e742063616c6c00604482015290519081900360640190fd5b60026000819055548110610288576040805162461bcd60e51b8152602060048201526014602482015273149958d95a5c1d081251081b9bdd08199bdd5b9960621b604482015290519081900360640190fd5b60006002828154811061029757fe5b9060005260206000209060040201905080600101548160030154106102ed5760405162461bcd60e51b8152600401808060200182810382526028815260200180610a556028913960400191505060405180910390fd5b80546001600160a01b031633146103355760405162461bcd60e51b815260040180806020018281038252602d815260200180610ad0602d913960400191505060405180910390fd5b600060035461035183600201544261081890919063ffffffff16565b1061035e57600354610374565b600282015461037490429063ffffffff61081816565b905060006103b583600301546103a960035461039d87600101548761086390919063ffffffff16565b9063ffffffff6108bc16565b9063ffffffff61081816565b905080156104925760038301546103d2908263ffffffff6108fe16565b600384015560015483546040805163a9059cbb60e01b81526001600160a01b039283166004820152602481018590529051919092169163a9059cbb9160448083019260209291908290030181600087803b15801561042f57600080fd5b505af1158015610443573d6000803e3d6000fd5b505050506040513d602081101561045957600080fd5b505060408051828152905185917f3d8a9568e94458306f1792bed57e560e4bf7e8e7d3ce46b409cb8178c2432d99919081900360200190a25b505060016000555050565b6001546001600160a01b031681565b60026000541415610504576040805162461bcd60e51b815260206004820152601f60248201527f5265656e7472616e637947756172643a207265656e7472616e742063616c6c00604482015290519081900360640190fd5b60026000908155600154604080516323b872dd60e01b81523360048201523060248201526044810185905290516001600160a01b03909216926323b872dd926064808401936020939083900390910190829087803b15801561056557600080fd5b505af1158015610579573d6000803e3d6000fd5b505050506040513d602081101561058f57600080fd5b50506001600160a01b0382166000908152600460205260409020546105ba908263ffffffff6108fe16565b6001600160a01b038316600081815260046020908152604091829020939093558051848152905191927ffb333c6eadcfe0323fb2810f118802ce275c671899d9df79901336b0cf4b3a7892918290030190a250506001600055565b60006002600054141561066f576040805162461bcd60e51b815260206004820152601f60248201527f5265656e7472616e637947756172643a207265656e7472616e742063616c6c00604482015290519081900360640190fd5b6002600090815533815260046020526040902054806106bf5760405162461bcd60e51b8152600401808060200182810382526032815260200180610a9e6032913960400191505060405180910390fd5b6040805160808101825233808252602080830185815242848601908152600060608601818152600280546001808201835582855298517f405787fa12a823e0f2b7631cc41b3ba8828b3321ca811111fa75cd3aa3bb5ace600492830290810180546001600160a01b0319166001600160a01b039093169290921790915595517f405787fa12a823e0f2b7631cc41b3ba8828b3321ca811111fa75cd3aa3bb5acf87015593517f405787fa12a823e0f2b7631cc41b3ba8828b3321ca811111fa75cd3aa3bb5ad086015590517f405787fa12a823e0f2b7631cc41b3ba8828b3321ca811111fa75cd3aa3bb5ad19094019390935584815292529381205591546107c691610818565b6040805184815290517f22a89d4ba2c7600f2a3a285f08303cd5d57725723c5e1c910d101053d791f7559181900360200190a360025461080d90600163ffffffff61081816565b915050600160005590565b600061085a83836040518060400160405280601e81526020017f536166654d6174683a207375627472616374696f6e206f766572666c6f770000815250610958565b90505b92915050565b6000826108725750600061085d565b8282028284828161087f57fe5b041461085a5760405162461bcd60e51b8152600401808060200182810382526021815260200180610a7d6021913960400191505060405180910390fd5b600061085a83836040518060400160405280601a81526020017f536166654d6174683a206469766973696f6e206279207a65726f0000000000008152506109ef565b60008282018381101561085a576040805162461bcd60e51b815260206004820152601b60248201527f536166654d6174683a206164646974696f6e206f766572666c6f770000000000604482015290519081900360640190fd5b600081848411156109e75760405162461bcd60e51b81526004018080602001828103825283818151815260200191508051906020019080838360005b838110156109ac578181015183820152602001610994565b50505050905090810190601f1680156109d95780820380516001836020036101000a031916815260200191505b509250505060405180910390fd5b505050900390565b60008183610a3e5760405162461bcd60e51b81526020600482018181528351602484015283519092839260449091019190850190808383600083156109ac578181015183820152602001610994565b506000838581610a4a57fe5b049594505050505056fe54686973207265636569707420686173206265656e20636c61696d656420616c6c20746f6b656e73536166654d6174683a206d756c7469706c69636174696f6e206f766572666c6f775573657220646f6e2774206861766520616363756d756c61746520416c70686120746f2063726561746520726563656970744f6e6c79207265636569707420726563697069656e742063616e20636c61696d20746869732072656365697074a264697066735822122083c887c180cf3d173cdaf0b572f4c88a6f111568316e8bb3f7e306504faf603064736f6c634300060b0033",
  "immutableReferences": {},
  "source": "// SPDX-License-Identifier: Apache-2.0\r\npragma solidity >=0.6.11;\r\n\r\nimport \"openzeppelin-solidity/contracts/math/SafeMath.sol\";\r\nimport \"openzeppelin-solidity/contracts/utils/ReentrancyGuard.sol\";\r\nimport \"../interfaces/IVestingAlpha.sol\";\r\nimport \"./AlphaToken.sol\";\r\n\r\n/**\r\n * @title Alpha vesting contract\r\n * @notice Implements Alpha vesting contract\r\n * @author Alpha\r\n */\r\n\r\ncontract VestingAlpha is IVestingAlpha, ReentrancyGuard {\r\n  using SafeMath for uint256;\r\n\r\n  /**\r\n   * @dev the struct for the receipt\r\n   */\r\n  struct Receipt {\r\n    address recipient;\r\n    uint256 amount;\r\n    uint256 createdAt;\r\n    uint256 claimedAmount;\r\n  }\r\n\r\n  /**\r\n   * @dev emitted on accumulate Alpha token\r\n   * @param user the account of user\r\n   * @param amount the amount of Alpha token to accumulate\r\n   */\r\n  event AlphaTokenAccumulated(address indexed user, uint256 amount);\r\n\r\n  /**\r\n   * @dev emitted on create receipt\r\n   * @param receiptID the ID of the receipt\r\n   * @param recipient the recipient of the receipt\r\n   * @param amount the amount to withdraw\r\n   */\r\n  event ReceiptCreated(uint256 indexed receiptID, address indexed recipient, uint256 amount);\r\n\r\n  /**\r\n   * @dev emitted on claim receipt\r\n   * @param receiptID the ID of the receipt\r\n   * @param amount the amount has been claimed\r\n   */\r\n  event ReceiptClaimed(uint256 indexed receiptID, uint256 amount);\r\n\r\n  // alpha token\r\n  AlphaToken public alphaToken;\r\n  // all receipt list of vesting contract\r\n  Receipt[] public receipts;\r\n  // the vesting duration to claim Alpha token\r\n  uint256 public vestingDuration;\r\n  // user => accumulate Alpha\r\n  mapping(address => uint256) public userAccumulatedAlpha;\r\n\r\n  constructor(AlphaToken _alphaToken, uint256 _vestingDuration) public {\r\n    alphaToken = _alphaToken;\r\n    vestingDuration = _vestingDuration;\r\n  }\r\n\r\n  /**\r\n   * @dev accumulate Alpha token to user\r\n   * @param _user the user account address\r\n   * @param _amount the amount of Alpha token to accumulate\r\n   */\r\n  function accumulateAlphaToUser(address _user, uint256 _amount) external override nonReentrant {\r\n    alphaToken.transferFrom(msg.sender, address(this), _amount);\r\n    userAccumulatedAlpha[_user] = userAccumulatedAlpha[_user].add(_amount);\r\n    emit AlphaTokenAccumulated(_user, _amount);\r\n  }\r\n\r\n  /**\r\n   * @dev create receipt for caller\r\n   */\r\n  function createReceipt() external nonReentrant returns (uint256) {\r\n    uint256 amount = userAccumulatedAlpha[msg.sender];\r\n    require(amount > 0, \"User don't have accumulate Alpha to create receipt\");\r\n    receipts.push(\r\n      Receipt({recipient: msg.sender, amount: amount, createdAt: now, claimedAmount: 0})\r\n    );\r\n    userAccumulatedAlpha[msg.sender] = 0;\r\n    emit ReceiptCreated(receipts.length.sub(1), msg.sender, amount);\r\n    return receipts.length.sub(1);\r\n  }\r\n\r\n  /**\r\n   * @dev claim receipt by receipt ID\r\n   * @param _receiptID the ID of the receipt to claim\r\n   */\r\n  function claim(uint256 _receiptID) external nonReentrant {\r\n    require(_receiptID < receipts.length, \"Receipt ID not found\");\r\n    Receipt storage receipt = receipts[_receiptID];\r\n    require(receipt.claimedAmount < receipt.amount, \"This receipt has been claimed all tokens\");\r\n    require(msg.sender == receipt.recipient, \"Only receipt recipient can claim this receipt\");\r\n    uint256 duration = now.sub(receipt.createdAt) < vestingDuration\r\n      ? now.sub(receipt.createdAt)\r\n      : vestingDuration;\r\n    uint256 pending = duration.mul(receipt.amount).div(vestingDuration).sub(receipt.claimedAmount);\r\n    if (pending > 0) {\r\n      receipt.claimedAmount = receipt.claimedAmount.add(pending);\r\n      alphaToken.transfer(receipt.recipient, pending);\r\n      emit ReceiptClaimed(_receiptID, pending);\r\n    }\r\n  }\r\n}\r\n",
  "sourcePath": "D:/Lending-Development/Lending/contracts/distribution/VestingAlpha.sol",
  "compiler": {
    "name": "solc",
    "version": "0.6.11+commit.5ef660b1.Emscripten.clang"
  },
  "schemaVersion": "3.2.5",
  "updatedAt": "2020-11-03T00:52:35.765Z",
  "devdoc": {
    "author": "Alpha",
    "events": {
      "AlphaTokenAccumulated(address,uint256)": {
        "details": "emitted on accumulate Alpha token",
        "params": {
          "amount": "the amount of Alpha token to accumulate",
          "user": "the account of user"
        }
      },
      "ReceiptClaimed(uint256,uint256)": {
        "details": "emitted on claim receipt",
        "params": {
          "amount": "the amount has been claimed",
          "receiptID": "the ID of the receipt"
        }
      },
      "ReceiptCreated(uint256,address,uint256)": {
        "details": "emitted on create receipt",
        "params": {
          "amount": "the amount to withdraw",
          "receiptID": "the ID of the receipt",
          "recipient": "the recipient of the receipt"
        }
      }
    },
    "kind": "dev",
    "methods": {
      "accumulateAlphaToUser(address,uint256)": {
        "details": "accumulate Alpha token to user",
        "params": {
          "_amount": "the amount of Alpha token to accumulate",
          "_user": "the user account address"
        }
      },
      "claim(uint256)": {
        "details": "claim receipt by receipt ID",
        "params": {
          "_receiptID": "the ID of the receipt to claim"
        }
      },
      "createReceipt()": {
        "details": "create receipt for caller"
      }
    },
    "title": "Alpha vesting contract",
    "version": 1
  },
  "userdoc": {
    "kind": "user",
    "methods": {},
    "notice": "Implements Alpha vesting contract",
    "version": 1
  }
}